:020000040000fa
:080000000002040000000000f2
:020000040000fa
:0400080038040000b8
:020000040000fa
:04000c0038040000b4
:020000040000fa
:0400100038040000b0
:020000040000fa
:0400140038040000ac
:020000040000fa
:0400180038040000a8
:020000040000fa
:04001c0038040000a4
:020000040000fa
:0400200038040000a0
:020000040000fa
:04002400380400009c
:020000040000fa
:040028003804000098
:020000040000fa
:04002c003804000094
:020000040000fa
:040030003804000090
:020000040000fa
:0400340002030000c3
:020000040000fa
:040038003804000088
:020000040000fa
:04003c003804000084
:020000040000fa
:040040003804000080
:020000040000fa
:04004400380400007c
:020000040000fa
:04004800fa020000b8
:020000040000fa
:04004c003804000074
:020000040000fa
:040050003804000070
:020000040000fa
:04005400ca030000db
:020000040000fa
:040058000e04000092
:020000040000fa
:04005c00a6030000f7
:020000040000fa
:040060003804000060
:020000040000fa
:04006400380400005c
:020000040000fa
:040068003804000058
:020000040000fa
:04006c003804000054
:020000040000fa
:040070003804000050
:020000040000fa
:04007400380400004c
:020000040000fa
:040078003804000048
:020000040000fa
:04007c003804000044
:020000040000fa
:040080003804000040
:020000040000fa
:04008400380400003c
:020000040000fa
:040088003804000038
:020000040000fa
:04008c003804000034
:020000040000fa
:040090003804000030
:020000040000fa
:040094002403000041
:020000040000fa
:040098003804000028
:020000040000fa
:04009c003804000024
:020000040000fa
:0400a0003804000020
:020000040000fa
:0400a400380400001c
:020000040000fa
:0400a8003804000018
:020000040000fa
:0400ac003804000014
:020000040000fa
:0400b0003804000010
:020000040000fa
:0400b400380400000c
:020000040000fa
:0400b8003804000008
:020000040000fa
:0400bc003804000004
:020000040000fa
:0400c0003804000000
:020000040000fa
:0400c40038040000fc
:020000040000fa
:0400c80038040000f8
:020000040000fa
:0400cc0038040000f4
:020000040000fa
:0400d00038040000f0
:020000040000fa
:0400d40038040000ec
:020000040000fa
:0400d80038040000e8
:020000040000fa
:0400dc0038040000e4
:020000040000fa
:0400e00038040000e0
:020000040000fa
:0400e40038040000dc
:020000040000fa
:0400e80038040000d8
:020000040000fa
:0400ec0038040000d4
:020000040000fa
:0400f00038040000d0
:020000040000fa
:0400f40038040000cc
:020000040000fa
:0400f80038040000c8
:020000040000fa
:0400fc0038040000c4
:020000040000fa
:0401000038040000bf
:020000040000fa
:0401040038040000bb
:020000040000fa
:0401080038040000b7
:020000040000fa
:04010c0038040000b3
:020000040000fa
:0401100038040000af
:020000040000fa
:0401140038040000ab
:020000040000fa
:0401180038040000a7
:020000040000fa
:04011c0038040000a3
:020000040000fa
:04012000380400009f
:020000040000fa
:04012400380400009b
:020000040000fa
:040128003804000097
:020000040000fa
:04012c003804000093
:020000040000fa
:04013000380400008f
:020000040000fa
:04013400380400008b
:020000040000fa
:040138003804000087
:020000040000fa
:04013c003804000083
:020000040000fa
:04014000380400007f
:020000040000fa
:04014400380400007b
:020000040000fa
:040148003804000077
:020000040000fa
:04014c003804000073
:020000040000fa
:04015000380400006f
:020000040000fa
:04015400380400006b
:020000040000fa
:040158003804000067
:020000040000fa
:04015c003804000063
:020000040000fa
:04016000380400005f
:020000040000fa
:04016400380400005b
:020000040000fa
:040168003804000057
:020000040000fa
:04016c003804000053
:020000040000fa
:04017000380400004f
:020000040000fa
:04017400380400004b
:020000040000fa
:040178003804000047
:020000040000fa
:04017c003804000043
:020000040000fa
:04018000380400003f
:020000040000fa
:04018400380400003b
:020000040000fa
:040188003804000037
:020000040000fa
:04018c003804000033
:020000040000fa
:04019000380400002f
:020000040000fa
:04019400380400002b
:020000040000fa
:040198003804000027
:020000040000fa
:04019c003804000023
:020000040000fa
:0401a000380400001f
:020000040000fa
:0401a400380400001b
:020000040000fa
:0401a8003804000017
:020000040000fa
:0401ac003804000013
:020000040000fa
:0401b000380400000f
:020000040000fa
:0401b400380400000b
:020000040000fa
:0401b8003804000007
:020000040000fa
:0401bc003804000003
:020000040000fa
:0401c00038040000ff
:020000040000fa
:0401c40038040000fb
:020000040000fa
:0401c80038040000f7
:020000040000fa
:0401cc0038040000f3
:020000040000fa
:0401d00038040000ef
:020000040000fa
:0401d40038040000eb
:020000040000fa
:0401d80038040000e7
:020000040000fa
:0401dc0038040000e3
:020000040000fa
:0401e00038040000df
:020000040000fa
:0401e40038040000db
:020000040000fa
:0401e80038040000d7
:020000040000fa
:0401ec0038040000d3
:020000040000fa
:0401f00038040000cf
:020000040000fa
:0401f40038040000cb
:020000040000fa
:0401f80038040000c7
:020000040000fa
:0401fc0038040000c3
:020000040000fa
:0402000038040000be
:020000040000fa
:0402040038040000ba
:020000040000fa
:0402080038040000b6
:020000040000fa
:04020c0038040000b2
:020000040000fa
:0402100038040000ae
:020000040000fa
:0402140038040000aa
:020000040000fa
:0402180038040000a6
:020000040000fa
:04021c0038040000a2
:020000040000fa
:04022000380400009e
:020000040000fa
:04022400380400009a
:020000040000fa
:040228003804000096
:020000040000fa
:04022c003804000092
:020000040000fa
:04023000380400008e
:020000040000fa
:04023400380400008a
:020000040000fa
:040238003804000086
:020000040000fa
:04023c003804000082
:020000040000fa
:04024000380400007e
:020000040000fa
:04024400380400007a
:020000040000fa
:040248003804000076
:020000040000fa
:04024c003804000072
:020000040000fa
:04025000380400006e
:020000040000fa
:04025400380400006a
:020000040000fa
:040258003804000066
:020000040000fa
:04025c003804000062
:020000040000fa
:04026000380400005e
:020000040000fa
:04026400380400005a
:020000040000fa
:040268003804000056
:020000040000fa
:04026c003804000052
:020000040000fa
:04027000380400004e
:020000040000fa
:04027400380400004a
:020000040000fa
:040278003804000046
:020000040000fa
:04027c003804000042
:020000040000fa
:04028000380400003e
:020000040000fa
:10040000cf2a21000eff27000e0188000000000007
:10041000000020000000e000020032000001200087
:100420002002880014000700130107000000e0000c
:1004300003003a00800b2200010020000200370078
:100440000000200001002000810f70000100320038
:100450000f000700000020000000e0000200320052
:1004600000000200000000001c210200000000004b
:100470000040da000000fe00a00020000000e000c4
:1004800002003200002020009001880000000600d9
:10049000a1028800800478000000eb001f003700f4
:1004a000e284440054a0b4009905ba00e2844400f8
:1004b00054a0b4009906ba00e284440054a0b400e9
:1004c0000006eb00476fde00fd07b200ae018800ba
:1004d000636ce10003003a000ad801000000eb0061
:1004e0000e003700606ce10008003a00004deb00a0
:1004f0000a05e800020039003420ec000af0a000f0
:100500008b05e900f9ff3e00040037006168e10057
:10051000010032000086eb000b00070019c7ba008b
:100520000e04e0001905ba0003003a000a00e000da
:10053000dbff3a0000000600fe07b200ae028800b2
:100540008a047800f5ff37000cd0a300e20f4d00bd
:100550001c00390089027800354dba000a05e80010
:10056000020039003420ec000af0a0008b05e900fd
:100570000f003200254dba000a05e80002003900dc
:100580003420ec000af0a0008b05e90008003200de
:100590000c00e0000600320015cdba000a05e800a4
:1005a000020039003420ec000af0a0008b05e900bd
:1005b0008984e80054a0b4000b00e000e2ff3a0098
:1005c000000006009902ba00055d78008b05e9007d
:1005d000f7ff3200c82ade00055d78008b05e900d0
:1005e000f3ff32000c00e000f1ff320019ddba0029
:1005f000eeff37000000fa000108a9000080fa00b1
:10060000004006003600f800809fbe00829fbe00ba
:10061000849fbe00869fbe000000fa000068a9000b
:100620002b0c070088090700510707000080fa001b
:100630004f03be004f02be004f01be004f00be0080
:100640003600f900004006003600f800809fbe002a
:10065000829fbe00849fbe00869fbe000200fa00fb
:100660000368a900808180009181800061004000c2
:10067000e08048008081880091818800240c070078
:1006800088030700a0818000000f7800a1002000ef
:100690001e00780081017800110009000300d800d5
:1006a00001f0a7008100ea008100e900cf08de0028
:1006b000814078001e0178000200e800a0818800d7
:1006c0000104e0001a003200207180004a00de00c0
:1006d000614060000080fb00800078001000200076
:1006e0000c0a0700207380004700de0061406000b4
:1006f0000080fb008000780020002000050a070031
:10070000207380004600de00614060000080fb0036
:100710008000780030002000fe0907000c0a070066
:100720003f0a0700510a0700630a0700a00a0700f2
:100730000080fa004f03be004f02be004f01be0012
:100740004f00be003600f90000400600801f780010
:100750000000fa0001a8a900001880001095880088
:10076000101880002095880020188000309588009f
:10077000301880004095880040188000509588000f
:1007800010c0b30049f0b7000080fa004f007800b5
:10079000004006003600f800809fbe00829fbe0029
:1007a000849fbe00869fbe000000fa000168a90079
:1007b00010118000640060000000e00001003200c1
:1007c0002242a90010118000620060000000e000d9
:1007d000060032002222a9000500370030118000f7
:1007e00000407800bc0d0700010037000000000049
:1007f00010118000610060000000e000f7ff3a0087
:100800000080fa004f03be004f02be004f01be0041
:100810004f00be003600f900004006003600f80028
:10082000809fbe00829fbe00849fbe00869fbe0048
:100830000000fa000188a900c1818000b081800019
:10084000808f500002003200810d07000100370048
:100850003a70ef000080fa004f03be004f02be0066
:100860004f01be004f00be003600f90000400600f8
:100870000040da000000fe000000050003f0a200c6
:10088000889fbe008a9fbe008c1f7800d30107009e
:10089000da0133006450e1004f0032006420e100cf
:1008a0005200320003826c0007003b000905d000b3
:1008b0000306d000820f54000c065d0002003900d0
:1008c0000200320089017800030678008582550015
:1008d00004003d000003fd008103fd008502ea00e5
:1008e0008b854200840f720002003b006000100004
:1008f000e08018006011b8000005eb007a28e100e4
:100900000a00390006007800c75ddd00f707b20075
:10091000878075002d003700828171000a01780000
:10092000610560008180d1000080d3008502e9006c
:10093000f9ff3b00060440008784480002003b00aa
:1009400060041400e0841c000988a3000700320042
:100950008a81710082817100610164008904d10083
:100960000884d3008b05e800170037000978a3003e
:1009700013003a000b00e000130034008b05e9007f
:100980000804440089844c000a4474000978a300d8
:100990000d003a000b00e000070034008b05e90071
:1009a0000804440089844c0001003a000b00200038
:1009b0000978a300f7ff32000001eb0002003700c6
:1009c000828171000a017800490107000cf0a7003c
:1009d00001f0a000920137006420e10002003a001b
:1009e000838f6c00920133000801be000200be003c
:1009f0008b013700889fbe008a9fbe008c9fbe007f
:100a00000004be00600107000800be0089067800ef
:100a10006420e10008003900040032000160a000f9
:100a200012022000528288005300370091fc2300fc
:100a3000b0fd20004e0037000006eb0009f0a100d9
:100a400003f82300020020000800be009200070007
:100a50000600340001f82300000020000801be0059
:100a60004b0007000004be002c0020000800be0060
:100a700093e82300320a23008700070012003400a5
:100a80000801be00d1fd2300703d2b007cff070054
:100a90000005be00b3f32300f27a26000800be0072
:100aa0006601070003f823000200200073ff07001f
:100ab0000801be0072ff07000a01be0034000700f3
:100ac0000004be000c06e8000800be0001f0a10012
:100ad00002002000039823006f0007000800be00fa
:100ae000160035000801be00540107000005be00d5
:100af00032cd2c0043fb230061ff0700809fbe0026
:100b00001269280003d52b000a00be004b01070024
:100b1000620f210013ef2b0059ff07000a01be00ee
:100b2000460107004f01be00190007000801be0082
:100b3000420107000801be0051ff07000c00e00061
:100b40000b0032000c10a70001f0a200b2fd200043
:100b500093fc23006260e1000400320022a920001f
:100b600063f023000c10a70063f8230044ff070084
:100b70000df0a70001f0a2004f06be004f05be0019
:100b80004f04be00000006000081eb005f0137004b
:100b9000889fbe008a9fbe008c1f78000f0107004f
:100ba0001601330003866c006450e1002e00320011
:100bb0006420e100330032006150e1002f00320078
:100bc0006120e1003100320085855500eb07b0005f
:100bd0000900200008042000050037000804440034
:100be00089844c000a0031000603430087834b00d0
:100bf0000001530081815b00f8ff33000203be0057
:100c00000800a0000804440089844c00f6ff390065
:100c1000c639dd008301730001003200130020009b
:100c20008904d1000884d3000998a300050032008c
:100c30000800a7000300a0008904d1000884d300a5
:100c40008b05e8008904d1000884d3000001eb0083
:100c50000281d200a600070001f0a1000cf0a7005d
:100c600001f0a000ee0037006420e100f000320047
:100c70000801be000200be00f7ff37006120e1005e
:100c8000eb0032006000b800f3ff370000002000e6
:100c900001f82700f0ff370014002000860137001c
:100ca000f4ff2f00840137000001be00b6000700ea
:100cb0000470a70003f0a1006509b100160032001e
:100cc0000d0035006828e10006003500f0ff2f0018
:100cd000f1ff27000300e00013003b0001002800a3
:100ce0000000050000004000818048008502e90006
:100cf000fcff3a0008003700f88f420002003c0079
:100d00008000eb00000005008100d1000080d300ce
:100d10008502e800fcff3a000300e00002003b000f
:100d200060001000e0801800000006000001be0016
:100d3000950007000470a70003f0a10003f8a300ca
:100d400013003a006509b1001000320009003500b7
:100d50006928e100020035000100280000000500bc
:100d600000004000818048008502e900fcff3a0055
:100d700000000600f88f4200050035008100d10018
:100d80000080d3008502e800fcff3a000000060066
:100d90008000eb00000005004f89de008201780032
:100da000600137006011b8006e01370004002000b8
:100db00000003700889fbe008a9fbe008c1f78000d
:100dc0004f26dd00850007008c0033006120e10024
:100dd000430032006250e10041003e003e00390015
:100de0006420e1003c003200058255000f003b000a
:100df0000402e80038003a00800f5300818f5b0046
:100e0000350034000800be0003f0a10001f0a60088
:100e100003f0a0000cf0a70099fe07008000370047
:100e20000603430087834b000c4646000005530031
:100e300081855b00020033000a03be000c00a000a5
:100e40000402e900f6ff3b00850578000602430036
:100e500087824b0004003a006000b80009f0a70048
:100e600001f0a0006e0037000002520081825a009b
:100e70000704e000040033000603430087834b00af
:100e80008b05e900faff3700090578000604be006b
:100e90000203be006011b80015000700e00f520009
:100ea000e08f5a000700350002003c000c08a30048
:100eb000040032000601be0003f0a0000cf0a70001
:100ec0006ffe07000a85680001f0a1000af0a70084
:100ed00001f0a000520037000800be0050003700ab
:100ee000100220000cf0a60050828800500037004d
:100ef00081002000618055000b003d000b002000a8
:100f000061fe2f000100e1001d00340082817100ac
:100f1000610164008904d1000884d3000000e80066
:100f2000faff3a00710020006100640003007000c5
:100f3000020060000900320061044400e0844c00bb
:100f40000988a500050032008b05e8006808e1006b
:100f500002003a008904d1000884d300f20f200077
:100f60000258e10005003d00c75ddd00f907b20051
:100f70008980750008007800000006000bf8270043
:100f80008b00780000000500c70ade00f107b20000
:100f9000f50fb20008003200e1cf4200020032003b
:100fa0000170a00024000500810f700001003200d4
:100fb0000408050044000500810f700002003a009b
:100fc000140005008502e9000000400081c04800cf
:100fd000fcff3b000170a000240005000004be00df
:100fe000e9ff07000003be000405be000200be00ca
:100ff000e5ff0700844f7500000006000200be00f8
:101000006450e100050036006420e1000200360073
:101010000968a30001003a000800be000160a000ba
:101020004f0678004f05be004f04be0000000600ca
:10103000f0ff2f00f1ff2700f9ff3700889fbe0067
:101040008a9fbe008c1f7800e4ff0700ebff33008f
:1010500003866c006450e100240032006420e1004b
:10106000270032006150e100220032006120e100df
:10107000210032008b854200eb07b1000134b8003b
:10108000003ab8000804420089844a00013ab800d6
:101090000030b8008880400009014a000400330095
:1010a0000000400081804800020149008b05e900f2
:1010b000c909dd0083017000010032001300200027
:1010c000c814de004814dd004709de001200b2003b
:1010d000c808de000884700085ff070001f0a10049
:1010e0000cf0a70001f0a000cdff37006120e10067
:1010f000cfff32000801be000200be00f7ff37003c
:101100006150e100fcff3a00c9ff3700889fbe0034
:101110008a9fbe008c9fbe00820578000004be003e
:1011200099ff07000800be006420e10007003900b5
:1011300002003a00f1ff2700f0ff2f000160a0003d
:101140001202200052828800550037006120e10021
:1011500003003a000b00a70001f8230050003700fd
:1011600001f0a1000200210093642400cafe0700e0
:101170000800be0004003500b2fd2000930c2400de
:101180000aff07000004be000005eb000b00a600ec
:101190004f0dde0001f0a1000004be0032982f00c8
:1011a00023ea2300a5ff07000001eb0003f0230062
:1011b0000b00a70003f82300b1fd0700bafe0700eb
:1011c0000000a7000a00a200f3fe07000b00e000e9
:1011d000030032000200200003f02300a7fd0700f7
:1011e00001f0a2000006be000200200093042400cb
:1011f00092ff07000801be00a1fd0700809fbe000e
:101200000c00be0022a22a00d3a723008bff0700f8
:101210004f01be009afd07000004be0001f0a100ce
:1012200002002000039823009bfe07000800be0078
:10123000190035000001be0080ff07000006be0057
:10124000b2c52900e36223007cff070022222b00a5
:10125000f3942b008afd07000c01be0077ff070006
:10126000e273280083c0230085fd07000c01be0047
:1012700072ff070042aa2a00a3e22b0080fd0700ac
:101280000c01be006dff07000801be006bff0700e8
:101290000801be007afd07000a00a70001f0a200c5
:1012a0004f06be004f05be004f04be000000060002
:1012b0000001eb0095ff3700889fbe008a9fbe00ab
:1012c000841f780045ff07004f00780011003300ad
:1012d000f0ff2f00838f6c0006003b0004056500c3
:1012e0000a00a7000800370009f0a600100020003f
:1012f00008003700820f5400838f5c000300390020
:101300001000200001003e000000200009f0a700ae
:101310000000ea004f05be004f04be000000e000e0
:1013200000000600881f7800030478000300e00036
:1013300007003d0060001000e08018006001190007
:10134000e081190002003b0001f02d00030037008e
:101350000400070008f0a70001f0a0004f04780087
:1013600000000600889fbe008a9fbe0000827000b9
:101370000402710004827100260032000004be00e5
:101380000200be006011b8006b0920009502200029
:101390000182cf000a0039000541b1000082cf0070
:1013a000070039000541b1000982cf00040039006f
:1013b0000541b1000882cf00010039000541b100ac
:1013c00005425200120032000a003b008281710087
:1013d000610164008100d1000080d3008984d300c2
:1013e0000884d3008b05e8000442e800f7ff3a00c8
:1013f000070037000804440089844c0000004800be
:10140000818048008b05e9000442e900f9ff3a00b9
:10141000b7fe07004f05be004f04be0000000600e7
:020000040000fa
:101420004d6f0000646500002041000075740000ed
:041430006f00000049
:020000040000fa
:101434000200fa00004f78001e417800810221006a
:10144400824878000080fa00000006000200fa00da
:10145400004f78001e4078000004a2000080fb00ca
:101464000000e9004f00de00208288002082800016
:101474000000e00003003a00c0c0b30028f0b70049
:10148400010037002870ef000080fa000000060019
:101494000000fa00208280000080fa0000000600ac
:1014a4000000fa00881f78002082800034070700bb
:1014b40028d0bf000080fb00cf80de007201200036
:1014c40003002000820f5000838f580004013e0067
:1014d4000006010017003700220037002b003700f8
:1014e4006300370064003700700037007100370074
:1014f4007d0037007e0037008b0037008c003700fa
:10150400990037009a003700a5003700a60037007d
:10151400b3003700b4003700c1003700c200370001
:10152400cf003700d0003700dc003700dd00370083
:10153400e90037003030ef003230ef0010002000b7
:10154400208288000001eb006000b800ab050700b2
:10155400120020006000b800a805070010c0b30006
:1015640028f0b7008281800093818000803e2000b3
:1015740001002000800f5100818f5900dc003600eb
:1015840020c0b30028f0b700da0037000c020700cf
:1015940050818800618188005081800061818000d1
:1015a40018c0b30002002000031f2400bbfd070085
:1015b4000000e00001003d000044eb000804e000ee
:1015c4000400320064cea90064eea800254ea900f0
:1015d4001d003700508180006181800018c0b30075
:1015e40002002000031a2400acfd07000000e00004
:1015f40001003d000044eb000804e0000400320058
:1016040064cea80064eea900254ea9000e003700a0
:10161400508180006181800018c0b3000200200066
:10162400031a24009bfd07000000e00001003500c0
:101634000044eb000804e0000300320064cea9007b
:1016440064eea900254ea9005081800061818000cc
:101654000001eb0069050700508180006181800072
:10166400120020006505070030c0b30028f0b70061
:10167400a30007009f0037000001eb0000002000da
:10168400011f24005d050700120020006000b8005f
:101694005a05070050c0b30028f0b70064cea80074
:1016a40064eea800254ea9009200370094000700bc
:1016b400900037000001eb006000b8004f05070000
:1016c4001200200000002000011f24004b05070029
:1016d40070c0b30028f0b70064cea90064eea9007e
:1016e400254ea800830037008500070081003700dd
:1016f4000001eb0000002000011724003f05070053
:10170400120020000000200001172c003b050700f8
:1017140090c0b30028f0b70064cea80064eea8001f
:10172400254ea800730037007500070071003700cc
:101734000001eb000000200001172c002f0507001a
:101744001200200000002000011724002b050700d0
:10175400b0c0b30028f0b70064cea80064eea800bf
:10176400254ea800630037006500070061003700bc
:101774000001eb006000b800200507001200200003
:101784006000b8001d050700d0c0b30028f0b70002
:1017940064cea90064eea900254ea90055003700c7
:1017a40057000700530037000001eb000000200041
:1017b40001172c0011050700120020000000200072
:1017c40001172c000d050700f0c0b30028f0b70086
:1017d40064cea90064eea900254ea9004500370097
:1017e40047000700430037000001eb000000200021
:1017f400011724000105070012002000000020004a
:1018040001122400fd04070010c1b30028f0b70042
:1018140064cea80064eea800254ea9003500370068
:1018240037000700330037000001eb000000200000
:1018340001122400f104070012002000000020001f
:1018440001172400ed04070064cea90064eea9008a
:10185400254ea80030c1b30028f0b700250037009a
:1018640027000700230037000001eb0000002000e0
:1018740001172400e1040700120020006000b800f2
:10188400de04070050c1b30028f0b70064cea800fe
:1018940064eea900254ea8001600370018000700c2
:1018a400140037000001eb006000b800d304070007
:1018b400120020000000200001172400cf040700bc
:1018c40070c1b30028f0b70064cea80064eea9008c
:1018d400254ea8000700370009000700050037005f
:1018e400c0c0b30028f0b7000000000001003700ba
:1018f400000000004f0478000080fa000000060099
:101904000200fa00881f780020828000e10f500056
:1019140028013a000040eb00004f780070938000eb
:101924008193800018c0b30002002000031a240031
:10193400d8fc07000000e000010035000044eb0083
:101944000804e0000300320030c0b300004f780008
:10195400d800370090938000a193800018c0b30092
:101964000200200003122400cafc07000000e0006b
:10197400010035000044eb000804e0000b003200d5
:10198400b0938000c193800018c0b300020020000f
:1019940003122400c1fc07000000e00001003c0029
:1019a4000044eb000804e0000b003a009093800030
:1019b400a193800018c0b30002002000030a240091
:1019c400b4fc07000000e000010035000044eb0017
:1019d4000804e0000300320070c0b300004f780038
:1019e400b400370090938000a193800018c0b30026
:1019f4000200200003122400a8fc07000000e000fd
:101a040001003c000044eb000804e0000b0032003d
:101a1400b0938000c193800018c0b300020020007e
:101a2400031224009bfc07000000e00001003500c5
:101a34000044eb000804e0000b003a00b09380007f
:101a4400c193800018c0b30002002000030a2400e0
:101a540090fc07000000e000010035000044eb00aa
:101a64000804e0000300320060c0b300004f7800b7
:101a74009000370090938000a193800018c0b300b9
:101a8400020020000312240082fc07000000e00092
:101a9400010035000044eb000804e0001e003200a1
:101aa400b0938000c193800018c0b30002002000ee
:101ab4000312240077fc07000000e0000100350059
:101ac4000044eb000804e00013003200949380000b
:101ad400a5938000b0938000c193800018c0b30028
:101ae4000001be000400be006afc07000000e00024
:101af400010035000044eb000804e000030032005c
:101b040040c0b300004f78006a00370050c0b300f3
:101b1400004f7800670037003093800041938000c5
:101b240018c0b30002002000031a240059fc070067
:101b34000000e000010035000044eb000804e00070
:101b44000e003200509380006193800018c0b300ef
:101b540002002000031a24004efc07000000e000ed
:101b6400010035000044eb000804e00003003200eb
:101b740030c0b300004f78004e003700309380002f
:101b84004193800018c0b30002002000031f24000a
:101b940040fc07000000e000010035000044eb00b9
:101ba4000804e000190032007093800081938000e3
:101bb40018c0b30002002000031a240037fc0700f9
:101bc4000000e00001003c000044eb000804e000d9
:101bd4000e003200509380006193800018c0b3005f
:101be40002002000031f24002cfc07000000e0007a
:101bf40001003c000044eb000804e0000300320054
:101c040020c0b300004f78002a00370030938000d2
:101c14004193800018c0b30002002000031f240079
:101c24001efc07000000e00001003c000044eb0043
:101c34000804e00019003200709380008193800052
:101c440018c0b30002002000031a240013fc07008c
:101c54000000e00001003c000044eb000804e00048
:101c64000e003200509380006193800018c0b300ce
:101c740002002000031f240006fc07000000e0000f
:101c8400010035000044eb000804e00003003200ca
:101c940010c0b300004f7800060037000040eb008e
:101ca400004f7800308280000000e800610060008e
:101cb400308288001e4078000004e00003003a00ef
:101cc40020c0b3002ef0b7002f0037001e4078006c
:101cd400e34f500009003a00308280000000e00029
:101ce40003003200a0c0b3002ef0b7002600370076
:101cf40080c0b3002ef0b700230037001e407800e8
:101d0400e24f500003003a0040c0b3002ef0b70089
:101d14001d0037001e407800e14f500003003a00d8
:101d240060c0b3002ef0b700170037001e407800e3
:101d3400e44f500003003a0020c1b3002ef0b70076
:101d4400110037001e407800e54f500003003a00b0
:101d540000c1b3002ef0b7000b0037001e4078001e
:101d6400e74f500003003a0060c1b3002ef0b70003
:101d7400050037001e407800e64f500002003a008c
:101d840040c1b3002ef0b7002ed0bf008080fb000e
:101d940028d0bf000080fb000000e900808f5000c5
:101da400040032002ed0bf0028f0b70028d0bf00b6
:101db400d30407004f0478000080fa0000000600f6
:101dc4001400fa00889fbe0098938000a9938000b5
:101dd400369380004793800074938000859380003d
:101de4005293800063938000b0938000c19380007d
:101df400088fbe002607980037079800440798000c
:101e0400550798006207980073079800000f980020
:101e1400110f98000e00780019010700020020003d
:101e24000312240094fa070050818800618188001d
:101e3400508180006181800018c0b300020020003e
:101e44008324240095fb07000000e00001003c000f
:101e54000044eb000804e00005003200000020000c
:101e64008124240050818800618188000f0037009c
:101e7400508180006181800018c0b30002002000fe
:101e84000312240083fb07000000e000010035007a
:101e94000044eb000804e0000400320000002000cd
:101ea40001122400508188006181880050818000e3
:101eb400618180004f04be000080fa00000006002b
:101ec4000400fa00881f7800008fbe0018c0b30019
:101ed4006011b8001e0078009e0090006ffb0700a0
:101ee4000000e00001003d000044eb000804e000b5
:101ef400030032001e0078009e00900003003700ab
:101f04001e0078009e00900001f0a2004f047800ab
:101f14000080fa00000006000800fa00881f78001c
:101f2400008fbe00220798003307980018c0b30042
:101f34002e019000be0190001e0078009e009000cb
:101f440056fb07000000e00001003c000044eb00e9
:101f54000804e000030032001e0078009e00900098
:101f6400020037002e009000be0090004f0478005d
:101f74000080fa00000006000800fa00881f7800bc
:101f8400008fbe00220798003307980018c0b300e2
:101f94002e019000be0190001e0078009e0090006b
:101fa4003cfb07000000e000010035000044eb00aa
:101fb4000804e000030032001e0078009e00900038
:101fc400020037002e009000be0090004f047800fd
:101fd4000080fa00000006000c00fa00881f780058
:101fe400008fbe002207980033079800440798002a
:101ff4005507980018c0b3002e019000be01900050
:102004001e0078009e00900022fb07000000e00004
:10201400010035000044eb000804e0000300320036
:102024002e009000be0090001000370018c0b300ce
:102034004e019000de0190001e0078009e0090008a
:1020440016fb07000000e00001003c000044eb0028
:102054000804e000030032004e009000de0090000f
:10206400020037001e0078009e0090004f047800a4
:102074000080fa00000006000800fa00200798001b
:1020840031079800b2fd2000930424002e00900034
:10209400be009000f8f90700b2fd2000930c240064
:1020a40041fb0700b2fd200093042400f3f907006c
:1020b400008fbe00b2fd2000930424001e007800af
:1020c4009e009000edf90700b2fd2000930c24005f
:1020d40035fb0700b2fd200093042400e6f9070055
:1020e4000080fa00000006000a00fa003007980099
:1020f40041079800be0090004e009000008f400001
:102104001e007800100178009001900012079800da
:10211400230798001e009000ae0090000080fa0093
:10212400000006000600fa00100798002107980036
:102134009e0090002e009000008f40001e0078004a
:1021440090009000100078000080fa000000060063
:102154000c00fa0020079800310798004207980005
:102164005307980068004700100798000000eb0030
:10217400000f78000a0037003e0090001e00400067
:10218400ae009000008040009e0078001e01900088
:102194008100410091407800014878001e0fe8005a
:1021a4001e007800e30f5000f3ff34000080fa00b3
:1021b400000006000c00fa00200798003107980080
:1021c40042079800530798006800470010079800da
:1021d4000000eb00000f78000b0037003e00900079
:1021e4001e004000ae00900000804000320020003d
:1021f4009e0051001e019000810041009140780032
:10220400014878001e0fe8001e007800e30f50001c
:10221400f2ff34000080fa00000006000c00fa000f
:102224002007980031079800420798005307980048
:1022340068004700100798000000eb00000f7800ca
:102244000a0037003e0090001e004000ae009000df
:10225400008040009e0078001e0190008100410033
:1022640091407800014878001e0fe8001e007800b5
:10227400e70f5000f3ff34000080fa00000006006e
:102284000800fa00881f7800300798003e0090008c
:10229400301f7800201778000000eb00200798001a
:1022a400180037002e0090004200dd00be009000b0
:1022b40000804000900090001000780018c0b30027
:1022c4001e0178009e01900072fa07000000e000f1
:1022d400010035000044eb000804e0000600320071
:1022e4002e0090004200dd00be00900000804000ff
:1022f400301f7800201778002e0090000000e800be
:10230400200798002e009000e40f5000e5ff3400f1
:102314001e0078009e0090004f0478000080fa00b0
:10232400000006000000fa00c301a8000080eb00d2
:10233400e00e88000080eb00f00e8800c1e1a800e8
:102344000080fa00000006000000fa00c305a8009f
:102354000080eb00e02e88000080eb00f02e880067
:10236400c1e5a8000080fa00000006000800fa0099
:10237400889fbe008a9fbe0020808000318080003c
:102384000080880011808800608080007180800057
:102394004080880051808800300e80008000eb006f
:1023a400008fbe00500e80008000eb00c000dd00f6
:1023b400000020001e0f40005e974800302e800071
:1023c4008000eb002007980031079800502e800011
:1023d4008000eb00c000dd00000020002e01900012
:1023e400be0190000200400083804800200798004e
:1023f400310798001e0078009e00900065fa0700df
:1024040072b32000937823000bfb07002080880020
:10241400318088002e009000be0090005dfa070015
:1024240072b3200093782b0003fb070060808800c0
:1024340071808800248080003580800000808000c6
:10244400118080000001be000400be00fafa0700fb
:10245400808088009180880064808000758080007e
:1024640040808000518080000001be000400be0056
:10247400f1fa0700a0808800b18088008480800081
:1024840095808000a0808000b18080000001be00a3
:102494000400be00e8fa070022972f00f3e82300a7
:1024a400baf90700c0808800d18088008480800049
:1024b40095808000a0808000b18080000001be0073
:1024c4000400be00edf80700020020000300240011
:1024d400aef90700e0808800f180880080808000e9
:1024e4009180800002002000a3372400d2fa070064
:1024f400d0938800e1938800a0808000b1808000a0
:1025040002002000a3372400cbfa0700f0938800d0
:1025140001948800d4938000e5938000f0938000b8
:10252400019480000001be000400be00d3f807003f
:10253400020020000300240094f90700109488008e
:1025440021948800c0808000d18080000200200097
:10255400a3372400b8fa0700309488004194880017
:102564007094800081948000509488006194880065
:10257400b0948000c194800090948800a194880055
:10258400f094800001958000d0948800e194880044
:1025940058948000699480001094800021948000f5
:1025a40002002000a337240078f907000005be00cc
:1025b400d0948000e194800072f907000001be000d
:1025c4000a00be009cfa07000001be000800be001d
:1025d400aaf8070070948800819488009894800079
:1025e400a9948000109480002194800002002000af
:1025f400a337240065f907000005be00d0948000cd
:10260400e194800029fb07000001be000a00be001f
:1026140089fa07000001be000800be0097f8070011
:10262400b0948800c1948800d8948000e994800014
:10263400c0808000d1808000edf807000001be005a
:102644000800be008df80700f0948800019588000a
:10265400f09480000195800018c0b300b2fd200002
:10266400930424008df907000000e00001003c0001
:102674000044eb000804e00007003200f0948000fe
:1026840001958000b2fd2000930c24007af8070025
:10269400f094880001958800f094800001958000f2
:1026a40018c0b300b2fd200093042c0079f9070090
:1026b4000000e000010035000044eb000804e000e5
:1026c40007003200f094800001958000b2fd2000e4
:1026d400930c240069f80700f094880001958800a1
:1026e4004f05be004f04be000080fa000000060043
:1026f4000000fa006022b8006011b8006000b80061
:10270400020007000080fa00000006000c00fa0036
:10271400008fbe00220798003307980044079800f2
:10272400550798001e0178009e019000729488005d
:10273400839488002e019000be019000b29488001a
:10274400c39488004e019000de019000f29488004a
:10275400039588000080fa00000006000000fa00db
:1027640013e1a90011e1a9001061a8001021a9003a
:1027740081088000f0fc2f00008060000040a00071
:10278400800888000a21ef000621ef00800920005c
:1027940070088800006829006008880021428000d1
:1027a40080ff2f00008060000000a000204288000d
:1027b4000108a9002108a80011e1a8000080fa007e
:1027c400000006000400fa00881f7800008fbe0095
:1027d40005e1a90021088000f0fc2f0000806000c2
:1027e400200888001e0178009e01900000682900de
:1027f40081c12400e5f8070018c0b30002f02f00df
:10280400f377240025f907000000e00001003c00f4
:102814000044eb000804e00054003200210880006a
:10282400f0fc2f00008060000040a0002008880019
:102834001e0178009e0190000068290081c12400d7
:10284400d2f807000200200003102400cff807008c
:1028540018c0b30002f02f00f37724000ff907002b
:102864000000e00001003c000044eb000804e0002c
:102874003200320021088000f0fc2f00008060004c
:102884000050a000200888001e0178009e019000de
:102894000068290081c12400bcf807000200200060
:1028a40003282400b9f8070018c0b30002f02f0071
:1028b400f3772400f9f807000000e00001003c0071
:1028c4000044eb000804e0001000320021088000fe
:1028d4000003200001007000200888001e01780019
:1028e4009e0190000068290081c12400a7f8070018
:1028f4000200200003382400a4f80700e9f80700c8
:102904000000780010088800200037001e017800bd
:102914009e0190000068290081c124009bf80700f3
:10292400020020000328240098f80700ddf80700bf
:102934000000780010088800140037001e01780099
:102944009e0190000068290081c124008ff80700cf
:1029540002002000031024008cf80700d1f80700bf
:102964000000780010088800080037001e01780075
:102974009e0190000068290081c1240083f80700ab
:10298400c8f8070000007800100888000421a90096
:102994000068a9002068a80005e1a8004f04780099
:1029a4000080fa00000006000400fa00881f780086
:1029b400008fbe001fe1a900f1088000f0fc2f0089
:1029c40000806000f00888001e0178009e019000dd
:1029d4000068290081c124006cf8070018c0b30006
:1029e40002f02f00f3772400acf807000000e000a9
:1029f40001003c000044eb000804e00054003200f5
:102a0400f1088000f0fc2f00008060000040a0006e
:102a1400f00888001e0178009e01900000682900db
:102a240081c1240059f8070002002000031024008b
:102a340056f8070018c0b30002f02f00f377240003
:102a440096f807000000e00001003c000044eb00a1
:102a54000804e00032003200f1088000f0fc2f008e
:102a6400008060000050a000f00888001e0178007b
:102a74009e0190000068290081c1240043f80700ea
:102a8400020020000328240040f8070018c0b30007
:102a940002f02f00f377240080f807000000e00024
:102aa40001003c000044eb000804e0001000320088
:102ab400f10880000003200001007000f008880085
:102ac4001e0178009e0190000068290081c1240045
:102ad4002ef8070002002000033824002bf807001a
:102ae40070f8070000007800d00888002000370044
:102af4001e0178009e0190000068290081c1240015
:102b040022f8070002002000032824001ff8070011
:102b140064f8070000007800d0088800140037002b
:102b24001e0178009e0190000068290081c12400e4
:102b340016f80700020020000310240013f8070011
:102b440058f8070000007800d00888000800370013
:102b54001e0178009e0190000068290081c12400b4
:102b64000af807004ff8070000007800d008880032
:102b74001e21a9000368a9002368a8001fe1a8007a
:102b84004f0478000080fa00000006000000fa00fc
:102b94001160800080ff2f000080600010608800ba
:102ba40000fa20002060880023aca800238ca80031
:102bb40011618000f03f2f000080600000a0a000a1
:102bc400106188003000200020618800c3aca80098
:102bd400c38ca80011668000f03f2f0000806000c5
:102be40000a0a00010668800300020002066880045
:102bf40001eca8000080fa00000006000600fa00bc
:102c0400008fbe00220798002e0090000000e00014
:102c140006003a001e0078009e00900001f0a20019
:102c2400d0928800e1928800040037001e017800e9
:102c34009e01900072928800839288000080fa00be
:102c4400000006000000fa00889fbe00f492800095
:102c540005938000d0928000e192800018c0b300f8
:102c64000001be000400be000af807000000e000f6
:102c7400010035000044eb000804e0000d003200c0
:102c8400d8928000e9928000f4928000059380003d
:102c9400e0818000f18180000001be000400be00dc
:102ca400f6f607000801be00b3fc0700f0928800a6
:102cb40001938800f492800005938000d0928000f4
:102cc400e192800018c0b3000001be000400be0001
:102cd400f2f707000000e00001003c000044eb00b4
:102ce4000804e0000d003200d8928000e9928000d0
:102cf400f492800005938000e0818000f1818000df
:102d04000001be000400be00dbf607000801be009f
:102d140081fc0700f092880001938800f092800003
:102d24000193800018c0b3006011b800dbf70700fe
:102d34000000e00001003d000044eb000804e00056
:102d440004003200c3cca90024eea800c3eca80000
:102d540003003700c3eca90024cea800c3cca8000c
:102d6400f09280000193800055fc070002002000cf
:102d740003222400b0f80700ebf7070000007800f6
:102d840030668800d4928000e5928000f092800042
:102d9400019380000001be000400be00b6f60700e7
:102da400109388002193880094928000a59280005b
:102db400709280008192800018c0b3000001be00b0
:102dc4000400be00b3f707000000e0000100350076
:102dd4000044eb000804e0000d003200789280000b
:102de4008992800094928000a5928000e081800006
:102df400f18180000001be000400be009ff60700c0
:102e04000801be005cfc070090928800a192880033
:102e140094928000a592800070928000819280003c
:102e240018c0b3000001be000400be009bf70700f9
:102e34000000e00001003c000044eb000804e00056
:102e44000d00320078928000899280009492800074
:102e5400a5928000e0818000f18180000001be0025
:102e64000400be0084f607000801be002afc070027
:102e740090928800a192880090928000a192800094
:102e840018c0b3006011b80084f707000000e00028
:102e940001003d000044eb000804e000040032009f
:102ea40023cca90015eea80023eca80003003700ea
:102eb40023eca90015cea80023cca8009092800092
:102ec400a1928000fefb07000200200003222400e0
:102ed40059f8070094f70700000078003061880073
:102ee400749280008592800090928000a19280006c
:102ef4000001be000400be005ff60700b092880027
:102f0400c19288004f04be000080fa000000060051
:102f14000600fa0010079800210798001e00900090
:102f2400804078002e00900000407800014f780027
:102f3400104798000e0178002100200000c2b30061
:102f4400e00207000080fa00000006000600fa0014
:102f5400881f78000040eb00004f78001e84fb00bf
:102f6400b0938000c19380006ff707008040780021
:102f74000800e800017778001e4fe8001e84fb007b
:102f8400509380006193800067f7070080407800c9
:102f94000800e800017778001e4fe8001e84fb005b
:102fa40070938000819380005ff707008040780071
:102fb4000800e800017778001e4fe8001e84fb003b
:102fc400309380004193800057f7070080407800d9
:102fd4000800e800017778001e4fe8001e84fb001b
:102fe40090938000a19380004ff707008040780001
:102ff4000800e800017778001e4fe8000e00e800a2
:10300400000178005100200000c3b300ad020700a6
:103014004f0478000080fa00000006000800fa005f
:10302400d0928000e19280000001be008000eb009d
:103034000e00780046fc07007092800081928000a8
:103044000001be00410020000e00780040fc070093
:103054000e0178008100200000c4b300990207002b
:103064000080fa00000006000800fa00f0928000d8
:10307400019380000001be008000eb000e00780088
:1030840033fc070090928000a19280000001be00f2
:10309400410020000e0078002dfc07000e0178008e
:1030a4008100200010c4b300860207000080fa00eb
:1030b400000006000800fa001093800021938000ad
:1030c4000001be008000eb000e00780020fc070029
:1030d400b0928000c19280000001be0081002000f7
:1030e4000e0078001afc07000e0178008100200011
:1030f40020c4b300730207000080fa000000060039
:103104000800fa0060479800808180009181800067
:103114004808de00004278008081800091818000b0
:103124004008de0080417800808180009181800029
:103134004809dd004800de0000007100c808de0018
:1031440000417800808180009181800000407800f7
:10315400ee409000014f78001447980023479800f0
:1031640032479800404798000e0178005100200033
:1031740000c5b300530207000080fa0000000600f7
:103184000400fa00100798001e0090000040780028
:10319400004f78000e0178001100200020c5b30014
:1031a400480207000080fa00000006001800fa0038
:1031b40080818000918180000001be008000eb00ce
:1031c4000e007800fbfb070070948000819480005f
:1031d4000001be00410020000e007800dcfb070067
:1031e400b0948000c19480000001be0081002000e2
:1031f4000e007800d6fb0700f09480000195800053
:103204000001be00c10020000e007800d0fb0700c2
:1032140010948000219480000001be000101200070
:103224000e007800cafb07003094800041948000af
:103234000001be00410120000e007800c4fb07001d
:103244000e0178008101200000c6b3001d020700b2
:103254000080fa00000006000400fa00000f780065
:10326400110798001e0178009e00900000c8b3006a
:10327400140207000080fa00000006001000fa00a3
:10328400889fbe00404f9800514f980072079800e5
:103294004e4890000080fb0031052000810f500053
:1032a4007400320031052000810f50000a003c00f8
:1032b40031042000810f50004b0032001105200022
:1032c400810f50005b00320011022000810f50007a
:1032d40008003200ba00370011062000810f5000a8
:1032e4006d00320021062000810f5000680032007a
:1032f400b30037005e489000e24f5000a5003a004a
:103304007e009000104078000080fb00e20f500027
:1033140014003200e30f500022003200e10f50008d
:103324009e003a007e0090000000e8001040780003
:103334000004a2000080fb000000e9004f00de0052
:10334400004078000080fb00610060004a00dd005e
:103354002171800001a0a10001007000207188008b
:10336400200037007e0090000000e8001040780044
:103374000004a2000080fb000000e9004f00de0012
:10338400004078000080fb00610060004700dd0021
:10339400217380000170a100010070002073880077
:1033a400100037007e0090000000e8001040780014
:1033b4000004a2000080fb000000e9004f00de00d2
:1033c400004078000080fb00610060004600dd00e2
:1033d400217380000160a100010070002073880047
:1033e40000000000760037005e489000e24f500075
:1033f4006c003a007e009000104078000080fb00d2
:103404008000eb0066f607000001eb00fbfd0700ff
:103414007e0090000000e800104078000080fb006f
:103424008000eb005ef6070012002000f3fd0700a9
:10343400630037005e489000e14f50005b003a00a3
:1034440013f807000000e00004003a007e0090003a
:1034540010407800f6f707005900370000a1280053
:10346400000178009100200000c8b3009501070016
:10347400530037005e489000e14f50004d003a0081
:103484007e00900010407800f0f707004c003700f1
:1034940097fc07004a0037005e489000e64f500052
:1034a40046003a006000b800008fbe006000b8001b
:1034b40020079800310798006000b8004007980082
:1034c400510798008000eb007e00900006fb070087
:1034d4000200200003122400d7f607000004be00f7
:1034e400110020007e009000fffa07000001be00da
:1034f4000800be00e1f40700008fbe002100200098
:103504007e009000f8fa0700020020000312240055
:10351400c9f607000004be00310020007e009000c0
:10352400f1fa07000001be000800be00d3f4070052
:103534002007980031079800410020007e00900089
:10354400e9fa07000200200003122400baf607007b
:103554000004be00510020007e009000e2fa070043
:103564000001be000800be00c4f407004007980034
:10357400510798004e029000de0290002e01900048
:10358400be0190001e0078009e0090005ffc0700c2
:103594000b003700000000000900370000000000a5
:1035a400070037000000000005003700000000009d
:1035b4000300370000000000010037000000000095
:1035c4005e4890000080fb007e019000800078003f
:1035d40000c1b3003b0107004f04be000080fa00a5
:1035e400000006000000fa0021e3a9002143a8001e
:1035f40001198000f0cf2f000080600000198800be
:103604002043a90001198000000e20000100700071
:103614000019880011198000f0ff2100008060006b
:10362400101988002343a80011198000f0cf2f003f
:1036340000806000101988001119800030f82f00f4
:10364400008060000040a000101988002203a90037
:103654002223a90025e3a900f0c0b30024e3b700a6
:1036640021198000f00f2e008080600000f02000ff
:1036740001007000201988003303a9004feea80050
:103684002e0ea8002f6ea8006f2ea8001e2ea800d4
:103694003063a80030c3a8003163a8002e03a8003b
:1036a40031e3a8004119800000fc2f000080600075
:1036b4004019880028e3a90001a8a90021a8a800ae
:1036c40021e3a8000080fa00000006000000fa00d0
:1036d4002023a8000080fa00000006000000fa0081
:1036e400202a21000080fa00000006000000fa00f1
:1036f40049d0bf000080fa00000006000000fa0074
:103704004970ef000080fa00000006000600fa008d
:10371400f6ff0700e14f500083003a00f7ff07006f
:10372400eeff0700000f78001e00780010007800fc
:103734008000eb009af507003233230033052400a0
:103744003df6070002002000035824000ff507008f
:10375400d2cc2c00c304240037f6070010079800cd
:10376400210798001e019000ae0190000000200087
:103774008120240005f5070002002000030a24002c
:103784003df4070090938800a19388001e80e80010
:10379400100078008000eb0081f50700323323002d
:1037a4003305240024f607000200200003582400f7
:1037b400f6f40700d2cc2c00c30424001ef6070044
:1037c40010079800210798001e019000ae01900098
:1037d4000000200081202400ecf4070002002000f7
:1037e400030a240024f407003093880041938800de
:1037f4009e00780064804000100078008000eb0098
:1038040067f5070032332300330524000af6070066
:103814000200200003582400dcf40700d2cc2c0062
:10382400c304240004f60700100798002107980039
:103834001e019000ae0190000000200081202400b1
:10384400d2f4070002002000030a24000af407004f
:1038540070938800819388009e00780068804000ff
:10386400100078008000eb004df507003233230090
:1038740033052400f0f5070002002000035824005b
:10388400c2f40700d2cc2c00c3042400eaf50700dc
:1038940010079800210798001e019000ae019000c7
:1038a4000000200081202400b8f40700020020005a
:1038b400030a2400f0f30700509388006193880002
:1038c4009e00780066804000100078008000eb00c5
:1038d40033f507003233230033052400d6f50700ff
:1038e4000200200003582400a8f40700d2cc2c00c6
:1038f400c3042400d0f5070010079800210798009e
:103904001e019000ae0190000000200081202400e0
:103914009ef4070002002000030a2400d6f30700e7
:10392400b0938800c19388000080fa00000006006c
:103934000e00fa00889fbe00004f980051079800bf
:10394400620798000f0478000f0078008004780064
:103954005e00900066004000800078008100e9006d
:10396400210798000000e8000000e8000000d100f2
:10397400800040000f007800818747000000e800c5
:103984000000d10000004000300798003e00900085
:10399400ee0190005e0190008e4890001800070030
:1039a4003e009000104f780010002000100798008f
:1039b40008003700be0090001e0090000080400008
:1039c400104078001e4f68001e0090000000e800c0
:1039d400100798005e009000e50040001e00900073
:1039e400808f5000f3ff3e001e4078008907780066
:1039f400880778004f04be000080fa00000006002b
:103a04000a00fa001007980041479800320798000e
:103a1400430798001e009000e1cfb30001487800ee
:103a24001e0090000000e800ce4090008180fb0062
:103a3400c888de0081407800014878001e009000ac
:103a44000080e800ce409000014878001e009000fd
:103a540063004000be009000c808de00814078008a
:103a6400014878001e00900064004000be009000f1
:103a740081407800014878000000eb00000f7800d6
:103a84000a0037009e007800658040009e00900088
:103a9400008040009e0078004e01900081004100ab
:103aa40091407800014878001e0fe8009e007800dd
:103ab4003e009000808f5000f2ff39000080fa0031
:103ac400000006000c00fa00889fbe0060479800c2
:103ad40041079800520798000f0478000f007800ff
:103ae400800478004e00900066004000800078005a
:103af4008100e900010f78000000e8000000e80000
:103b04000000d100800040000f007800818747004a
:103b14000000e8000000d1000000400010079800f9
:103b24001e009000de0190004e019000ee409000d7
:103b3400b3ff07005e019000ce0090006e4090003d
:103b44007bff0700404798004e009000650040004e
:103b54009e00900000804000ce4090000148780014
:103b64004e00900066004000800078001e00900027
:103b74007000070089077800880778004f04be00aa
:103b84000080fa00000006000400fa0020479800b4
:103b940030818000e30f500023003200e30f500017
:103ba40005003e00e10f500013003200e10f500009
:103bb40015003e0007003700e50f500035003200c5
:103bc400e50f50001f003900e60f5000400032009e
:103bd400500037002e409000e24f400050003a0061
:103be4002070ef002230ef002430ef00100020009e
:103bf400308188004d0037002070ef002000200045
:103c0400308188004900370001022100914078008a
:103c14002e40900000c0400020f0b700300020008b
:103c240030818800410037002e4090000080fb0066
:103c34004800dd00108188004000200030818800a9
:103c44003a0037002e4090008080fb0010818000f5
:103c5400008040001081880011818000f00f200056
:103c6400808f500009003e00108180000000e000b9
:103c74000300320050002000308188002b00370000
:103c84006000200030818800280037002630ef00d3
:103c94002600370020818000c104210000804000fc
:103ca400ae40900001487800208180000000e800c8
:103cb400208188002181800010818000808f500045
:103cc4001900390060002000308188001700370097
:103cd400ae409000014f78001181800020d0bf00d9
:103ce400c204210012ff0700104798001e409000f4
:103cf4009e4f500005003a001081800080407800fb
:103d040020d0bf00c20421005cfd07002630ef0074
:103d1400060037002630ef000000000003003700e3
:103d24000000000001003700000000000080fa00dd
:103d3400000006000600fa0010079800210798000a
:103d44000040eb00004f78005c000700ae009000dc
:103d5400810f5000110034000040eb00004f780048
:103d6400060037001e80fb009e009000008040008b
:103d7400104078000b0007001e4fe8009e80fb00f7
:103d84002e009000808f5000f6ff350038000700a9
:103d94000004e00001003a002c0007000080fa0053
:103da400000006000200fa00004f780043000700fc
:103db4000000e0000d003200b0818000c11c210031
:103dc400008040001e487800b1818000e007200098
:103dd400808f5000020034003630ef0003003700bb
:103de400b08180000000e800b08188000080fa0003
:103df400000006000200fa000040eb00004f7800cb
:103e04002e0007000000e0000d003400c081800097
:103e1400c11c210000804000104f7800c181800047
:103e2400e0072000808f5000020034003830ef009b
:103e340003003700c08180000000e800c0818800d2
:103e44001e4078000080fa00000006000200fa001c
:103e540010c0b3003af0b700e6ff0700004f780047
:103e64001e80fb00201188000080fa00000006007c
:103e74000000fa003ad0bf000080fa0000000600fb
:103e84000000fa00b1818000c0818000808f500062
:103e940004003500b1818000c081800000805000a2
:103ea40004003700b1818000c08180000080500090
:103eb400f007b0000080fa00000006000000fa00dd
:103ec400efff070001082000008050000080fa0086
:103ed400000006000200fa00004f780026000700e8
:103ee4000000e0000d00340000828000c1142100b5
:103ef400008040001e48780001828000e007200016
:103f0400808f5000020034004030ef00030037007f
:103f1400008280000000e800008288000080fa002f
:103f2400000006000200fa0010828000c114210083
:103f340000804000104f78001182800000828000d1
:103f4400808f50000900320011828000f0072000a9
:103f5400808f500002003a004230ef000300370027
:103f6400108280000000e800108288001e40780063
:103f74000080fa00000006000000fa0001828000c0
:103f840010828000808f5000050034001182800070
:103f94000082800000805000f007b0000400370069
:103fa400018280001082800000805000f007b00081
:103fb4000080fa00000006000000fa00eeff07008f
:103fc40001082000008050000080fa000000060074
:103fd4000000fa002002a9000111800090ff2f00c8
:103fe400008060000011880020a2a9002062a800bf
:103ff400500520004011880023a2a90023e2a90053
:104004000188a9002188a80011118000f0f32f0075
:1040140000806000101188000168a9002168a800d0
:1040240021e2a8002342a8000080fa000000060054
:104034000600fa0010079800210798000040eb00e2
:10404400004f78000040eb00004f78000e0037006e
:10405400000000001111800000202000008060009a
:104064000000e000fbff3a001e00900010407800c2
:104074000080fb00201188001e0090000000e80072
:10408400100798001e4fe8009e80fb002e00900051
:10409400808f5000eeff35000080fa00000006001b
:1040a4000000fa000e2eef001e2eef002e2eef0061
:1040b4003e2eef004e2eef005e2eef006e2eef0030
:1040c400214ea90060cea90060eea90011cea9007e
:1040d40011eea90020cea90020eea900213680000f
:1040e40000f82f00008060008001b30020368800b3
:1040f4001134800000fc2f00008060000000a0004c
:10410400103488000136800000f82f0080806000a1
:10411400100620000100700000368800013680007f
:10412400f00f28008080600000002600010070006d
:1041340000368800e135800000f82f0080806000a0
:104144006004200001007000e0358800e135800043
:10415400f00f2800808060000050240001007000ef
:0c416400e03588000080fa000000060032
:020000040000fa
:104170003010000006000000800000004c1200001b
:1041800056000000800000003c1000000400000009
:10419000820000000000700041000000a212000038
:1041a0000a0000008000000048100000020000002b
:1041b00080000000001000002000000080000000cf
:1041c0004c100000000100008000000020100000e2
:1041d00008000000800000004c110000800000007a
:1041e000800000004010000004000000800000007b
:1041f000cc1100008000000080000000361000009c
:1042000006000000800000004410000004000000d0
:1042100082000000010001000000000028100000e2
:1042200008000000800000004a10000002000000aa
:08423000800000000000000006
:020000040000fa
:104238000200fa00881f78002b00070097ff07008c
:1042480064cea90064eea900254ea9000000200054
:10425800613924005af9070000002000812c24004d
:10426800d0f9070048fa0700ddfc070057ff0700f0
:104278002bf8070033f807000040eb00004f7800e8
:104288001400370026ff0700104798001e409000d2
:104298003cfe0700217380000008200000806000b9
:1042a80000f0a7000000ea000000e9004f00de006f
:1042b800004078000080fb00610060004700dd00de
:1042c800217380000170a100010070002073880034
:1042d8001e4fe8001e84fb0036ff0700800f5400c5
:1042e800e8ff3500e4ff37000000fa00f003200083
:1042f800303a8800213a8000f0f32f0000806000f7
:10430800203a8800213a800000fe2f0000806000db
:104318000000a000203a880012002000800720003a
:10432800a109200033742000804978008149780071
:1043380082497800103a8000000178000200a0004d
:104348006004200071052000237420008049780053
:10435800814978008249780000000000113a800005
:10436800000027008080600000002100808f50003e
:10437800faff3a0000000000113a80000002200015
:10438800008060000000e000fbff32000080fa00bf
:04439800000006001b
:020000040000fa
:02000004000af0
:04afe000cfff00009f
:020000040000fa
:02000004000af0
:04afe400ffff00006b
:020000040000fa
:02000004000af0
:04afe8007fff0000e7
:020000040000fa
:02000004000af0
:04afec005fff000003
:020000040000fa
:02000004000af0
:04aff00038ff000026
:020000040000fa
:02000004000af0
:04aff400ffffff005c
:00000001FF
