:020000040000fa
:080000000002040000000000f2
:020000040000fa
:040008007003000081
:020000040000fa
:04000c00700300007d
:020000040000fa
:040010007003000079
:020000040000fa
:040014007003000075
:020000040000fa
:040018007003000071
:020000040000fa
:04001c00700300006d
:020000040000fa
:040020007003000069
:020000040000fa
:040024007003000065
:020000040000fa
:040028007003000061
:020000040000fa
:04002c00700300005d
:020000040000fa
:040030007003000059
:020000040000fa
:0400340002030000c3
:020000040000fa
:040038007003000051
:020000040000fa
:04003c00700300004d
:020000040000fa
:040040007003000049
:020000040000fa
:040044007003000045
:020000040000fa
:04004800fa020000b8
:020000040000fa
:04004c00700300003d
:020000040000fa
:040050007003000039
:020000040000fa
:040054007003000035
:020000040000fa
:040058007003000031
:020000040000fa
:04005c004c03000051
:020000040000fa
:040060007003000029
:020000040000fa
:040064007003000025
:020000040000fa
:040068007003000021
:020000040000fa
:04006c00700300001d
:020000040000fa
:040070007003000019
:020000040000fa
:040074007003000015
:020000040000fa
:040078007003000011
:020000040000fa
:04007c00700300000d
:020000040000fa
:040080007003000009
:020000040000fa
:040084007003000005
:020000040000fa
:040088007003000001
:020000040000fa
:04008c0070030000fd
:020000040000fa
:0400900070030000f9
:020000040000fa
:040094002203000043
:020000040000fa
:0400980070030000f1
:020000040000fa
:04009c0070030000ed
:020000040000fa
:0400a00070030000e9
:020000040000fa
:0400a40070030000e5
:020000040000fa
:0400a80070030000e1
:020000040000fa
:0400ac0070030000dd
:020000040000fa
:0400b00070030000d9
:020000040000fa
:0400b40070030000d5
:020000040000fa
:0400b80070030000d1
:020000040000fa
:0400bc0070030000cd
:020000040000fa
:0400c00070030000c9
:020000040000fa
:0400c40070030000c5
:020000040000fa
:0400c80070030000c1
:020000040000fa
:0400cc0070030000bd
:020000040000fa
:0400d00070030000b9
:020000040000fa
:0400d40070030000b5
:020000040000fa
:0400d80070030000b1
:020000040000fa
:0400dc0070030000ad
:020000040000fa
:0400e00070030000a9
:020000040000fa
:0400e40070030000a5
:020000040000fa
:0400e80070030000a1
:020000040000fa
:0400ec00700300009d
:020000040000fa
:0400f0007003000099
:020000040000fa
:0400f4007003000095
:020000040000fa
:0400f8007003000091
:020000040000fa
:0400fc00700300008d
:020000040000fa
:040100007003000088
:020000040000fa
:040104007003000084
:020000040000fa
:040108007003000080
:020000040000fa
:04010c00700300007c
:020000040000fa
:040110007003000078
:020000040000fa
:040114007003000074
:020000040000fa
:040118007003000070
:020000040000fa
:04011c00700300006c
:020000040000fa
:040120007003000068
:020000040000fa
:040124007003000064
:020000040000fa
:040128007003000060
:020000040000fa
:04012c00700300005c
:020000040000fa
:040130007003000058
:020000040000fa
:040134007003000054
:020000040000fa
:040138007003000050
:020000040000fa
:04013c00700300004c
:020000040000fa
:040140007003000048
:020000040000fa
:040144007003000044
:020000040000fa
:040148007003000040
:020000040000fa
:04014c00700300003c
:020000040000fa
:040150007003000038
:020000040000fa
:040154007003000034
:020000040000fa
:040158007003000030
:020000040000fa
:04015c00700300002c
:020000040000fa
:040160007003000028
:020000040000fa
:040164007003000024
:020000040000fa
:040168007003000020
:020000040000fa
:04016c00700300001c
:020000040000fa
:040170007003000018
:020000040000fa
:040174007003000014
:020000040000fa
:040178007003000010
:020000040000fa
:04017c00700300000c
:020000040000fa
:040180007003000008
:020000040000fa
:040184007003000004
:020000040000fa
:040188007003000000
:020000040000fa
:04018c0070030000fc
:020000040000fa
:0401900070030000f8
:020000040000fa
:0401940070030000f4
:020000040000fa
:0401980070030000f0
:020000040000fa
:04019c0070030000ec
:020000040000fa
:0401a00070030000e8
:020000040000fa
:0401a40070030000e4
:020000040000fa
:0401a80070030000e0
:020000040000fa
:0401ac0070030000dc
:020000040000fa
:0401b00070030000d8
:020000040000fa
:0401b40070030000d4
:020000040000fa
:0401b80070030000d0
:020000040000fa
:0401bc0070030000cc
:020000040000fa
:0401c00070030000c8
:020000040000fa
:0401c40070030000c4
:020000040000fa
:0401c80070030000c0
:020000040000fa
:0401cc0070030000bc
:020000040000fa
:0401d00070030000b8
:020000040000fa
:0401d40070030000b4
:020000040000fa
:0401d80070030000b0
:020000040000fa
:0401dc0070030000ac
:020000040000fa
:0401e00070030000a8
:020000040000fa
:0401e40070030000a4
:020000040000fa
:0401e80070030000a0
:020000040000fa
:0401ec00700300009c
:020000040000fa
:0401f0007003000098
:020000040000fa
:0401f4007003000094
:020000040000fa
:0401f8007003000090
:020000040000fa
:0401fc00700300008c
:020000040000fa
:040200007003000087
:020000040000fa
:040204007003000083
:020000040000fa
:04020800700300007f
:020000040000fa
:04020c00700300007b
:020000040000fa
:040210007003000077
:020000040000fa
:040214007003000073
:020000040000fa
:04021800700300006f
:020000040000fa
:04021c00700300006b
:020000040000fa
:040220007003000067
:020000040000fa
:040224007003000063
:020000040000fa
:04022800700300005f
:020000040000fa
:04022c00700300005b
:020000040000fa
:040230007003000057
:020000040000fa
:040234007003000053
:020000040000fa
:04023800700300004f
:020000040000fa
:04023c00700300004b
:020000040000fa
:040240007003000047
:020000040000fa
:040244007003000043
:020000040000fa
:04024800700300003f
:020000040000fa
:04024c00700300003b
:020000040000fa
:040250007003000037
:020000040000fa
:040254007003000033
:020000040000fa
:04025800700300002f
:020000040000fa
:04025c00700300002b
:020000040000fa
:040260007003000027
:020000040000fa
:040264007003000023
:020000040000fa
:04026800700300001f
:020000040000fa
:04026c00700300001b
:020000040000fa
:040270007003000017
:020000040000fa
:040274007003000013
:020000040000fa
:04027800700300000f
:020000040000fa
:04027c00700300000b
:020000040000fa
:040280007003000007
:020000040000fa
:100400006f0421000eff2c000e0188000000000088
:10041000000020000000e000020032000001200087
:100420002002880014000700af0007000000e00071
:1004300003003a00005121000100200002003700b3
:100440000000200001002000810f70000100320038
:100450000f000700000020000000e0000200320052
:100460000000020000000000dc06020000000000a6
:100470000040da000000fe00200020000000e00044
:1004800002003200100020009001880000000600e9
:10049000a1028800800478000000eb001f003700f4
:1004a000e284440054a0b4009905ba00e2844400f8
:1004b00054a0b4009906ba00e284440054a0b400e9
:1004c0000006eb00476fde00fd07b200ae018800ba
:1004d000636ce10003003a000ad801000000eb0061
:1004e0000e003700606ce10008003a00004deb00a0
:1004f0000a05e800020039003420ec000af0a000f0
:100500008b05e900f9ff3e00040037006168e10057
:10051000010032000086eb000b00070019c7ba008b
:100520000e04e0001905ba0003003a000a00e000da
:10053000dbff3a0000000600fe07b200ae028800b2
:100540008a047800f5ff37000cd0a300e20f4d00bd
:100550001c00390089027800354dba000a05e80010
:10056000020039003420ec000af0a0008b05e900fd
:100570000f003200254dba000a05e80002003900dc
:100580003420ec000af0a0008b05e90008003200de
:100590000c00e0000600320015cdba000a05e800a4
:1005a000020039003420ec000af0a0008b05e900bd
:1005b0008984e80054a0b4000b00e000e2ff3a0098
:1005c000000006009902ba00055d78008b05e9007d
:1005d000f7ff3200c82ade00055d78008b05e900d0
:1005e000f3ff32000c00e000f1ff320019ddba0029
:1005f000eeff37000000fa000108a9000080fa00b1
:10060000004006003600f800809fbe00829fbe00ba
:10061000849fbe00869fbe000000fa000068a9000b
:10062000c4080700500707000080fa004f03be000f
:100630004f02be004f01be004f00be003600f90061
:10064000004006003600f800809fbe00829fbe007a
:10065000849fbe00869fbe000000fa000368a900c8
:10066000008080001180800061004000e080480030
:1006700000808800118088009a0207000080fa003c
:100680004f03be004f02be004f01be004f00be0030
:100690003600f90000400600801f78000000fa00d4
:1006a00001a8a90000188000e081880010188000cf
:1006b000f0818800201880000082880030188000b7
:1006c00010828800401880002082880010c0b3008b
:1006d0000bf0b7000080fa004f00780000400600e1
:1006e0000040da000000fe000000050003f0a20058
:1006f000889fbe008a9fbe008c1f780018010700eb
:100700001f0133006450e1004f0032006420e1001b
:100710005200320003826c0007003b000905d00044
:100720000306d000820f54000c065d000200390061
:1007300002003200890178000306780085825500a6
:1007400004003d000003fd008103fd008502ea0076
:100750008b854200840f720002003b006000100095
:10076000e08018006011b8000005eb007a28e10075
:100770000a00390006007800c75ddd00f707b20007
:10078000878075002d003700828171000a01780092
:10079000610560008180d1000080d3008502e900fe
:1007a000f9ff3b00060440008784480002003b003c
:1007b00060041400e0841c000988a30007003200d4
:1007c0008a81710082817100610164008904d10015
:1007d0000884d3008b05e800170037000978a300d0
:1007e00013003a000b00e000130034008b05e90011
:1007f0000804440089844c000a4474000978a3006a
:100800000d003a000b00e000070034008b05e90002
:100810000804440089844c0001003a000b002000c9
:100820000978a300f7ff32000001eb000200370057
:10083000828171000a0178008e0007000cf0a70089
:1008400001f0a000d70037006420e10002003a0068
:10085000838f6c00d70033000801be000200be0089
:10086000d0003700889fbe008a9fbe008c1f780092
:10087000bb000700c200330003866c006450e10037
:100880002e0032006420e100330032006150e100ac
:100890002f0032006120e1003100320085855500d3
:1008a000eb07b00009002000080420000500370015
:1008b0000804440089844c000a0031000603430008
:1008c00087834b000001530081815b00f8ff3300f8
:1008d0000203be000800a0000804440089844c0004
:1008e000f6ff3900c639dd008301730001003200d4
:1008f000130020008904d1000884d3000998a300c4
:10090000050032000800a7000300a0008904d10000
:100910000884d3008b05e8008904d1000884d30043
:100920000001eb000281d2005200070001f0a1009b
:100930000cf0a70001f0a0009a0037006420e1004d
:100940009c0032000801be000200be00f7ff370025
:100950006120e100970032006000b800f3ff37002b
:100960000000200001f82700f0ff370014002000ed
:10097000c7003700f4ff2f00c50037000001be009c
:10098000620007000470a70003f0a1006509b10030
:10099000160032000d0035006828e1000600350021
:1009a000f0ff2f00f1ff27000300e00013003b00e1
:1009b0000100280000000500000040008180480080
:1009c0008502e900fcff3a0008003700f88f42007a
:1009d00002003c008000eb00000005008100d10017
:1009e0000080d3008502e800fcff3a000300e0002d
:1009f00002003b0060001000e080180000000600cc
:100a00000001be00410007000470a70003f0a10030
:100a100003f8a30013003a006509b100100032008a
:100a2000090035006928e1000200350001002800b6
:100a30000000050000004000818048008502e900b8
:100a4000fcff3a0000000600f88f42000500350068
:100a50008100d1000080d3008502e800fcff3a004d
:100a6000000006008000eb00000005006011b800e7
:100a7000a200370081002000618055000b003d007e
:100a80000b00200061fe2f000100e1001d0034007a
:100a900082817100610164008904d1000884d3005f
:100aa0000000e800faff3a007100200061006400d5
:100ab000030070000200600009003200610444007d
:100ac000e0844c000988a500050032008b05e80091
:100ad0006808e10002003a008904d1000884d300cc
:100ae000f20f20000258e10005003d00c75ddd0067
:100af000f907b20089807500080078000000060040
:100b00000bf827008b00780000000500c70ade0004
:100b1000f107b200f50fb20008003200e1cf420049
:100b2000020032000170a00024000500810f700057
:100b3000010032000408050044000500810f700028
:100b400002003a00140005008502e90000004000a0
:100b500081c04800fcff3b000170a000240005009c
:100b60000004be00e9ff07000003be000405be004c
:100b70000200be00e5ff0700844f7500000006007c
:100b80000200be006450e100050036006420e10070
:100b9000020036000968a30001003a000800be0008
:100ba0000160a0004f0678004f05be004f04be0054
:100bb00000000600f0ff2f00f1ff2700f9ff3700cb
:100bc000889fbe008a9fbe008c1f7800e4ff07004c
:100bd000ebff330003866c006450e1002400320018
:100be0006420e100270032006150e1002200320061
:100bf0006120e100210032008b854200eb07b1004b
:100c00000134b800003ab8000804420089844a0060
:100c1000013ab8000030b8008880400009014a005d
:100c200004003300000040008180480002014900b8
:100c30008b05e900c909dd00830170000100320065
:100c400013002000c814de004814dd004709de0050
:100c50001200b200c808de000884700085ff07009b
:100c600001f0a1000cf0a70001f0a000cdff3700bb
:100c70006120e100cfff32000801be000200be008b
:100c8000f7ff37006150e100fcff3a00c9ff370071
:100c9000889fbe008a9fbe00841f7800b0ff0700b7
:100ca0004f00780011003300f0ff2f00838f6c009d
:100cb00006003b00040565000a00a7000800370095
:100cc00009f0a6001000200008003700820f540031
:100cd000838f5c00030039001000200001003e00fb
:100ce0000000200009f0a7000000ea004f05be0048
:100cf0004f04be000000e00000000600889fbe0018
:100d00008a9fbe000082700004027100048271009c
:100d1000260032000004be000200be006011b800d0
:100d20006b092000950220000182cf000a003900e3
:100d30000541b1000082cf00070039000541b10034
:100d40000982cf00040039000541b1000882cf00bc
:100d5000010039000541b100054252001200320085
:100d60000a003b0082817100610164008100d100b2
:100d70000080d3008984d3000884d3008b05e80069
:100d80000442e800f7ff3a00070037000804440077
:100d900089844c0000004800818048008b05e900f0
:100da0000442e900f9ff3a0032ff07004f05be0098
:080db0004f04be000000060024
:020000040000fa
:100db8001a00fa00889fbe00ec0607002b07070000
:100dc80064cea90064eea900254ea9002a040700f4
:100dd80000002000613924004104070000002000c1
:100de800a1472400b70407002f0507009506070050
:100df8000300370000000000010037000000000079
:100e0800d2060700e14f5000faff3a00d306070068
:100e1800ca060700000f78001e007800100078004e
:100e28008000eb000fff0700323323003305240056
:100e380061ff0700020020000358240087fe070016
:100e4800d2cc2c00c30424005bff070010079800d5
:100e5800210798001e019000ae01900000002000bc
:100e6800812024007dfe070002002000030a2400e0
:100e78001cfe070050818800618188001e80e80000
:100e8800100078008000eb00f6fe070032332300e4
:100e98003305240048ff07000200200003582400ff
:100ea8006efe0700d2cc2c00c304240042ff0700ca
:100eb80010079800210798001e019000ae019000cd
:100ec800000020008120240064fe070002002000aa
:100ed800030a240003fe0700f080880001818800cf
:100ee8009e00780064804000100078008000eb00cd
:100ef800dcfe070032332300330524002eff0700f1
:100f0800020020000358240054fe0700d2cc2c0015
:100f1800c304240028ff0700100798002107980041
:100f28001e019000ae0190000000200081202400e6
:100f38004afe070002002000030a2400e9fd07001a
:100f480030818800418188009e00780068804000d8
:100f5800100078008000eb00c2fe07003233230047
:100f68003305240014ff0700020020000358240062
:100f78003afe0700d2cc2c00c30424000eff070061
:100f880010079800210798001e019000ae019000fc
:100f9800000020008120240030fe0700020020000d
:100fa800030a2400cffd07001081880021818800f2
:100fb8009e00780066804000100078008000eb00fa
:100fc800a8fe07003233230033052400fafe070089
:100fd800020020000358240020fe0700d2cc2c0079
:100fe800c3042400f4fe07001007980021079800a6
:100ff8001e019000ae019000000020008120240016
:1010080016fe070002002000030a2400b5fd0700b1
:101018007081880081818800588180006981800002
:10102800f68080000781800034818000458180003f
:10103800128180002381800070818000818180007e
:1010480038079800490798005607980067079800de
:1010580074079800050f9800120f9800230f980046
:10106800300f9800410f980066004700a30507005d
:1010780090818800a181880090818000a1818000f2
:1010880002002000832c2400f4fd0700b0818800b2
:10109800c1818800b0818000c18180000001be004c
:1010a80091fd070018c0b3000200200003002400cf
:1010b8002efe07000000e00001003c000044eb00a9
:1010c8000804e0004dff32000000200001112c0050
:1010d800b0818800c181880049ff37000800fa0004
:1010e800881f78006000b800008fbe006000b8005c
:1010f800200798003107980008d0bf000080fb0047
:10110800cf80de007201200003002000820f500013
:10111800838f5800f6013e000006010017003700d3
:10112800220037002b0037006f00370070003700af
:101138009d0037009e003700cb0037002c01370098
:10114800590137005a01370087013700e801370095
:10115800e7013700e6013700e5013700c400370032
:10116800f1003700f20037001f013700b0013700e7
:10117800dd0137007e013700ab0137000030ef009a
:101188000230ef000000eb00d08188000001eb0086
:101198006000b80060040700120020006000b8007a
:1011a8005d04070010c0b30008f0b700028080009b
:1011b80013808000803e200001002000800f510035
:1011c800818f5900cd01360020c0b30008f0b70068
:1011d800cb013700b2818000c3818000028fbe003e
:1011e800b2818000c38180002207980033079800ed
:1011f80002002000832c24001e0078009e0090002e
:101208006dfe0700020020000300240093fd070084
:10121800008fbe0002002000832c24002e009000c6
:10122800be00900064fe07000200200003002400b6
:101238008afd0700200798003107980018c0b300fe
:1012480002002000031024001e0078009e00900079
:10125800c4fd07000000e000010035000044eb0079
:101268000804e00003003200000020000110240000
:10127800008fbe0018c0b300020020000310240035
:101288002e009000be009000b6fd07000000e000b0
:10129800010035000044eb000804e00004003200bf
:1012a8000000200001102400200798003107980052
:1012b8000001eb001e0078009e0090001604070055
:1012c800120020002e009000be00900012040700bb
:1012d80064cea80064eea900254ea90030c0b30072
:1012e80008f0b7008601370088010700840137003d
:1012f800b0818000c181800022a9200063e823001a
:10130800f9fc0700008fbe00b0818000c181800019
:1013180022a9200063e82300f2fc070020079800b8
:101328003107980002002000832c24001e0078005a
:101338009e00900020fe0700020020000300240009
:1013480046fd0700008fbe0002002000832c240009
:101358002e009000be00900017fe0700020020003b
:10136800030024003dfd070020079800310798007e
:101378000001eb001e0078009e009000e6030700c5
:10138800120020002e009000be009000e20307002b
:1013980050c0b30008f0b70064cea90064eea800fe
:1013a800254ea9005601370058010700540137009f
:1013b800b0818000c181800022a9200063e8230059
:1013c800c8fc0700008fbe00b0818000c18180008a
:1013d80022a9200063e82300c3fc07002007980027
:1013e8003107980002002000832c24001e0078009a
:1013f8009e009000f0fd070002002000030024007a
:1014080016fd0700008fbe0002002000832c240078
:101418002e009000be009000e7fd070002002000ab
:10142800030024000dfd07002007980031079800ed
:101438000001eb001e0078009e009000b603070034
:10144800120020002e009000be009000b20307009a
:1014580070c0b30008f0b70064cea80064eea8001e
:10146800254ea9002601370028010700240137006e
:10147800b0818000c1818000328c2b0023d32300ef
:1014880098fc0700008fbe00b0818000c1818000f9
:10149800328c2b0023d3230093fc070020079800ed
:1014a8003107980002002000832c24001e007800d9
:1014b8009e009000c0fd07000200200003002400e9
:1014c800e6fc0700008fbe0002002000832c2400e9
:1014d8002e009000be009000b7fd0700020020001b
:1014e80003002400ddfc070020079800310798005e
:1014f8000001eb001e0078009e00900086030700a4
:10150800120020002e009000be0090008203070009
:1015180064cea90064eea900254ea80010c1b3004e
:1015280008f0b700f6003700f8000700f4003700ad
:10153800b0818000c1818000328c2b0023d323002e
:1015480069fc0700008fbe00b0818000c181800067
:10155800328c2b0023d3230062fc0700200798005d
:101568003107980002002000832c24001e00780018
:101578009e00900090fd0700020020000300240058
:10158800b6fc0700008fbe0002002000832c240058
:101598002e009000be00900087fd0700020020008a
:1015a80003002400adfc07002007980031079800cd
:1015b8000001eb001e0078009e0090005603070013
:1015c800120020002e009000be0090005203070079
:1015d80030c1b30008f0b70064cea80064eea900db
:1015e800254ea800c6003700c8000700c400370011
:1015f800b0818000c1818000328c2b0023eb230056
:1016080039fc0700008fbe00b0818000c1818000d6
:10161800328c2b0023eb230032fc070020079800b4
:101628003107980002002000832c24001e00780057
:101638009e00900060fd07000200200003002400c7
:1016480086fc0700008fbe0002002000832c2400c7
:101658002e009000be00900057fd070002002000f9
:10166800030024007dfc070020079800310798003c
:101678000001eb001e0078009e0090002603070082
:10168800120020002e009000be00900022030700e8
:1016980090c0b30008f0b70064cea90064eea800bb
:1016a800254ea800960037009800070094003700e0
:1016b800b0818000c1818000328c2b0023eb230095
:1016c80008fc0700008fbe00b0818000c181800047
:1016d800328c2b0023eb230003fc07002007980023
:1016e8003107980002002000832c24001e00780097
:1016f8009e00900030fd0700020020000300240037
:1017080056fc0700008fbe0002002000832c240036
:101718002e009000be00900027fd07000200200068
:10172800030024004dfc07002007980031079800ab
:101738000001eb001e0078009e009000f6020700f2
:10174800120020002e009000be009000f202070058
:10175800b0c0b30008f0b70064cea80064eea800db
:10176800254ea800660037006800070064003700af
:10177800b0818000c1818000c2972d0003e2230060
:10178800d8fb0700008fbe00b0818000c1818000b7
:10179800c2972d0003e22300d3fb0700200798001f
:1017a8003107980002002000832c24001e007800d6
:1017b8009e00900000fd07000200200003002400a6
:1017c80026fc0700008fbe0002002000832c2400a6
:1017d8002e009000be009000f7fc070002002000d9
:1017e800030024001dfc070020079800310798001b
:1017f8000001eb001e0078009e009000c602070062
:10180800120020002e009000be009000c2020700c7
:1018180070c1b30008f0b70064cea80064eea80059
:10182800254ea8003600370038000700340037007e
:10183800b0818000c1818000c2972d0003e223009f
:10184800a9fb0700008fbe00b0818000c181800025
:10185800c2972d0003e22300a2fb0700200798008f
:101868003107980002002000832c24001e00780015
:101878009e009000d0fc0700020020000300240016
:10188800f6fb0700008fbe0002002000832c240016
:101898002e009000be009000c7fc07000200200048
:1018a80003002400edfb070020079800310798008b
:1018b8000001eb001e0078009e00900096020700d1
:1018c800120020002e009000be0090009202070037
:1018d80050c1b30008f0b70064cea90064eea800b8
:1018e800254ea8000600370008000700040037004e
:1018f8000870ef0000000000010037000000000041
:101908004f0478000080fa00000006000200fa0088
:10191800881f78000040eb00004f7800308180007d
:101928004181800018c0b30002002000031a24007f
:101938000cfc07000000e000010035000044eb004b
:101948000804e00016003a00f08080000181800061
:1019580018c0b30002002000031a240001fc07008d
:101968000000e000010035000044eb000804e0003e
:101978000e003200108180002181800018c0b30061
:1019880002002000031a2400f6fb07000000e00014
:10199800010035000044eb000804e00003003200b9
:1019a80030c0b300004f7800f2003700508180004b
:1019b8006181800018c0b3000200200003122400d7
:1019c800e8fb07000000e000010035000044eb00e0
:1019d8000804e000340032007081800081818000ba
:1019e80018c0b3000200200003122400ddfb07002a
:1019f8000000e000010035000044eb000804e000ae
:101a080029003200f08080000181800018c0b300f6
:101a18000200200003172400d2fb07000000e000aa
:101a2800010035000044eb000804e0001e0032000d
:101a3800108180002181800018c0b30002002000be
:101a480003172400c7fb07000000e0000100350071
:101a58000044eb000804e0001300320054818000c9
:101a680065818000708180008181800018c0b3008a
:101a78000001be000400be00bafb07000000e00041
:101a8800010035000044eb000804e00003003200c8
:101a980040c0b300004f7800b600370050c0b30014
:101aa800004f7800b30037005081800061818000ca
:101ab80018c0b3000200200003122400a9fb07008d
:101ac8000000e000010035000044eb000804e000dd
:101ad80024003200708180008181800018c0b3002a
:101ae8000200200003122400a0fb07000000e00011
:101af80001003c000044eb000804e000190032003b
:101b0800f08080000181800018c0b300020020002e
:101b18000317240093fb07000000e00001003500d4
:101b28000044eb000804e0000e0032001081800041
:101b38002181800018c0b300020020000317240090
:101b48008afb07000000e00001003c000044eb00b5
:101b58000804e0000300320070c0b300004f7800b2
:101b680084003700508180006181800018c0b30074
:101b780002002000031224007cfb07000000e000a4
:101b880001003c000044eb000804e000240032009f
:101b9800708180008181800018c0b300020020009d
:101ba800031224006ffb07000000e000010035006d
:101bb8000044eb000804e00019003200f0808000c7
:101bc8000181800018c0b300020020000317240020
:101bd80066fb07000000e00001003c000044eb0049
:101be8000804e0000e00320010818000218180008e
:101bf80018c0b300020020000317240059fb070097
:101c08000000e000010035000044eb000804e0009b
:101c18000300320060c0b300004f78005500370061
:101c2800f08080000181800018c0b300020020000d
:101c3800031f24004bfb07000000e00001003500f3
:101c48000044eb000804e0001900320030818000f5
:101c58004181800018c0b30002002000031a24004c
:101c680042fb07000000e00001003c000044eb00dc
:101c78000804e0000e0032001081800021818000fd
:101c880018c0b30002002000031f240037fb070020
:101c98000000e00001003c000044eb000804e00004
:101ca8000300320020c0b300004f78003100370035
:101cb800f08080000181800018c0b300020020007d
:101cc800031f240029fb07000000e00001003c007e
:101cd8000044eb000804e000190032003081800065
:101ce8004181800018c0b30002002000031a2400bc
:101cf8001efb07000000e00001003c000044eb0070
:101d08000804e0000e00320010818000218180006c
:101d180018c0b30002002000031f240011fb0700b5
:101d28000000e000010035000044eb000804e0007a
:101d38000300320010c0b300004f78000d003700d8
:101d48000040eb00004f7800d08180008000e80060
:101d580010002800008060000000e00004003d0042
:101d68000000e900e1ff2f00008070000000e8009b
:101d7800d08188001e4078000004e00003003a008b
:101d880020c0b30009f0b7002f0037001e407800cc
:101d9800e34f500009003a00d08180000000e000c5
:101da80003003a00a0c0b30009f0b70026003700ce
:101db80080c0b30009f0b700230037001e40780048
:101dc800e24f500003003a0040c0b30009f0b700ea
:101dd8001d0037001e407800e14f500003003a0014
:101de80060c0b30009f0b700170037001e40780044
:101df800e44f500003003a0000c1b30009f0b700f7
:101e0800110037001e407800e54f500003003a00eb
:101e180020c1b30009f0b7000b0037001e4078005e
:101e2800e74f500003003a0060c1b30009f0b70063
:101e3800050037001e407800e64f500002003a00c7
:101e480040c1b30009f0b70009d0bf008080fb0093
:101e580008d0bf000080fb000000e900808f500020
:101e68000200320009d0bf0008f0b7004f04780024
:101e78000080fa00000006000000fa0013e1a90043
:101e880011e1a9001061a8001021a90081088000b3
:101e9800f0fc2f00008060000040a000800888004f
:101ea8000a21ef000621ef00800920007008880051
:101eb80000682900600888002142800080ff2f0008
:101ec800008060000000a000204288000108a900ee
:101ed8002108a80011e1a8000080fa00000006000f
:101ee8000400fa00881f7800008fbe0005e1a900f1
:101ef80021088000f0fc2f00008060002008880086
:101f08001e0178009e0190000068290081c124000c
:101f180052fa070018c0b30002f02f00f37724002c
:101f280092fa07000000e00001003c000044eb00ca
:101f38000804e0005400320021088000f0fc2f0063
:101f4800008060000040a000200888001e01780082
:101f58009e0190000068290081c124003ffa070013
:101f680002002000031024003cfa070018c0b30048
:101f780002f02f00f37724007cfa07000000e0004d
:101f880001003c000044eb000804e000320032008d
:101f980021088000f0fc2f00008060000050a000a5
:101fa800200888001e0178009e0190000068290022
:101fb80081c1240029fa0700020020000328240018
:101fc80026fa070018c0b30002f02f00f3772400a8
:101fd80066fa07000000e00001003c000044eb0046
:101fe8000804e000100032002108800000032000ef
:101ff80001007000200888001e0178009e019000f2
:102008000068290081c1240014fa0700020020009a
:102018000338240011fa070056fa07000000780078
:1020280010088800200037001e0178009e019000eb
:102038000068290081c1240008fa07000200200076
:102048000328240005fa07004afa07000000780070
:1020580010088800140037001e0178009e019000c7
:102068000068290081c12400fcf907000200200053
:1020780003102400f9f907003efa07000000780071
:1020880010088800080037001e0178009e019000a3
:102098000068290081c12400f0f9070035fa07001b
:1020a80000007800100888000421a9000068a90031
:1020b8002068a80005e1a8004f0478000080fa0015
:1020c800000006000400fa00881f7800008fbe0098
:1020d8001fe1a900f1088000f0fc2f0000806000db
:1020e800f00888001e0178009e0190000068290011
:1020f80081c12400d9f9070018c0b30002f02f00ed
:10210800f377240019fa07000000e00001003c0002
:102118000044eb000804e00054003200f10880009d
:10212800f0fc2f00008060000040a000f00888004c
:102138001e0178009e0190000068290081c12400da
:10214800c6f907000200200003102400c3f90700a5
:1021580018c0b30002f02f00f377240003fa070039
:102168000000e00001003c000044eb000804e0002f
:1021780032003200f1088000f0fc2f00008060007f
:102188000050a000f00888001e0178009e01900011
:102198000068290081c12400b0f90700020020006e
:1021a80003282400adf9070018c0b30002f02f007f
:1021b800f3772400edf907000000e00001003c007f
:1021c8000044eb000804e00010003200f108800031
:1021d8000003200001007000f00888001e0178004c
:1021e8009e0190000068290081c124009bf9070026
:1021f800020020000338240098f90700ddf90700e1
:1022080000007800d0088800200037001e01780000
:102218009e0190000068290081c124008ff9070001
:1022280002002000032824008cf90700d1f90700d8
:1022380000007800d0088800140037001e017800dc
:102248009e0190000068290081c1240083f90700dd
:10225800020020000310240080f90700c5f90700d8
:1022680000007800d0088800080037001e017800b8
:102278009e0190000068290081c1240077f90700b9
:10228800bcf9070000007800d00888001e21a900ca
:102298000368a9002368a8001fe1a8004f0478007c
:1022a8000080fa00000006000000fa0011608000bb
:1022b80080ff2f00008060001060880000fa200076
:1022c8002060880023aca800238ca800116180003e
:1022d800f03f2f000080600000a0a000106188007f
:1022e8003000200020618800c3aca800c38ca8007f
:1022f80011668000f03f2f000080600000a0a00061
:1023080010668800300020002066880001eca800d4
:102318000080fa00000006000600fa00008fbe00e8
:10232800220798002e0090000000e00006003a0006
:102338001e0078009e00900001f0a200b080880086
:10234800c1808800040037001e0178009e019000bb
:1023580072808800838088000080fa0000000600f0
:102368000000fa00889fbe00d4808000e5808000cd
:10237800b0808000c180800018c0b3000001be009a
:102388000400be0077f907000000e00001003500f6
:102398000044eb000804e0000d003200b880800023
:1023a800c9808000d4808000e58080002080800083
:1023b800318080000001be000400be00caf807009a
:1023c8000801be00b5000700d0808800e1808800c1
:1023d800d4808000e5808000b0808000c1808000cb
:1023e80018c0b3000001be000400be005ff907007a
:1023f8000000e00001003c000044eb000804e0009d
:102408000d003200b8808000c9808000d480800030
:10241800e580800020808000318080000001be00bf
:102428000400be00aff807000801be0083000700e3
:10243800d0808800e1808800d0808000e180800022
:1024480018c0b3006011b80048f907000000e000a8
:1024580001003d000044eb000804e00004003200e5
:10246800c3cca90024eea800c3eca80003003700e1
:10247800c3eca90024cea800c3cca800d08080005b
:10248800e18080005700070002002000032224009a
:10249800c9f9070058f9070000007800306688007d
:1024a80094808000a58080007080800081808000fa
:1024b80018c0b3000001be000400be0029f90700df
:1024c8000000e000010035000044eb000804e000d3
:1024d8000d00320078808000898080009480800020
:1024e800a580800020808000318080000001be002f
:1024f8000400be007cf807000801be006700070062
:1025080090808800a180880094808000a580800049
:10251800708080008180800018c0b3000001be0078
:102528000400be0011f907000000e00001003c00b3
:102538000044eb000804e0000d00320078808000c1
:102548008980800094808000a580800020808000a1
:10255800318080000001be000400be0061f8070061
:102568000801be003500070090808800a18088001f
:1025780090808000a180800018c0b3006011b8006e
:10258800faf807000000e00001003d000044eb00fd
:102598000804e0000400320023cca90015eea800ce
:1025a80023eca8000300370023eca90015cea800ef
:1025b80023cca80090808000a1808000090007003b
:1025c80002002000032224007bf907000af9070013
:1025d80000007800306188004f04be000080fa00d7
:1025e800000006000400fa00881f7800008fbe0073
:1025f80018c0b3006011b8001e0078009e0090005b
:10260800daf807000000e00001003d000044eb009c
:102618000804e000030032001e0078009e009000cd
:10262800030037001e0078009e00900001f0a20011
:102638004f0478000080fa00000006000800fa0045
:10264800881f7800008fbe00220798003307980083
:1026580018c0b3002e019000be0190001e00780043
:102668009e009000c1f807000000e00001003c0057
:102678000044eb000804e000030032001e0078006c
:102688009e009000020037002e009000be009000cf
:102698004f0478000080fa00000006000800fa00e5
:1026a800881f7800008fbe00220798003307980023
:1026b80018c0b3002e019000be0190001e007800e3
:1026c8009e009000a7f807000000e0000100350018
:1026d8000044eb000804e000030032001e0078000c
:1026e8009e009000020037002e009000be0090006f
:1026f8004f0478000080fa00000006000800fa0085
:10270800881f7800300798003e009000301f78003e
:10271800201778000000eb00200798001800370009
:102728002e0090004200dd00be00900000804000b6
:10273800900090001000780018c0b3001e017800c7
:102748009e01900087f807000000e00001003500b6
:102758000044eb000804e000060032002e00900060
:102768004200dd00be00900000804000301f78006d
:10277800201778002e0090000000e800200798003d
:102788002e009000e40f5000e5ff34001e00780092
:102798009e0090004f0478000080fa0000000600b8
:1027a8000c00fa00881f7800008fbe0022079800ee
:1027b80033079800440798005507980018c0b300dd
:1027c8004e019000de0190001e0078009e009000ef
:1027d80066f807000000e00001003c000044eb0040
:1027e8000804e000040032004e019000de01900071
:1027f800028fbe000e00370018c0b3002e019000f3
:10280800be0190001e0078009e00900055f8070059
:102818000000e000010035000044eb000804e0007f
:10282800030032002e019000be019000028fbe000e
:102838001e0078009e0090004f0478000080fa0087
:10284800000006000000fa0021e3a9002143a800c7
:1028580001198000f0cf2f00008060000019880067
:102868002043a90001198000000e2000010070001b
:102878000019880011198000f0ff21000080600015
:10288800101988002343a80011198000f0cf2f00e9
:1028980000806000101988001119800030f82f009e
:1028a800008060000040a000101988002203a900e1
:1028b8002223a90025e3a900f0c0b30024e3b70050
:1028c80021198000f00f2e008080600000f02000a9
:1028d80001007000201988003303a9004feea800fa
:1028e8002e0ea8002f6ea8006f2ea8001e2ea8007e
:1028f8003063a80030c3a8003163a8002e03a800e5
:1029080031e3a8004119800000fc2f00008060001e
:102918004019880028e3a90001a8a90021a8a80057
:1029280021e3a8000080fa00000006000000fa0079
:102938002023a8000080fa00000006000000fa002a
:10294800c00321000080fa00000006000000fa0021
:102958000bd0bf000080fa00000006000000fa005b
:102968000b70ef000080fa00000006000000fa007b
:10297800f0032000303a8800213a8000f0f32f005d
:1029880000806000203a8800213a800000fe2f0075
:10299800008060000000a000203a8800120020009b
:1029a80080072000a10920003374200080497800a6
:1029b8008149780082497800103a80000001780047
:1029c8000200a0006004200071052000237420008c
:1029d8008049780081497800824978000000000029
:1029e800113a80000000270080806000000021006c
:1029f800808f5000faff3a0000000000113a800072
:102a080000022000008060000000e000fbff3200b0
:082a18000080fa000000060036
:020000040000fa
:102a200008100000020000008000000000100000fc
:102a300004000000800000000c10000030000000c6
:102a4000800000000410000004000000820000006c
:102a500000002000410000003c1000000a000000bf
:102a6000800000000a10000002000000800000004a
:042a70000000000062
:020000040000fa
:102a74000000fa000e2eef001e2eef002e2eef00a7
:102a84003e2eef004e2eef005e2eef006e2eef0076
:102a9400214ea90060cea90060eea90011cea900c4
:102aa40011eea90020cea90020eea9000080fa00b2
:042ab4000000060018
:020000040000fa
:02000004000af0
:04afe000cfff00009f
:020000040000fa
:02000004000af0
:04afe400ffff00006b
:020000040000fa
:02000004000af0
:04afe8007fff0000e7
:020000040000fa
:02000004000af0
:04afec005fff000003
:020000040000fa
:02000004000af0
:04aff00038ff000026
:020000040000fa
:02000004000af0
:04aff400ffff00005b
:00000001FF
