:020000040000fa
:080000000002040000000000f2
:020000040000fa
:040008006e04000082
:020000040000fa
:04000c006e0400007e
:020000040000fa
:040010006e0400007a
:020000040000fa
:040014006e04000076
:020000040000fa
:040018006e04000072
:020000040000fa
:04001c006e0400006e
:020000040000fa
:040020006e0400006a
:020000040000fa
:040024006e04000066
:020000040000fa
:040028006e04000062
:020000040000fa
:04002c006e0400005e
:020000040000fa
:040030006e0400005a
:020000040000fa
:040034007003000055
:020000040000fa
:040038006e04000052
:020000040000fa
:04003c006e0400004e
:020000040000fa
:040040006e0400004a
:020000040000fa
:040044006e04000046
:020000040000fa
:040048006803000049
:020000040000fa
:04004c006e0400003e
:020000040000fa
:040050006e0400003a
:020000040000fa
:04005400fa020000ac
:020000040000fa
:040058003e03000063
:020000040000fa
:04005c003804000064
:020000040000fa
:040060006e0400002a
:020000040000fa
:040064006e04000026
:020000040000fa
:040068006e04000022
:020000040000fa
:04006c006e0400001e
:020000040000fa
:040070006e0400001a
:020000040000fa
:040074006e04000016
:020000040000fa
:040078006e04000012
:020000040000fa
:04007c006e0400000e
:020000040000fa
:040080006e0400000a
:020000040000fa
:040084006e04000006
:020000040000fa
:040088006e04000002
:020000040000fa
:04008c006e040000fe
:020000040000fa
:040090006e040000fa
:020000040000fa
:04009400b0030000b5
:020000040000fa
:040098006e040000f2
:020000040000fa
:04009c006e040000ee
:020000040000fa
:0400a0006e040000ea
:020000040000fa
:0400a4006e040000e6
:020000040000fa
:0400a8006e040000e2
:020000040000fa
:0400ac006e040000de
:020000040000fa
:0400b0006e040000da
:020000040000fa
:0400b4006e040000d6
:020000040000fa
:0400b8006e040000d2
:020000040000fa
:0400bc006e040000ce
:020000040000fa
:0400c0006e040000ca
:020000040000fa
:0400c4006e040000c6
:020000040000fa
:0400c8006e040000c2
:020000040000fa
:0400cc006e040000be
:020000040000fa
:0400d0006e040000ba
:020000040000fa
:0400d4006e040000b6
:020000040000fa
:0400d8006e040000b2
:020000040000fa
:0400dc006e040000ae
:020000040000fa
:0400e0006e040000aa
:020000040000fa
:0400e4006e040000a6
:020000040000fa
:0400e8006e040000a2
:020000040000fa
:0400ec006e0400009e
:020000040000fa
:0400f0006e0400009a
:020000040000fa
:0400f4006e04000096
:020000040000fa
:0400f8006e04000092
:020000040000fa
:0400fc006e0400008e
:020000040000fa
:040100006e04000089
:020000040000fa
:040104006e04000085
:020000040000fa
:040108006e04000081
:020000040000fa
:04010c006e0400007d
:020000040000fa
:040110006e04000079
:020000040000fa
:040114006e04000075
:020000040000fa
:040118006e04000071
:020000040000fa
:04011c006e0400006d
:020000040000fa
:040120006e04000069
:020000040000fa
:040124006e04000065
:020000040000fa
:040128006e04000061
:020000040000fa
:04012c006e0400005d
:020000040000fa
:040130006e04000059
:020000040000fa
:040134006e04000055
:020000040000fa
:040138006e04000051
:020000040000fa
:04013c006e0400004d
:020000040000fa
:040140006e04000049
:020000040000fa
:040144006e04000045
:020000040000fa
:040148006e04000041
:020000040000fa
:04014c006e0400003d
:020000040000fa
:040150006e04000039
:020000040000fa
:040154006e04000035
:020000040000fa
:040158006e04000031
:020000040000fa
:04015c006e0400002d
:020000040000fa
:040160006e04000029
:020000040000fa
:040164006e04000025
:020000040000fa
:040168006e04000021
:020000040000fa
:04016c006e0400001d
:020000040000fa
:040170006e04000019
:020000040000fa
:040174006e04000015
:020000040000fa
:040178006e04000011
:020000040000fa
:04017c006e0400000d
:020000040000fa
:040180006e04000009
:020000040000fa
:040184006e04000005
:020000040000fa
:040188006e04000001
:020000040000fa
:04018c006e040000fd
:020000040000fa
:040190006e040000f9
:020000040000fa
:040194006e040000f5
:020000040000fa
:040198006e040000f1
:020000040000fa
:04019c006e040000ed
:020000040000fa
:0401a0006e040000e9
:020000040000fa
:0401a4006e040000e5
:020000040000fa
:0401a8006e040000e1
:020000040000fa
:0401ac006e040000dd
:020000040000fa
:0401b0006e040000d9
:020000040000fa
:0401b4006e040000d5
:020000040000fa
:0401b8006e040000d1
:020000040000fa
:0401bc006e040000cd
:020000040000fa
:0401c0006e040000c9
:020000040000fa
:0401c4006e040000c5
:020000040000fa
:0401c8006e040000c1
:020000040000fa
:0401cc006e040000bd
:020000040000fa
:0401d0006e040000b9
:020000040000fa
:0401d4006e040000b5
:020000040000fa
:0401d8006e040000b1
:020000040000fa
:0401dc006e040000ad
:020000040000fa
:0401e0006e040000a9
:020000040000fa
:0401e4006e040000a5
:020000040000fa
:0401e8006e040000a1
:020000040000fa
:0401ec006e0400009d
:020000040000fa
:0401f0006e04000099
:020000040000fa
:0401f4006e04000095
:020000040000fa
:0401f8006e04000091
:020000040000fa
:0401fc006e0400008d
:020000040000fa
:040200006e04000088
:020000040000fa
:040204006e04000084
:020000040000fa
:040208006e04000080
:020000040000fa
:04020c006e0400007c
:020000040000fa
:040210006e04000078
:020000040000fa
:040214006e04000074
:020000040000fa
:040218006e04000070
:020000040000fa
:04021c006e0400006c
:020000040000fa
:040220006e04000068
:020000040000fa
:040224006e04000064
:020000040000fa
:040228006e04000060
:020000040000fa
:04022c006e0400005c
:020000040000fa
:040230006e04000058
:020000040000fa
:040234006e04000054
:020000040000fa
:040238006e04000050
:020000040000fa
:04023c006e0400004c
:020000040000fa
:040240006e04000048
:020000040000fa
:040244006e04000044
:020000040000fa
:040248006e04000040
:020000040000fa
:04024c006e0400003c
:020000040000fa
:040250006e04000038
:020000040000fa
:040254006e04000034
:020000040000fa
:040258006e04000030
:020000040000fa
:04025c006e0400002c
:020000040000fa
:040260006e04000028
:020000040000fa
:040264006e04000024
:020000040000fa
:040268006e04000020
:020000040000fa
:04026c006e0400001c
:020000040000fa
:040270006e04000018
:020000040000fa
:040274006e04000014
:020000040000fa
:040278006e04000010
:020000040000fa
:04027c006e0400000c
:020000040000fa
:040280006e04000008
:020000040000fa
:100400008f3621000eff27000e018800000000003b
:10041000000020000000e000020032000001200087
:1004200020028800140007002e0107000000e000f1
:1004300003003a00c03b2200010020000200370008
:100440000000200001002000810f70000100320038
:100450000f000700000020000000e0000200320052
:100460000000020000000000f42402000000000070
:100470000040da000000fe00a00020000000e000c4
:1004800002003200002020009001880000000600d9
:10049000a1028800800478000000eb001f003700f4
:1004a000e284440054a0b4009905ba00e2844400f8
:1004b00054a0b4009906ba00e284440054a0b400e9
:1004c0000006eb00476fde00fd07b200ae018800ba
:1004d000636ce10003003a000ad801000000eb0061
:1004e0000e003700606ce10008003a00004deb00a0
:1004f0000a05e800020039003420ec000af0a000f0
:100500008b05e900f9ff3e00040037006168e10057
:10051000010032000086eb000b00070019c7ba008b
:100520000e04e0001905ba0003003a000a00e000da
:10053000dbff3a0000000600fe07b200ae028800b2
:100540008a047800f5ff37000cd0a300e20f4d00bd
:100550001c00390089027800354dba000a05e80010
:10056000020039003420ec000af0a0008b05e900fd
:100570000f003200254dba000a05e80002003900dc
:100580003420ec000af0a0008b05e90008003200de
:100590000c00e0000600320015cdba000a05e800a4
:1005a000020039003420ec000af0a0008b05e900bd
:1005b0008984e80054a0b4000b00e000e2ff3a0098
:1005c000000006009902ba00055d78008b05e9007d
:1005d000f7ff3200c82ade00055d78008b05e900d0
:1005e000f3ff32000c00e000f1ff320019ddba0029
:1005f000eeff37003600f800809fbe00829fbe00ed
:10060000849fbe00869fbe000000fa000168a9001a
:1006100010118000640060000000e0000100320062
:100620002242a90010118000620060000000e0007a
:10063000060032002222a900050037003011800098
:10064000004078000d100700010037000000000096
:1006500010118000610060000000e000f7ff3a0028
:100660000080fa004f03be004f02be004f01be00e3
:100670004f00be003600f900004006003600f800ca
:10068000809fbe00829fbe00849fbe00869fbe00ea
:100690000000fa000188a900f1838000e083800057
:1006a000808f500002003200580f07000100370011
:1006b0008070ef000080fa004f03be004f02be00c2
:1006c0004f01be004f00be003600f900004006009a
:1006d0000000fa000108a9000080fa0000400600ae
:1006e0003600f800809fbe00829fbe00849fbe003f
:1006f000869fbe000000fa000068a900ce0d07002a
:10070000d80a070079050700217380000004200043
:100710000080600000f0a7000000ea000000e9008f
:100720004f00de00004078000080fb0061006000a8
:100730004600dd00217380000160a100010070000f
:10074000207388000080fa004f03be004f02be00f5
:100750004f01be004f00be003600f9000040060009
:100760003600f800809fbe00829fbe00849fbe00be
:10077000869fbe000200fa000368a9001084800072
:100780002184800061004000e080480010848800df
:1007900021848800f902070030848000000f78006f
:1007a000a10020001e0078008101780011000900de
:1007b0000300d80001f0a7008100ea008100e900f1
:1007c000cf08de00814078001e0178000200e800ba
:1007d000308488000104e0001e0032002071800097
:1007e0004a00de00614060000080fb00800078006d
:1007f00010002000c3060700207380004700de00c1
:10080000614060000080fb00800078002000200034
:10081000bc060700207380004600de0061406000d7
:100820000080fb008000780030002000b506070043
:10083000c3060700f6060700080707001a070700a7
:10084000570707008a070700c0070700ea070700e5
:10085000140807000080fa004f03be004f02be00dc
:100860004f01be004f00be003600f90000400600f8
:100870003600f800809fbe00829fbe00849fbe00ad
:10088000869fbe000000fa0001a8a90000188000a1
:10089000f09a880010188000009b880020188000c3
:1008a000109b880030188000209b88004018800032
:1008b000309b8800700d070010c0b30095f0b700a2
:1008c0000080fa004f03be004f02be004f01be0081
:1008d0004f00be003600f900004006000040da007c
:1008e0000000fe000000050003f0a200889fbe008b
:1008f0008a9fbe008c1f78006e01070075013300cf
:100900006450e1004f0032006420e10052003200e8
:1009100003826c0007003b000905d0000306d000ed
:10092000820f54000c065d00020039000200320004
:1009300089017800030678008582550004003d0097
:100940000003fd008103fd008502ea008b85420063
:10095000840f720002003b0060001000e08018006d
:100960006011b8000005eb007a28e1000a003900a8
:1009700006007800c75ddd00f707b20087807500cc
:100980002d003700828171000a0178006105600046
:100990008180d1000080d3008502e900f9ff3b008f
:1009a000060440008784480002003b0060041400f5
:1009b000e0841c000988a300070032008a817100ce
:1009c00082817100610164008904d1000884d30030
:1009d0008b05e800170037000978a30013003a00e0
:1009e0000b00e000130034008b05e900080444000c
:1009f00089844c000a4474000978a3000d003a0071
:100a00000b00e000070034008b05e90008044400f7
:100a100089844c0001003a000b0020000978a300f3
:100a2000f7ff32000001eb00020037008281710005
:100a30000a017800e40007000cf0a70001f0a00014
:100a40002d0137006420e10002003a00838f6c0022
:100a50002d0133000801be000200be002601370050
:100a60000081eb005f013700889fbe008a9fbe00b7
:100a70008c1f78000f0107001601330003866c00fd
:100a80006450e1002e0032006420e10033003200a7
:100a90006150e1002f0032006120e100310032009e
:100aa00085855500eb07b0000900200008042000f0
:100ab000050037000804440089844c000a00310016
:100ac0000603430087834b000001530081815b00d4
:100ad000f8ff33000203be000800a0000804440031
:100ae00089844c00f6ff3900c639dd0083017300ac
:100af00001003200130020008904d1000884d300d3
:100b00000998a300050032000800a7000300a00018
:100b10008904d1000884d3008b05e8008904d10042
:100b20000884d3000001eb000281d200a600070078
:100b300001f0a1000cf0a70001f0a000ee003700ca
:100b40006420e100f00032000801be000200be0097
:100b5000f7ff37006120e100eb0032006000b800d1
:100b6000f3ff37000000200001f82700f0ff3700f6
:100b70001400200086013700f4ff2f0084013700a5
:100b80000001be00b60007000470a70003f0a1003a
:100b90006509b100160032000d0035006828e1003b
:100ba00006003500f0ff2f00f1ff27000300e000f2
:100bb00013003b0001002800000005000000400079
:100bc000818048008502e900fcff3a0008003700f8
:100bd000f88f420002003c008000eb00000005009e
:100be0008100d1000080d3008502e800fcff3a00bc
:100bf0000300e00002003b0060001000e0801800ed
:100c0000000006000001be00950007000470a70068
:100c100003f0a10003f8a30013003a006509b10036
:100c200010003200090035006928e100020035009b
:100c300001002800000005000000400081804800fd
:100c40008502e900fcff3a0000000600f88f420030
:100c5000050035008100d1000080d3008502e80046
:100c6000fcff3a00000006008000eb0000000500d9
:100c70004f89de0082017800600137006011b80002
:100c80006e0137000400200000003700889fbe007e
:100c90008a9fbe008c1f78004f26dd00850007006c
:100ca0008c0033006120e100430032006250e1001b
:100cb00041003e003e0039006420e1003c0032006b
:100cc000058255000f003b000402e80038003a009e
:100cd000800f5300818f5b00350034000800be0098
:100ce00003f0a10001f0a60003f0a0000cf0a700a3
:100cf000fefe0700800037000603430087834b0099
:100d00000c4646000005530081855b00020033005d
:100d10000a03be000c00a0000402e900f6ff3b003d
:100d2000850578000602430087824b0004003a00e4
:100d30006000b80009f0a70001f0a0006e003700c5
:100d40000002520081825a000704e00004003300d0
:100d50000603430087834b008b05e900faff370049
:100d6000090578000604be000203be006011b80049
:100d700015000700e00f5200e08f5a000700350011
:100d800002003c000c08a300040032000601be0073
:100d900003f0a0000cf0a700d4fe07000a8568004d
:100da00001f0a1000af0a70001f0a00052003700f6
:100db0000800be0050003700100220000cf0a60012
:100dc000b084880050003700810020006180550009
:100dd0000b003d000b00200061fe2f000100e10030
:100de0001d00340082817100610164008904d1001a
:100df0000884d3000000e800faff3a0071002000e8
:100e0000610064000300700002006000090032000d
:100e100061044400e0844c000988a500050032000c
:100e20008b05e8006808e10002003a008904d1005f
:100e30000884d300f20f20000258e10005003d00b5
:100e4000c75ddd00f907b2008980750008007800f1
:100e5000000006000bf827008b007800000005005a
:100e6000c70ade00f107b200f50fb2000800320039
:100e7000e1cf4200020032000170a0002400050012
:100e8000810f7000010032000408050044000500d5
:100e9000810f700002003a00140005008502e9008d
:100ea0000000400081c04800fcff3b000170a00032
:100eb000240005000004be00e9ff07000003be0097
:100ec0000405be000200be00e5ff0700844f750068
:100ed000000006000200be006450e100050036007c
:100ee0006420e100020036000968a30001003a0016
:100ef0000800be000160a0004f0678004f05be004c
:100f00004f04be0000000600f0ff2f00f1ff270095
:100f1000f9ff3700889fbe008a9fbe008c1f7800b3
:100f2000e4ff0700ebff330003866c006450e10030
:100f3000240032006420e100270032006150e1000b
:100f4000220032006120e100210032008b85420046
:100f5000eb07b1000134b800003ab80008044200c1
:100f600089844a00013ab8000030b8008880400007
:100f700009014a000400330000004000818048005d
:100f8000020149008b05e900c909dd0083017000f9
:100f90000100320013002000c814de004814dd00f8
:100fa0004709de001200b200c808de0008847000a5
:100fb00085ff070001f0a1000cf0a70001f0a000e0
:100fc000cdff37006120e100cfff32000801be00f5
:100fd0000200be00f7ff37006150e100fcff3a005d
:100fe000c9ff3700889fbe008a9fbe008c9fbe004d
:100ff000820578000004be0099ff07000800be00cb
:101000006420e1000700390002003a00f1ff2700e8
:10101000f0ff2f000160a00012022000b2848800bf
:10102000550037006120e10003003a000b00a700e3
:1010300001f823005000370001f0a1000200210058
:1010400093642400cafe07000800be0004003500b7
:10105000b2fd2000930c24000aff07000004be002c
:101060000005eb000b00a6004f0dde0001f0a10013
:101070000004be0032982f0023ea2300a5ff0700da
:101080000001eb0003f023000b00a70003f823008e
:1010900016fe0700bafe07000000a7000a00a20023
:1010a000f3fe07000b00e000030032000200200006
:1010b00003f023000cfe070001f0a2000006be00b2
:1010c000020020009304240092ff07000801be00e4
:1010d00006fe0700809fbe000c00be0022a22a0070
:1010e000d3a723008bff07004f01be00fffd0700c1
:1010f0000004be0001f0a1000200200003982300bc
:101100009bfe07000800be00190035000001be006c
:1011100080ff07000006be00b2c52900e36223007d
:101120007cff070022222b00f3942b00effd070029
:101130000c01be0077ff0700e273280083c0230084
:10114000eafd07000c01be0072ff070042aa2a0058
:10115000a3e22b00e5fd07000c01be006dff0700b8
:101160000801be006bff07000801be00dffd07009d
:101170000a00a70001f0a2004f06be004f05be0006
:101180004f04be00000006000001eb0095ff370091
:10119000889fbe008a9fbe00841f780045ff07001d
:1011a0004f00780011003300f0ff2f00838f6c0098
:1011b00006003b00040565000a00a7000800370090
:1011c00009f0a6001000200008003700820f54002c
:1011d000838f5c00030039001000200001003e00f6
:1011e0000000200009f0a7000000ea004f05be0043
:1011f0004f04be000000e00000000600881f7800d9
:10120000030478000300e00007003d0060001000c8
:10121000e080180060011900e081190002003b0025
:1012200001f02d00030037000400070008f0a700bc
:1012300001f0a0004f04780000000600889fbe0067
:101240008a9fbe0000827000040271000482710057
:10125000260032000004be000200be006011b8008b
:101260006b092000950220000182cf000a0039009e
:101270000541b1000082cf00070039000541b100ef
:101280000982cf00040039000541b1000882cf0077
:10129000010039000541b100054252001200320040
:1012a0000a003b0082817100610164008100d1006d
:1012b0000080d3008984d3000884d3008b05e80024
:1012c0000442e800f7ff3a00070037000804440032
:1012d00089844c0000004800818048008b05e900ab
:1012e0000442e900f9ff3a00b7fe07004f05be00cf
:0812f0004f04be0000000600df
:020000040000fa
:1012f8004d6f000064650000204100007574000017
:041308006f00000072
:020000040000fa
:10130c000200fa00004f78001e41780041072100ce
:10131c00824878000080fa00000006000200fa0003
:10132c00004f78001e4078000004a2000080fb00f3
:10133c000000e9004f00de0080848800808480007b
:10134c000000e00003003a00c0c0b30074f0b70026
:10135c00010037007470ef000080fa0000000600f6
:10136c000000fa00808480000080fa000000060073
:10137c000000fa00808480007b04070074d0bf005a
:10138c000080fb00cf80de007201200003002000f3
:10139c00820f5000838f5800b5003e0000060100fc
:1013ac0017003700220037002b00370034003700bd
:1013bc00350037003e0037003f003700480037004b
:1013cc004900370051003700520037005c003700ed
:1013dc005d0037006500370066003700700037008d
:1013ec00710037007b0037007c0037008600370027
:1013fc008700370090003700910037009a003700c3
:10140c008230ef008430ef001000200080848800d0
:10141c000001eb006000b800280207001200200059
:10142c006000b8002502070010c0b30074f0b700cc
:10143c001284800023848000803e20000100200064
:10144c00800f5100818f59008d00360020c0b300f1
:10145c0074f0b7008b0037000001eb000000200097
:10146c00811c24001502070012002000000020003f
:10147c00811c24001102070030c0b30074f0b700c7
:10148c00820007007f0037000001eb000000200005
:10149c00011f240009020700120020006000b800a0
:1014ac000602070050c0b30074f0b7007500370097
:1014bc0076000700730037000001eb006000b800f5
:1014cc00fe0107001200200000002000011f240074
:1014dc00fa01070070c0b30074f0b7006900370060
:1014ec006a000700670037000001eb0000002000d5
:1014fc0001172400f1010700120020000000200059
:10150c0001172c00ed0107005e0037005f0007009b
:10151c005c0037000001eb000000200001172c00dc
:10152c00e601070012002000000020000117240033
:10153c00e2010700b0c0b30074f0b70051003700ef
:10154c00520007004f0037000001eb006000b800ac
:10155c00da010700120020006000b800d701070074
:10156c00d0c0b30074f0b700460037004700070046
:10157c00440037000001eb000000200001172c0094
:10158c00ce010700120020000000200001172c00e3
:10159c00ca010700f0c0b30074f0b700390037007f
:1015ac003a000700370037000001eb000000200074
:1015bc0001172400c10107001200200000002000c8
:1015cc0001122400bd01070010c1b30074f0b70074
:1015dc002c0037002d0007002a0037000001eb001b
:1015ec000000200001122400b401070012002000aa
:1015fc000000200001172400b001070030c1b30027
:10160c0074f0b7001f003700200007001d003700e2
:10161c000001eb000000200001172400a7010700c7
:10162c00120020006000b800a401070050c1b300f4
:10163c0074f0b700130037001400070011003700d6
:10164c000001eb006000b8009c01070012002000b4
:10165c0000002000011724009801070070c1b3009e
:10166c0074f0b700070037000800070005003700ca
:10167c00c0c0b30074f0b7000000000001003700d8
:10168c00000000000080fa00000006000200fa00d2
:10169c00881f780080848000e10f500028013a00f8
:1016ac000040eb00004f7800d08d8000e18d800071
:1016bc0018c0b30002002000031a240029fd070003
:1016cc000000e000010035000044eb000804e000dd
:1016dc000300320030c0b300004f7800d800370050
:1016ec00f08d8000018e800018c0b3000200200035
:1016fc00031224001bfd07000000e0000100350070
:10170c000044eb000804e0000b003200108e800057
:10171c00218e800018c0b3000200200003122400a8
:10172c0012fd07000000e00001003c000044eb004b
:10173c000804e0000b003a00f08d8000018e800060
:10174c0018c0b30002002000030a240005fd0700a6
:10175c000000e000010035000044eb000804e0004c
:10176c000300320070c0b300004f7800b4003700a3
:10177c00f08d8000018e800018c0b30002002000a4
:10178c0003122400f9fc07000000e00001003c00fb
:10179c000044eb000804e0000b003200108e8000c7
:1017ac00218e800018c0b300020020000312240018
:1017bc00ecfc07000000e000010035000044eb00e9
:1017cc000804e0000b003a00108e8000218e80008f
:1017dc0018c0b30002002000030a2400e1fc07003b
:1017ec000000e000010035000044eb000804e000bc
:1017fc000300320060c0b300004f78009000370047
:10180c00f08d8000018e800018c0b3000200200013
:10181c0003122400d3fc07000000e0000100350097
:10182c000044eb000804e0001e003200108e800023
:10183c00218e800018c0b300020020000312240087
:10184c00c8fc07000000e000010035000044eb007c
:10185c000804e00013003200f48d8000058e800037
:10186c00108e8000218e800018c0b3000001be00d5
:10187c000400be00bbfc07000000e00001003500c6
:10188c000044eb000804e0000300320040c0b30049
:10189c00004f78006a00370050c0b300004f78004a
:1018ac0067003700908d8000a18d800018c0b300b8
:1018bc0002002000031a2400aafc07000000e0002c
:1018cc00010035000044eb000804e0000e0032007b
:1018dc00b08d8000c18d800018c0b30002002000c4
:1018ec00031a24009ffc07000000e00001003500f3
:1018fc000044eb000804e0000300320030c0b300e9
:10190c00004f78004e003700908d8000a18d800034
:10191c0018c0b30002002000031f240091fc070034
:10192c000000e000010035000044eb000804e0007a
:10193c0019003200d08d8000e18d800018c0b300fa
:10194c0002002000031a240088fc07000000e000bd
:10195c0001003c000044eb000804e0000e003200e3
:10196c00b08d8000c18d800018c0b3000200200033
:10197c00031f24007dfc07000000e00001003c0078
:10198c000044eb000804e0000300320020c0b30068
:10199c00004f78002a003700908d8000a18d8000c8
:1019ac0018c0b30002002000031f24006ffc0700c6
:1019bc000000e00001003c000044eb000804e000e3
:1019cc0019003200d08d8000e18d800018c0b3006a
:1019dc0002002000031a240064fc07000000e00051
:1019ec0001003c000044eb000804e0000e00320053
:1019fc00b08d8000c18d800018c0b30002002000a3
:101a0c00031f240057fc07000000e0000100350014
:101a1c000044eb000804e0000300320010c0b300e7
:101a2c00004f7800060037000040eb00004f7800b4
:101a3c00908480000000e8006100600090848800c1
:101a4c001e4078000004e00003003a0020c0b30000
:101a5c007af0b7002f0037001e407800e34f50009b
:101a6c0009003a00908480000000e000030032007e
:101a7c00a0c0b3007af0b7002600370080c0b300d6
:101a8c007af0b700230037001e407800e24f500078
:101a9c0003003a0040c0b3007af0b7001d003700d5
:101aac001e407800e14f500003003a0060c0b300c4
:101abc007af0b700170037001e407800e44f500052
:101acc0003003a0020c1b3007af0b70011003700d0
:101adc001e407800e54f500003003a0000c1b300ef
:101aec007af0b7000b0037001e407800e74f50002b
:101afc0003003a0060c1b3007af0b700050037006c
:101b0c001e407800e64f500002003a0040c1b3007e
:101b1c007af0b7007ad0bf008080fb0074d0bf0091
:101b2c000080fb000000e900808f500004003200b0
:101b3c007ad0bf0074f0b70074d0bf006a020700ff
:101b4c004f0478000080fa00000006001400fa0030
:101b5c00889fbe00f88d8000098e8000968d8000d5
:101b6c00a78d8000d48d8000e58d8000b28d800023
:101b7c00c38d8000108e8000218e8000088fbe00e7
:101b8c0026079800370798004407980055079800d7
:101b9c006207980073079800000f9800110f9800c7
:101bac000e007800710507000200200003122400cb
:101bbc004afb0700b0838800c1838800b083800093
:101bcc00c183800018c0b3000200200083242400cd
:101bdc00e6fb07000000e00001003c000044eb00c5
:101bec000804e000050032000000200081242400dd
:101bfc00b0838800c18388000f003700b083800059
:101c0c00c183800018c0b30002002000031224001e
:101c1c00d4fb07000000e000010035000044eb009d
:101c2c000804e0000400320000002000011224002f
:101c3c00b0838800c1838800b0838000c18380009a
:101c4c004f04be000080fa00000006000000fa00fd
:101c5c001160800080ff2f00008060001060880001
:101c6c0000fa20002060880023aca800238ca80078
:101c7c0011618000f03f2f000080600000a0a000e8
:101c8c00106188003000200020618800c3aca800df
:101c9c00c38ca80011668000f03f2f00008060000c
:101cac0000a0a0001066880030002000206688008c
:101cbc0001eca8000080fa00000006000600fa0003
:101ccc00008fbe00220798001e0178009e01900034
:101cdc00d28c8800e38c88000080fa00000006009b
:101cec000000fa00889fbe00548d8000658d800036
:101cfc00308d8000418d800018c0b3000001be0003
:101d0c000400be0097fb07000000e0000100350056
:101d1c000044eb000804e0000d003200388d800018
:101d2c00498d8000548d8000658d8000608480001a
:101d3c00718480000001be000400be00e8fa0700b8
:101d4c000801be0047040700508d8800618d880093
:101d5c00548d8000658d8000308d8000418d800019
:101d6c0018c0b3000001be000400be007ffb0700da
:101d7c000000e00001003c000044eb000804e0001f
:101d8c000d003200388d8000498d8000548d80000c
:101d9c00658d800060848000718480000001be002d
:101dac000400be00cdfa07000801be0015040700b0
:101dbc00508d8800618d8800508d8000618d800071
:101dcc0018c0b3006011b80068fb07000000e00009
:101ddc0001003d000044eb000804e0000400320068
:101dec00c3cca90024eea800c3eca8000300370064
:101dfc00c3eca90024cea800c3cca800508d800051
:101e0c00618d8000e90307000200200003222400fa
:101e1c003dfc070078fb0700000078003066880066
:101e2c00348d8000458d8000508d8000618d800048
:101e3c000001be000400be00a8fa0700708d8800e7
:101e4c00818d8800f48c8000058d8000d08c800002
:101e5c00e18c800018c0b3000001be000400be007d
:101e6c0040fb07000000e000010035000044eb00df
:101e7c000804e0000d003200d88c8000e98c800052
:101e8c00f48c8000058d800060848000718480005b
:101e9c000001be000400be0091fa07000801be005c
:101eac00f0030700f08c8800018d8800f48c800012
:101ebc00058d8000d08c8000e18c800018c0b300b0
:101ecc000001be000400be0028fb07000000e0007b
:101edc0001003c000044eb000804e0000d0032005f
:101eec00d88c8000e98c8000f48c8000058d8000fb
:101efc0060848000718480000001be000400be007c
:101f0c0076fa07000801be00be030700f08c8800bb
:101f1c00018d8800f08c8000018d800018c0b3000a
:101f2c006011b80011fb07000000e00001003d004b
:101f3c000044eb000804e0000400320023cca900ac
:101f4c0015eea80023eca8000300370023eca90031
:101f5c0015cea80023cca800f08c8000018d800049
:101f6c00920307000200200003222400e6fb070076
:101f7c0021fb07000000780030618800d48c8000c1
:101f8c00e58c8000f08c8000018d80000001be008b
:101f9c000400be0051fa0700108d8800218d8800c6
:101fac004f04be000080fa00000006000000fa009a
:101fbc00889fbe001492800025928000f0918000d2
:101fcc00019280000001be000400be0043fa07002d
:101fdc005092880061928800349080004590800077
:101fec0050928000619280000001be000400be008f
:101ffc00c5fb070090928800a19288009290800007
:10200c00a390800090908000a190800001f0a2002d
:10201c0096928000a79280000202be000001be00d2
:10202c000600be00a703070090928800a1928800ca
:10203c0054908000659080005092800061928000e6
:10204c000001be000400be00affb07000200200030
:10205c00a337240081fa07000002be00b092800072
:10206c00c19280000001be000400be001cfa0700f3
:10207c00b0928800c1928800b2908000c39080001a
:10208c00b0908000c190800001f0a200b692800058
:10209c00c79280000202be000001be000600be0016
:1020ac0088030700b0928800c19288009492800047
:1020bc00a5928000b0928000c19280000001be0009
:1020cc000400be0006fa0700709288008192880016
:1020dc0070928000819280000200200083242400f2
:1020ec005efa0700309288004192880018918000b7
:1020fc0029918000f0908000019180006011b8005f
:10210c0081fb07000001be000800be00f3f90700c8
:10211c005091880061918800748f8000858f8000b9
:10212c0050918000619180000001be000400be004f
:10213c0075fb070090918800a1918800d28f8000d8
:10214c00e38f8000d08f8000e18f800001f0a2002f
:10215c0096918000a79180000202be000001be0093
:10216c000600be005703070090918800a1918800db
:10217c00948f8000a58f8000509180006191800029
:10218c000001be000400be005ffb0700020020003f
:10219c00a337240031fa07000002be00b091800082
:1021ac00c19180000001be000400be00ccf9070004
:1021bc00b0918800c1918800f28f8000039080005c
:1021cc00f08f80000190800001f0a200b691800099
:1021dc00c79180000202be000001be000600be00d6
:1021ec0038030700b0918800c19188009491800059
:1021fc00a5918000b0918000c19180000001be00cb
:10220c000400be00b6f90700709188008191880027
:10221c00709180008191800002002000831c2400ba
:10222c000efa0700309188004191880038918000a7
:10223c0049918000309280004192800022972f00bb
:10224c00f3e8230030fb0700020020000300240009
:10225c0002fa07000001be000800be00a0f907004a
:10226c00308d8800418d8800308d8000418d80003c
:10227c0004002000852c240002002000832c2c005c
:10228c0010030700308d8800418d88003891800044
:10229c0049918000309280004192800022972f005b
:1022ac00f3e8230018fb07000200200003002400c1
:1022bc00eaf907000001be000800be0087f907001c
:1022cc00d08c8800e18c8800d08c8000e18c800060
:1022dc0004002000852c240002002000832c2c00fc
:1022ec00f8020700d08c8800e18c88004f04be00f7
:1022fc000080fa00000006000600fa0010079800a3
:10230c00210798001e009000804078002e0090005d
:10231c0000407800014f7800104798000e017800bb
:10232c002100200000c2b300be0707000080fa00a5
:10233c00000006000600fa00881f78000040eb0041
:10234c00004f78001e84fb00108e8000218e8000d0
:10235c0029fa0700804078000800e800017778002f
:10236c001e4fe8001e84fb00b08d8000c18d8000e4
:10237c0021fa0700804078000800e8000177780017
:10238c001e4fe8001e84fb00d08d8000e18d800084
:10239c0019fa0700804078000800e80001777800ff
:1023ac001e4fe8001e84fb00908d8000a18d8000e4
:1023bc0011fa0700804078000800e80001777800e7
:1023cc001e4fe8001e84fb00f08d8000018e800003
:1023dc0009fa0700804078000800e80001777800cf
:1023ec001e4fe8000e00e8000001780051002000ac
:1023fc0000c3b3008b0707004f0478000080fa007d
:10240c00000006000800fa00308d8000418d80002d
:10241c000001be008000eb000e00780007030700ef
:10242c00d08c8000e18c80000001be0041002000b7
:10243c000e007800010307000e01780081002000d7
:10244c0000c4b300770707000080fa000000060004
:10245c000800fa00508d8000618d80000001be00e4
:10246c008000eb000e007800f4020700f08c800076
:10247c00018d80000001be00410020000e0078009c
:10248c00ee0207000e0178008100200010c4b3009a
:10249c00640707000080fa00000006000800fa003c
:1024ac00708d8000818d80000001be008000eb00eb
:1024bc000e007800e1020700108d8000218d800055
:1024cc000001be00410020000e007800db02070076
:1024dc000e0178008100200020c4b30051070700d2
:1024ec000080fa00000006000800fa00604798001f
:1024fc0010848000218480004808de0000427800af
:10250c0010848000218480004008de008041780027
:10251c0010848000218480004809dd004800de0022
:10252c0000007100c808de000041780010848000b3
:10253c002184800000407800ee409000014f78002c
:10254c00144798002347980032479800404798005a
:10255c000e0178005100200000c5b30031070700c0
:10256c000080fa00000006000400fa001007980032
:10257c001e00900000407800004f78000e0178009b
:10258c001100200020c5b300260707000080fa00c8
:10259c00000006001800fa001084800021848000de
:1025ac000001be008000eb000e007800bc020700aa
:1025bc00d08e8000e18e80000001be004100200022
:1025cc000e0078009d020700108f8000218f800084
:1025dc000001be00810020000e0078009702070069
:1025ec00508f8000618f80000001be00c100200070
:1025fc000e00780091020700f0908000019180009d
:10260c000001be00010120000e0078008b020700c3
:10261c00f0918000019280000001be004101200079
:10262c000e007800850207000e0178008101200061
:10263c0000c6b300fb0607000080fa00000006008d
:10264c000400fa00000f7800110798001e017800b2
:10265c009e00900000c8b300f20607000080fa004c
:10266c00000006002000fa001091800021918000eb
:10267c000001be008000eb000e0078006f02070026
:10268c0010928000219280000001be0041002000c9
:10269c000e00780069020700509180006191800063
:1026ac000001be00810020000e00780063020700cc
:1026bc0050928000619280000001be00c100200099
:1026cc000e0078005d020700f09080000191800000
:1026dc000001be00010120000e0078005702070027
:1026ec00f0918000019280000001be0041012000a9
:1026fc000e0078005102070030918000419180005b
:10270c000001be00810120000e0078004b02070082
:10271c0030928000419280000001be00c101200077
:10272c000e007800450207000e017800010220001f
:10273c0000c9b300bb0607000080fa0000000600c9
:10274c001800fa00708f8000818f80000001be009d
:10275c008000eb000e00780038020700908f80009c
:10276c00a18f80000001be00410020000e00780007
:10277c0032020700b08f8000c18f80000001be00c4
:10278c00810020000e0078002c02070030908000a1
:10279c00419080000001be00c10020000e007800b6
:1027ac002602070050908000619080000001be005e
:1027bc00010120000e0078002002070070908000bc
:1027cc00819080000001be00410120000e007800c5
:1027dc001a0207000e0178008101200010c9b30015
:1027ec00900607000080fa00000006001800fa00ae
:1027fc0090918000a19180000001be008000eb0050
:10280c000e0078000d020700b0918000c19180008d
:10281c000001be00410020000e00780007020700f6
:10282c00d0918000e19180000001be008100200069
:10283c000e0078000102070090928000a1928000a7
:10284c000001be00c10020000e007800fb01070053
:10285c00b0928000c19280000001be0001012000f6
:10286c000e007800f5010700d0928000e192800004
:10287c000001be00410120000e007800ef010700ae
:10288c000e0178008101200020c9b3006506070005
:10289c000080fa00000006001800fa00d08f8000bb
:1028ac00e18f80000001be008000eb000e0078007c
:1028bc00e2010700f08f8000019080000001be0053
:1028cc00410020000e007800dc0107001090800011
:1028dc00219080000001be00810020000e007800d5
:1028ec00d601070090908000a19080000001be00ee
:1028fc00c10020000e007800d0010700b0908000cd
:10290c00c19080000001be00010120000e00780083
:10291c00ca010700d0908000e19080000001be0049
:10292c00410120000e007800c40107000e01780060
:10293c008101200030c9b3003a0607000080fa007c
:10294c00000006000000fa0013e1a90011e1a90043
:10295c001061a8001021a90081088000f0fc2f0054
:10296c00008060000040a000800888000a21ef0071
:10297c000621ef00800920007008880000682900fb
:10298c00600888002142800080ff2f0000806000da
:10299c000000a000204288000108a9002108a8001e
:1029ac0011e1a8000080fa00000006000000fa0007
:1029bc008230ef008430ef0005e1a9000000200018
:1029cc00a1372400060007000421a9000068a90013
:1029dc002068a80005e1a8000080fa0000000600ad
:1029ec000400fa00881f7800008fbe0021088000c8
:1029fc00f0fc2f0000806000200888001e01780089
:102a0c009e0190000068290081c1240013f8070082
:102a1c0018c0b30002f02f00f377240053f807001e
:102a2c000000e00001003c000044eb000804e00062
:102a3c005400320021088000f0fc2f000080600060
:102a4c000040a000200888001e0178009e01900024
:102a5c000068290081c1240000f807000200200052
:102a6c0003102400fdf7070018c0b30002f02f007c
:102a7c00f37724003df807000000e00001003c0063
:102a8c000044eb000804e000320032002108800012
:102a9c00f0fc2f00008060000050a000200888008f
:102aac001e0178009e0190000068290081c124005d
:102abc00eaf707000200200003282400e7f70700cc
:102acc0018c0b30002f02f00f377240027f807009a
:102adc000000e00001003c000044eb000804e000b2
:102aec00100032002108800000032000010070005b
:102afc00200888001e0178009e01900000682900c3
:102b0c0081c12400d5f707000200200003382400ff
:102b1c00d2f7070017f807000000780010088800ab
:102b2c00200037001e0178009e01900000682900eb
:102b3c0081c12400c9f707000200200003282400eb
:102b4c00c6f707000bf80700000078001008880093
:102b5c00140037001e0178009e01900000682900c7
:102b6c0081c12400bdf707000200200003102400df
:102b7c00baf70700fff7070000007800100888007c
:102b8c00080037001e0178009e01900000682900a3
:102b9c0081c12400b1f70700f6f7070000007800a8
:102bac00100888004f0478000080fa00000006002e
:102bbc000000fa001fe1a90000002000811c240085
:102bcc00060007001e21a9000368a9002368a800bd
:102bdc001fe1a8000080fa00000006000400fa00c3
:102bec00881f7800008fbe00f1088000f0fc2f00d9
:102bfc0000806000f00888001e0178009e019000a3
:102c0c000068290081c1240094f7070018c0b300a4
:102c1c0002f02f00f3772400d4f707000000e00047
:102c2c0001003c000044eb000804e00054003200ba
:102c3c00f1088000f0fc2f00008060000040a00034
:102c4c00f00888001e0178009e01900000682900a1
:102c5c0081c1240081f7070002002000031024002a
:102c6c007ef7070018c0b30002f02f00f3772400a2
:102c7c00bef707000000e00001003c000044eb0040
:102c8c000804e00032003200f1088000f0fc2f0054
:102c9c00008060000050a000f00888001e01780041
:102cac009e0190000068290081c124006bf7070089
:102cbc00020020000328240068f7070018c0b300a6
:102ccc0002f02f00f3772400a8f707000000e000c3
:102cdc0001003c000044eb000804e000100032004e
:102cec00f10880000003200001007000f00888004b
:102cfc001e0178009e0190000068290081c124000b
:102d0c0056f70700020020000338240053f7070091
:102d1c0098f7070000007800d008880020003700e2
:102d2c001e0178009e0190000068290081c12400da
:102d3c004af70700020020000328240047f7070089
:102d4c008cf7070000007800d008880014003700ca
:102d5c001e0178009e0190000068290081c12400aa
:102d6c003ef7070002002000031024003bf7070089
:102d7c0080f7070000007800d008880008003700b2
:102d8c001e0178009e0190000068290081c124007a
:102d9c0032f7070077f7070000007800d0088800aa
:102dac004f0478000080fa00000006000400fa00ce
:102dbc00881f7800008fbe0018c0b3006011b800e7
:102dcc001e0078009e00900068f707000000e000ed
:102ddc0001003d000044eb000804e0000300320059
:102dec001e0078009e009000030037001e00780043
:102dfc009e00900001f0a2004f0478000080fa00c1
:102e0c00000006000800fa00881f7800008fbe0042
:102e1c00220798003307980018c0b3002e019000c9
:102e2c00be0190001e0078009e0090004ff7070036
:102e3c000000e00001003c000044eb000804e0004e
:102e4c00030032001e0078009e0090000200370044
:102e5c002e009000be0090004f0478000080fa0015
:102e6c00000006000800fa00881f7800008fbe00e2
:102e7c00220798003307980018c0b3002e01900069
:102e8c00be0190001e0078009e00900035f70700f0
:102e9c000000e000010035000044eb000804e000f5
:102eac00030032001e0078009e00900002003700e4
:102ebc002e009000be0090004f0478000080fa00b5
:102ecc00000006000c00fa00881f7800008fbe007e
:102edc00220798003307980044079800550798007c
:102eec0018c0b3002e019000be0190001e007800a7
:102efc009e0090001bf707000000e0000100350069
:102f0c000044eb000804e000030032002e009000a7
:102f1c00be0090001000370018c0b3004e019000a6
:102f2c00de0190001e0078009e0090000ff7070055
:102f3c000000e00001003c000044eb000804e0004d
:102f4c00030032004e009000de00900002003700bb
:102f5c001e0078009e0090004f0478000080fa005c
:102f6c00000006000800fa002007980031079800be
:102f7c00b2fd2000930424002e009000be009000af
:102f8c0056f60700b2fd2000930c24003af7070018
:102f9c00b2fd20009304240051f60700008fbe0000
:102fac00b2fd2000930424001e0078009e009000c7
:102fbc004bf60700b2fd2000930c24002ef70700ff
:102fcc00b2fd20009304240044f607000080fa00b0
:102fdc00000006000a00fa0030079800410798002c
:102fec00be0090004e009000008f40001e00780044
:102ffc0010017800900190001207980023079800a8
:10300c001e009000ae0090000080fa000000060048
:10301c000600fa0010079800210798009e00900007
:10302c002e009000008f40001e0078009000900051
:10303c00100078000080fa00000006000c00fa0076
:10304c002007980031079800420798005307980012
:10305c0068004700100798000000eb00000f780094
:10306c000a0037003e0090001e004000ae009000a9
:10307c00008040009e0078001e01900081004100fd
:10308c0091407800014878001e0fe8001e0078007f
:10309c00e30f5000f3ff34000080fa00000006003c
:1030ac000c00fa002007980031079800420798009e
:1030bc005307980068004700100798000000eb00c9
:1030cc00000f78000b0037003e0090001e004000ff
:1030dc00ae00900000804000320020009e005100a5
:1030ec001e01900081004100914078000148780059
:1030fc001e0fe8001e007800e30f5000f2ff3400b2
:10310c000080fa00000006000c00fa00200798006e
:10311c003107980042079800530798006800470051
:10312c00100798000000eb00000f78000a00370031
:10313c003e0090001e004000ae0090000080400059
:10314c009e0078001e0190008100410091407800a3
:10315c00014878001e0fe8001e007800e70f5000b1
:10316c00f3ff34000080fa00000006000800fa00ab
:10317c00881f7800300798003e009000301f7800c0
:10318c00201778000000eb0020079800180037008b
:10319c002e0090004200dd00be0090000080400038
:1031ac00900090001000780018c0b3001e01780049
:1031bc009e0190006bf607000000e0000100350056
:1031cc000044eb000804e000060032002e009000e2
:1031dc004200dd00be00900000804000301f7800ef
:1031ec00201778002e0090000000e80020079800bf
:1031fc002e009000e40f5000e5ff34001e00780014
:10320c009e0090004f0478000080fa000000060039
:10321c000000fa00c301a8000080eb00e00e88005b
:10322c000080eb00f00e8800c1e1a8000080fa00dd
:10323c00000006000000fa00c305a8000080eb00a7
:10324c00e02e88000080eb00f02e8800c1e5a8007d
:10325c000080fa00000006000800fa00889fbe00fb
:10326c008a9fbe00808280009182800060828800ec
:10327c0071828800c0828000d1828000a082880088
:10328c00b1828800300e80008000eb00008fbe0001
:10329c00500e80008000eb00c000dd00000020001c
:1032ac001e0f40005e974800302e80008000eb001f
:1032bc002007980031079800502e80008000eb000a
:1032cc00c000dd00000020002e019000be01900027
:1032dc0002004000838048002007980031079800c6
:1032ec001e0078009e0090005ef6070072b320006e
:1032fc009378230004f7070080828800918288006d
:10330c002e009000be00900056f6070072b320000d
:10331c0093782b00fcf60700c0828800d1828800cd
:10332c00848280009582800060828000718280009f
:10333c000001be000400be00f3f60700e082880026
:10334c00f1828800c4828000d5828000a082800037
:10335c00b18280000001be000400be00eaf6070046
:10336c000083880011838800e4828000f58280004d
:10337c0000838000118380000001be000400be00a9
:10338c00e1f6070022972f00f3e82300b3f50700be
:10339c002083880031838800e4828000f5828000dd
:1033ac0000838000118380000001be000400be0079
:1033bc004bf507000200200003002400a7f50700ce
:1033cc004083880051838800e0828000f182800075
:1033dc0002002000a3372400cbf60700308e8800b3
:1033ec00418e880000838000118380000200200041
:1033fc00a3372400c4f60700508e8800618e880025
:10340c00408380005183800002002000a3372400f9
:10341c00bdf60700f09088000191880020838000a1
:10342c003183800002002000a3372400b6f6070089
:10343c00f091880001928800d08e8000e18e80008f
:10344c00b08e8800c18e8800108f8000218f800084
:10345c00f08e8800018f8800508f8000618f800073
:10346c00308f8800418f8800b88e8000c98e800014
:10347c00f09080000191800002002000a33724000e
:10348c0076f507000005be00308f8000418f80006c
:10349c0070f507000001be000a00be009af6070096
:1034ac000001be000800be000df50700d08e88009c
:1034bc00e18e8800f88e8000098f8000f0908000eb
:1034cc000191800002002000a337240063f507005f
:1034dc000005be00308f8000418f800027f7070069
:1034ec000001be000a00be0087f607000001be0006
:1034fc000800be00faf40700108f8800218f8800a6
:10350c00348f8000458f80002083800031838000c1
:10351c000001be000400be00f1f40700508f8800cb
:10352c00618f8800508f8000618f800018c0b300bd
:10353c00b2fd2000930424008cf507000000e0008d
:10354c0001003c000044eb000804e00007003200de
:10355c00508f8000618f8000b2fd2000930c2400fe
:10356c00def40700508f8800618f8800508f800038
:10357c00618f800018c0b300b2fd200093042c00b2
:10358c0078f507000000e000010035000044eb0076
:10359c000804e00007003200508f8000618f80002b
:1035ac00b2fd2000930c2400cdf40700508f88004e
:1035bc00618f88004f05be004f04be000080fa00ea
:1035cc00000006000000fa006022b8006011b8008c
:1035dc006000b800020007000080fa00000006003e
:1035ec000c00fa00008fbe002207980033079800e9
:1035fc0044079800550798001e0178009e01900022
:10360c00d28e8800e38e88002e019000be019000bf
:10361c00128f8800238f88004e019000de019000ed
:10362c00528f8800638f88000080fa00000006002b
:10363c001c00fa00200f9800310f9800420f9800e0
:10364c00530f98006266260063ee23002e0890004c
:10365c00be0890002cf60700008fbe0012ae2700ab
:10366c0043f523004e089000de08900026f6070074
:10367c0020079800310798006000b80040079800b8
:10368c00510798002e019000be0190001e0078009a
:10369c009e009000f1f407006007980071079800f5
:1036ac004e019000de0190001e0078009e009000fc
:1036bc0015f60700000f9800110f98006000b80075
:1036cc00e0808800f18088006000b80000818800ec
:1036dc00118188006000b800208188003181880049
:1036ec000080fa00000006000400fa00889fbe006b
:1036fc00008fbe0040808000518080006080880078
:10370c00718088002080800031808000408088009b
:10371c00518088001e0178009e0190002280880054
:10372c00338088008080800091808000a080880099
:10373c00b18088002480800035808000e08080008b
:10374c00f18080000001be000400be00eef5070011
:10375c000002be00a0808000b18080000001be008d
:10376c000400be005ef407000004be00448080002c
:10377c005580800000818000118180000001be0016
:10378c000400be00e0f507000001be000800be000a
:10379c0053f407000004be00648080007580800034
:1037ac0020818000318180000001be000400be0039
:1037bc00d5f507000001be000800be0048f4070064
:1037cc0080808800918088008080800091808000bb
:1037dc004f04be000080fa00000006001c00fa0036
:1037ec00200f9800310f9800420f9800530f98004b
:1037fc006266260063ee23002e089000be0890003f
:10380c00c1f50700008fbe0012ae270043f5230060
:10381c004e089000de089000bbf5070020079800ca
:10382c00310798006000b8004007980051079800d5
:10383c002e019000be0190001e0078009e009000aa
:10384c0086f4070060079800710798004e019000fd
:10385c00de0190001e0078009e009000aaf5070083
:10386c00000f9800110f98006000b80000828800cb
:10387c00118288006000b8002082880031828800a4
:10388c006000b80040828800518288000080fa00f5
:10389c00000006000400fa00889fbe00008fbe00e6
:1038ac006081800071818000808188009181880016
:1038bc004081800051818000608188007181880086
:1038cc001e0178009e01900042818800538188007f
:1038dc00a0818000b1818000c0818800d1818800e6
:1038ec00448180005581800000828000118280001c
:1038fc000001be000400be0083f507000002be00fc
:10390c00c0818000d18180000001be000400be0097
:10391c00f3f307000004be00448080005580800053
:10392c0020828000318280000001be000400be00b5
:10393c0075f507000001be000800be00e8f30700a3
:10394c000004be008481800095818000408280004c
:10395c00518280000001be000400be006af5070021
:10396c000001be000800be00ddf30700a081880046
:10397c00b181880080808000918080004f04be005f
:10398c000080fa00000006000000fa006000b80099
:10399c00d08f8800e18f88006000b800f08f88001d
:1039ac00019088006000b800109088002190880079
:1039bc006000b80090908800a19088006000b8006a
:1039cc00b0908800c19088006000b800d09088004a
:1039dc00e19088000080fa00000006001000fa0058
:1039ec00889fbe00404f9800514f98007207980076
:1039fc004e4890000080fb0031052000810f5000e4
:103a0c007400320031052000810f50000a003c0088
:103a1c0031042000810f50004b00320011052000b2
:103a2c00810f50005b00320011022000810f50000a
:103a3c0008003200ba00370011062000810f500038
:103a4c006d00320021062000810f5000680032000a
:103a5c00b30037005e489000e24f5000a5003a00da
:103a6c007e009000104078000080fb00e20f5000b8
:103a7c0014003200e30f500022003200e10f50001e
:103a8c009e003a007e0090000000e8001040780094
:103a9c000004a2000080fb000000e9004f00de00e3
:103aac00004078000080fb00610060004a00dd00ef
:103abc002171800001a0a10001007000207188001c
:103acc00200037007e0090000000e80010407800d5
:103adc000004a2000080fb000000e9004f00de00a3
:103aec00004078000080fb00610060004700dd00b2
:103afc00217380000170a100010070002073880008
:103b0c00100037007e0090000000e80010407800a4
:103b1c000004a2000080fb000000e9004f00de0062
:103b2c00004078000080fb00610060004600dd0072
:103b3c00217380000160a1000100700020738800d7
:103b4c0000000000760037005e489000e24f500005
:103b5c006c003a007e009000104078000080fb0062
:103b6c008000eb0042f407000001eb0053f8070063
:103b7c007e0090000000e800104078000080fb0000
:103b8c008000eb003af40700120020004bf807000d
:103b9c00630037005e489000e14f50005b003a0034
:103bac00eff507000000e00004003a007e009000f2
:103bbc0010407800d2f5070059003700c097280054
:103bcc00000178009100200000c8b30095010700a7
:103bdc00530037005e489000e14f50004d003a0012
:103bec007e00900010407800ccf507004c003700a8
:103bfc0074fe07004a0037005e489000e64f500004
:103c0c0046003a006000b800008fbe006000b800ab
:103c1c0020079800310798006000b8004007980012
:103c2c00510798008000eb007e009000e9fc070033
:103c3c000200200003122400b3f407000004be00ad
:103c4c00110020007e009000e2fc07000001be0085
:103c5c000800be0022f30700008fbe0021002000e8
:103c6c007e009000dbfc0700020020000312240001
:103c7c00a5f407000004be00310020007e00900077
:103c8c00d4fc07000001be000800be0014f30700be
:103c9c002007980031079800410020007e0090001a
:103cac00ccfc0700020020000312240096f407004d
:103cbc000004be00510020007e009000c5fc0700ef
:103ccc000001be000800be0005f307004007980085
:103cdc00510798004e029000de0290002e019000d9
:103cec00be0190001e0078009e0090003cfe070074
:103cfc000b00370000000000090037000000000036
:103d0c00070037000000000005003700000000002d
:103d1c000300370000000000010037000000000025
:103d2c005e4890000080fb007e01900080007800cf
:103d3c0000c1b3003b0107004f04be000080fa0035
:103d4c00000006000000fa0021e3a9002143a800ae
:103d5c0001198000f0cf2f0000806000001988004e
:103d6c002043a90001198000000e20000100700002
:103d7c000019880011198000f0ff210000806000fc
:103d8c00101988002343a80011198000f0cf2f00d0
:103d9c0000806000101988001119800030f82f0085
:103dac00008060000040a000101988002203a900c8
:103dbc002223a90025e3a900f0c0b30024e3b70037
:103dcc0021198000f00f2e008080600000f0200090
:103ddc0001007000201988003303a9004feea800e1
:103dec002e0ea8002f6ea8006f2ea8001e2ea80065
:103dfc003063a80030c3a8003163a8002e03a800cc
:103e0c0031e3a8004119800000fc2f000080600005
:103e1c004019880028e3a90001a8a90021a8a8003e
:103e2c0021e3a8000080fa00000006000000fa0060
:103e3c002023a8000080fa00000006000000fa0011
:103e4c00e03521000080fa00000006000000fa00b6
:103e5c0095d0bf000080fa00000006000000fa00b8
:103e6c009570ef000080fa00000006000600fa00d2
:103e7c00f6ff0700e14f500083003a00f7ff070000
:103e8c00eeff0700000f78001e007800100078008d
:103e9c008000eb0076f30700323323003305240057
:103eac0019f407000200200003582400ebf207006d
:103ebc00d2cc2c00c304240013f407001007980084
:103ecc00210798001e019000ae0190000000200018
:103edc0081202400e1f2070002002000030a2400e4
:103eec007ef20700f08d8800018e88001e80e800ad
:103efc00100078008000eb005df3070032332300e4
:103f0c003305240000f407000200200003582400ad
:103f1c00d2f20700d2cc2c00c3042400faf3070021
:103f2c0010079800210798001e019000ae01900028
:103f3c000000200081202400c8f2070002002000ad
:103f4c00030a240065f20700908d8800a18d88007b
:103f5c009e00780064804000100078008000eb0028
:103f6c0043f307003233230033052400e6f3070044
:103f7c000200200003582400b8f20700d2cc2c0019
:103f8c00c3042400e0f307001007980021079800f1
:103f9c001e019000ae019000000020008120240042
:103fac00aef2070002002000030a24004bf20700c7
:103fbc00d08d8800e18d88009e00780068804000dc
:103fcc00100078008000eb0029f307003233230047
:103fdc0033052400ccf30700020020000358240012
:103fec009ef20700d2cc2c00c3042400c6f30700b9
:103ffc0010079800210798001e019000ae01900058
:10400c00000020008120240094f207000200200010
:10401c00030a240031f20700b08d8800c18d88009e
:10402c009e00780066804000100078008000eb0055
:10403c000ff307003233230033052400b2f30700db
:10404c00020020000358240084f20700d2cc2c007c
:10405c00c3042400acf30700100798002107980054
:10406c001e019000ae019000000020008120240071
:10407c007af2070002002000030a240017f207005e
:10408c00108e8800218e88000080fa000000060047
:10409c000e00fa00889fbe00004f98005107980050
:1040ac00620798000f0478000f00780080047800f5
:1040bc005e00900066004000800078008100e900fe
:1040cc00210798000000e8000000e8000000d10083
:1040dc00800040000f007800818747000000e80056
:1040ec000000d10000004000300798003e00900016
:1040fc00ee0190005e0190008e48900018000700c1
:10410c003e009000104f780010002000100798001f
:10411c0008003700be0090001e0090000080400098
:10412c00104078001e4f68001e0090000000e80050
:10413c00100798005e009000e50040001e00900003
:10414c00808f5000f3ff3e001e40780089077800f6
:10415c00880778004f04be000080fa0000000600bb
:10416c000a00fa001007980041479800320798009f
:10417c00430798001e009000e1cfb300014878007f
:10418c001e0090000000e800ce4090008180fb00f3
:10419c00c888de0081407800014878001e0090003d
:1041ac000080e800ce409000014878001e0090008e
:1041bc0063004000be009000c808de00814078001b
:1041cc00014878001e00900064004000be00900082
:1041dc0081407800014878000000eb00000f780067
:1041ec000a0037009e007800658040009e00900019
:1041fc00008040009e0078004e019000810041003c
:10420c0091407800014878001e0fe8009e0078006d
:10421c003e009000808f5000f2ff39000080fa00c1
:10422c00000006000c00fa00889fbe006047980052
:10423c0041079800520798000f0478000f0078008f
:10424c00800478004e0090006600400080007800ea
:10425c008100e900010f78000000e8000000e80090
:10426c000000d100800040000f00780081874700db
:10427c000000e8000000d10000004000100798008a
:10428c001e009000de0190004e019000ee40900068
:10429c00b3ff07005e019000ce0090006e409000ce
:1042ac007bff0700404798004e00900065004000df
:1042bc009e00900000804000ce40900001487800a5
:1042cc004e00900066004000800078001e009000b8
:1042dc000500070089077800880778004f04be00a6
:1042ec000080fa00000006000600fa001007980093
:1042fc00210798000040eb00004f78006b0007008e
:10430c00ae009000810f5000110034000040eb0013
:10431c00004f7800060037001e80fb009e009000c6
:10432c0000804000104078000b0007001e4fe80092
:10433c009e80fb002e009000808f5000f6ff350011
:10434c00470007000004e00001003a002c000700c1
:10435c000080fa00000006000200fa00004f78000e
:10436c00520007000000e0000d003200e0838000e6
:10437c00e12d2100008040001e487800e183800080
:10438c00e0072000808f5000020034007c30ef00ea
:10439c0003003700e08380000000e800e083880021
:1043ac000080fa00000006000200fa000040eb005a
:1043bc00004f78003d0007000000e0000d003400c5
:1043cc00f0838000e12d210000804000104f780028
:1043dc00f1838000e0072000808f50000200340041
:1043ec007e30ef0003003700f08380000000e8000f
:1043fc00f08388001e4078000080fa000000060060
:10440c000200fa0010c0b30080f0b700e6ff07000e
:10441c00004f78001e80fb00201188002171800065
:10442c00004020000080600000f0a7000000ea00bf
:10443c000000e9004f00de00004078000080fb0027
:10444c00610060004a00dd002171800001a0a10024
:10445c0001007000207188000080fa000000060046
:10446c000000fa0080d0bf000080fa0000000600b7
:10447c000000fa00e1838000f0838000808f500000
:10448c0004003500e1838000f08380000080500040
:10449c0004003700e1838000f0838000008050002e
:1044ac00f007b0000080fa00000006000000fa00df
:1044bc00efff070001082000008050000080fa0088
:1044cc00000006000400fa0020479800908380004a
:1044dc00e30f500023003200e30f500005003e00b4
:1044ec00e10f500013003200e10f500015003e00a8
:1044fc0007003700e50f500035003200e50f500083
:10450c001f003900e60f5000400032005000370009
:10451c002e409000e24f400050003a006c70ef00cb
:10452c006e30ef007030ef00100020009083880098
:10453c004d0037006c70ef00200020009083880045
:10454c0049003700c1062100914078002e409000b0
:10455c0000c040006cf0b700300020009083880051
:10456c00410037002e4090000080fb004800dd0029
:10457c007083880040002000908388003a00370048
:10458c002e4090008080fb007083800000804000f3
:10459c007083880071838000f00f2000808f5000a2
:1045ac0009003e00708380000000e0000300320030
:1045bc0050002000908388002b0037006000200002
:1045cc0090838800280037007230ef0026003700f7
:1045dc00808380008109210000804000ae40900063
:1045ec0001487800808380000000e8008083880008
:1045fc008183800070838000808f50001900390007
:10460c00600020009083880017003700ae409000b7
:10461c00014f7800718380006cd0bf0082092100ab
:10462c009bfe0700104798001e4090009e4f5000c4
:10463c0005003a0070838000804078006cd0bf0089
:10464c0082092100e5fc07007230ef0006003700fc
:10465c007230ef0000000000030037000000000083
:10466c0001003700000000000080fa000000060086
:10467c000200fa00004f7800260007000000e0005e
:10468c000d00340040848000e125210000804000b2
:10469c001e48780041848000e0072000808f500085
:1046ac00020034008830ef000300370040848000a3
:1046bc000000e800408488000080fa00000006003a
:1046cc000200fa0050848000e125210000804000a7
:1046dc00104f78005184800040848000808f5000ff
:1046ec000900320051848000f0072000808f5000b8
:1046fc0002003a008a30ef0003003700508480003b
:10470c000000e800508488001e4078000080fa0009
:10471c00000006000000fa004184800050848000f4
:10472c00808f50000500340051848000408480004c
:10473c0000805000f007b000040037004184800076
:10474c005084800000805000f007b0000080fa0018
:10475c00000006000000fa00eeff07000108200030
:0c476c00008050000080fa0000000600f1
:020000040000fa
:104778009810000000010000800000006c1000008c
:1047880008000000800000005e12000080000000a9
:104798008000000088100000040000008000000075
:1047a800de12000080000000800000007c10000085
:1047b80006000000800000008210000006000000d3
:1047c8008000000098110000c60000008000000072
:1047d8008c1000000400000082000000000020008f
:1047e800410000005e1300000a0000008000000085
:1047f8009410000002000000800000004c1000002f
:10480800200000008000000090100000040000005c
:104818008200000001000100000000007410000088
:104828000800000080000000001000004c0000009c
:1048380080000000961000000200000080000000c8
:04484800000000006c
:020000040000fa
:10484c000000fa002002a9000111800090ff2f0047
:10485c00008060000011880020a2a9002062a8003e
:10486c00500520004011880023a2a90023e2a900d2
:10487c000188a9002188a80011118000f0f32f00f5
:10488c0000806000101188000168a9002168a80050
:10489c0021e2a8002342a8000080fa0000000600d4
:1048ac000600fa0010079800210798000040eb0062
:1048bc00004f78000040eb00004f78000e003700ee
:1048cc00000000001111800000202000008060001a
:1048dc000000e000fbff3a001e0090001040780042
:1048ec000080fb00201188001e0090000000e800f2
:1048fc00100798001e4fe8009e80fb002e009000d1
:10490c00808f5000eeff35000080fa00000006009a
:10491c000000fa000e2eef001e2eef002e2eef00e0
:10492c003e2eef004e2eef005e2eef006e2eef00af
:10493c00214ea90060cea90060eea90011cea900fd
:10494c0011eea90020cea90020eea900213680008e
:10495c0000f82f00008060008001b3002036880032
:10496c001134800000fc2f00008060000000a000cb
:10497c00103488000136800000f82f008080600021
:10498c0010062000010070000036880001368000ff
:10499c00f00f2800808060000000260001007000ed
:1049ac0000368800e135800000f82f008080600020
:1049bc006004200001007000e0358800e1358000c3
:1049cc00f00f28008080600000502400010070006f
:1049dc00e03588000080fa00000006000200fa00b2
:1049ec00881f780028000700c9ff070064cea900c3
:1049fc0064eea900254ea900ecf707006cf807003f
:104a0c0092f40700cffc07008dff070000fa0700a7
:104a1c0008fa0700ebfa07000040eb00004f7800a3
:104a2c001400370026ff0700104798001e40900026
:104a3c00a4fe0700217380000008200000806000a5
:104a4c0000f0a7000000ea000000e9004f00de00c3
:104a5c00004078000080fb00610060004700dd0032
:104a6c00217380000170a100010070002073880088
:104a7c001e4fe8001e84fb0036ff0700800f540019
:104a8c00e8ff3500e4ff37000000fa00f0032000d7
:104a9c00303a8800213a8000f0f32f00008060004b
:104aac00203a8800213a800000fe2f000080600030
:104abc000000a000203a880012002000800720008f
:104acc00a1092000337420008049780081497800c6
:104adc0082497800103a8000000178000200a000a2
:104aec0060042000710520002374200080497800a8
:104afc00814978008249780000000000113a80005a
:104b0c00000027008080600000002100808f500092
:104b1c00faff3a0000000000113a80000002200069
:104b2c00008060000000e000fbff32000080fa0013
:044b3c00000006006f
:020000040000fa
:02000004000af0
:04afe000cfff00009f
:020000040000fa
:02000004000af0
:04afe400ffff00006b
:020000040000fa
:02000004000af0
:04afe8007fff0000e7
:020000040000fa
:02000004000af0
:04afec005fff000003
:020000040000fa
:02000004000af0
:04aff00038ff000026
:020000040000fa
:02000004000af0
:04aff400ffffff005c
:00000001FF
