:020000040000fa
:080000000002040000000000f2
:020000040000fa
:040008007003000081
:020000040000fa
:04000c00700300007d
:020000040000fa
:040010007003000079
:020000040000fa
:040014007003000075
:020000040000fa
:040018007003000071
:020000040000fa
:04001c00700300006d
:020000040000fa
:040020007003000069
:020000040000fa
:040024007003000065
:020000040000fa
:040028007003000061
:020000040000fa
:04002c00700300005d
:020000040000fa
:040030007003000059
:020000040000fa
:0400340002030000c3
:020000040000fa
:040038007003000051
:020000040000fa
:04003c00700300004d
:020000040000fa
:040040007003000049
:020000040000fa
:040044007003000045
:020000040000fa
:04004800fa020000b8
:020000040000fa
:04004c00700300003d
:020000040000fa
:040050007003000039
:020000040000fa
:040054007003000035
:020000040000fa
:040058007003000031
:020000040000fa
:04005c004c03000051
:020000040000fa
:040060007003000029
:020000040000fa
:040064007003000025
:020000040000fa
:040068007003000021
:020000040000fa
:04006c00700300001d
:020000040000fa
:040070007003000019
:020000040000fa
:040074007003000015
:020000040000fa
:040078007003000011
:020000040000fa
:04007c00700300000d
:020000040000fa
:040080007003000009
:020000040000fa
:040084007003000005
:020000040000fa
:040088007003000001
:020000040000fa
:04008c0070030000fd
:020000040000fa
:0400900070030000f9
:020000040000fa
:040094002203000043
:020000040000fa
:0400980070030000f1
:020000040000fa
:04009c0070030000ed
:020000040000fa
:0400a00070030000e9
:020000040000fa
:0400a40070030000e5
:020000040000fa
:0400a80070030000e1
:020000040000fa
:0400ac0070030000dd
:020000040000fa
:0400b00070030000d9
:020000040000fa
:0400b40070030000d5
:020000040000fa
:0400b80070030000d1
:020000040000fa
:0400bc0070030000cd
:020000040000fa
:0400c00070030000c9
:020000040000fa
:0400c40070030000c5
:020000040000fa
:0400c80070030000c1
:020000040000fa
:0400cc0070030000bd
:020000040000fa
:0400d00070030000b9
:020000040000fa
:0400d40070030000b5
:020000040000fa
:0400d80070030000b1
:020000040000fa
:0400dc0070030000ad
:020000040000fa
:0400e00070030000a9
:020000040000fa
:0400e40070030000a5
:020000040000fa
:0400e80070030000a1
:020000040000fa
:0400ec00700300009d
:020000040000fa
:0400f0007003000099
:020000040000fa
:0400f4007003000095
:020000040000fa
:0400f8007003000091
:020000040000fa
:0400fc00700300008d
:020000040000fa
:040100007003000088
:020000040000fa
:040104007003000084
:020000040000fa
:040108007003000080
:020000040000fa
:04010c00700300007c
:020000040000fa
:040110007003000078
:020000040000fa
:040114007003000074
:020000040000fa
:040118007003000070
:020000040000fa
:04011c00700300006c
:020000040000fa
:040120007003000068
:020000040000fa
:040124007003000064
:020000040000fa
:040128007003000060
:020000040000fa
:04012c00700300005c
:020000040000fa
:040130007003000058
:020000040000fa
:040134007003000054
:020000040000fa
:040138007003000050
:020000040000fa
:04013c00700300004c
:020000040000fa
:040140007003000048
:020000040000fa
:040144007003000044
:020000040000fa
:040148007003000040
:020000040000fa
:04014c00700300003c
:020000040000fa
:040150007003000038
:020000040000fa
:040154007003000034
:020000040000fa
:040158007003000030
:020000040000fa
:04015c00700300002c
:020000040000fa
:040160007003000028
:020000040000fa
:040164007003000024
:020000040000fa
:040168007003000020
:020000040000fa
:04016c00700300001c
:020000040000fa
:040170007003000018
:020000040000fa
:040174007003000014
:020000040000fa
:040178007003000010
:020000040000fa
:04017c00700300000c
:020000040000fa
:040180007003000008
:020000040000fa
:040184007003000004
:020000040000fa
:040188007003000000
:020000040000fa
:04018c0070030000fc
:020000040000fa
:0401900070030000f8
:020000040000fa
:0401940070030000f4
:020000040000fa
:0401980070030000f0
:020000040000fa
:04019c0070030000ec
:020000040000fa
:0401a00070030000e8
:020000040000fa
:0401a40070030000e4
:020000040000fa
:0401a80070030000e0
:020000040000fa
:0401ac0070030000dc
:020000040000fa
:0401b00070030000d8
:020000040000fa
:0401b40070030000d4
:020000040000fa
:0401b80070030000d0
:020000040000fa
:0401bc0070030000cc
:020000040000fa
:0401c00070030000c8
:020000040000fa
:0401c40070030000c4
:020000040000fa
:0401c80070030000c0
:020000040000fa
:0401cc0070030000bc
:020000040000fa
:0401d00070030000b8
:020000040000fa
:0401d40070030000b4
:020000040000fa
:0401d80070030000b0
:020000040000fa
:0401dc0070030000ac
:020000040000fa
:0401e00070030000a8
:020000040000fa
:0401e40070030000a4
:020000040000fa
:0401e80070030000a0
:020000040000fa
:0401ec00700300009c
:020000040000fa
:0401f0007003000098
:020000040000fa
:0401f4007003000094
:020000040000fa
:0401f8007003000090
:020000040000fa
:0401fc00700300008c
:020000040000fa
:040200007003000087
:020000040000fa
:040204007003000083
:020000040000fa
:04020800700300007f
:020000040000fa
:04020c00700300007b
:020000040000fa
:040210007003000077
:020000040000fa
:040214007003000073
:020000040000fa
:04021800700300006f
:020000040000fa
:04021c00700300006b
:020000040000fa
:040220007003000067
:020000040000fa
:040224007003000063
:020000040000fa
:04022800700300005f
:020000040000fa
:04022c00700300005b
:020000040000fa
:040230007003000057
:020000040000fa
:040234007003000053
:020000040000fa
:04023800700300004f
:020000040000fa
:04023c00700300004b
:020000040000fa
:040240007003000047
:020000040000fa
:040244007003000043
:020000040000fa
:04024800700300003f
:020000040000fa
:04024c00700300003b
:020000040000fa
:040250007003000037
:020000040000fa
:040254007003000033
:020000040000fa
:04025800700300002f
:020000040000fa
:04025c00700300002b
:020000040000fa
:040260007003000027
:020000040000fa
:040264007003000023
:020000040000fa
:04026800700300001f
:020000040000fa
:04026c00700300001b
:020000040000fa
:040270007003000017
:020000040000fa
:040274007003000013
:020000040000fa
:04027800700300000f
:020000040000fa
:04027c00700300000b
:020000040000fa
:040280007003000007
:020000040000fa
:10040000cf0321000eff2c000e0188000000000029
:10041000000020000000e000020032000001200087
:100420002002880014000700af0007000000e00071
:1004300003003a00c0032100010020000200370041
:100440000000200001002000810f70000100320038
:100450000f000700000020000000e0000200320052
:100460000000020000000000dc06020000000000a6
:100470000040da000000fe00200020000000e00044
:1004800002003200100020009001880000000600e9
:10049000a1028800800478000000eb001f003700f4
:1004a000e284440054a0b4009905ba00e2844400f8
:1004b00054a0b4009906ba00e284440054a0b400e9
:1004c0000006eb00476fde00fd07b200ae018800ba
:1004d000636ce10003003a000ad801000000eb0061
:1004e0000e003700606ce10008003a00004deb00a0
:1004f0000a05e800020039003420ec000af0a000f0
:100500008b05e900f9ff3e00040037006168e10057
:10051000010032000086eb000b00070019c7ba008b
:100520000e04e0001905ba0003003a000a00e000da
:10053000dbff3a0000000600fe07b200ae028800b2
:100540008a047800f5ff37000cd0a300e20f4d00bd
:100550001c00390089027800354dba000a05e80010
:10056000020039003420ec000af0a0008b05e900fd
:100570000f003200254dba000a05e80002003900dc
:100580003420ec000af0a0008b05e90008003200de
:100590000c00e0000600320015cdba000a05e800a4
:1005a000020039003420ec000af0a0008b05e900bd
:1005b0008984e80054a0b4000b00e000e2ff3a0098
:1005c000000006009902ba00055d78008b05e9007d
:1005d000f7ff3200c82ade00055d78008b05e900d0
:1005e000f3ff32000c00e000f1ff320019ddba0029
:1005f000eeff37000000fa000108a9000080fa00b1
:10060000004006003600f800809fbe00829fbe00ba
:10061000849fbe00869fbe000000fa000068a9000b
:100620005a0607000f0507000080fa004f03be00be
:100630004f02be004f01be004f00be003600f90061
:10064000004006003600f800809fbe00829fbe007a
:10065000849fbe00869fbe000000fa000368a900c8
:10066000008080001180800061004000e080480030
:100670000080880011808800b10207000080fa0025
:100680004f03be004f02be004f01be004f00be0030
:100690003600f90000400600801f78000000fa00d4
:1006a00001a8a9000018800090818800101880001f
:1006b000a081880020188000b08188003018800058
:1006c000c081880040188000d081880010c0b3002d
:1006d0000bf0b7000080fa004f00780000400600e1
:1006e0000040da000000fe000000050003f0a20058
:1006f000889fbe008a9fbe008c1f780018010700eb
:100700001f0133006450e1004f0032006420e1001b
:100710005200320003826c0007003b000905d00044
:100720000306d000820f54000c065d000200390061
:1007300002003200890178000306780085825500a6
:1007400004003d000003fd008103fd008502ea0076
:100750008b854200840f720002003b006000100095
:10076000e08018006011b8000005eb007a28e10075
:100770000a00390006007800c75ddd00f707b20007
:10078000878075002d003700828171000a01780092
:10079000610560008180d1000080d3008502e900fe
:1007a000f9ff3b00060440008784480002003b003c
:1007b00060041400e0841c000988a30007003200d4
:1007c0008a81710082817100610164008904d10015
:1007d0000884d3008b05e800170037000978a300d0
:1007e00013003a000b00e000130034008b05e90011
:1007f0000804440089844c000a4474000978a3006a
:100800000d003a000b00e000070034008b05e90002
:100810000804440089844c0001003a000b002000c9
:100820000978a300f7ff32000001eb000200370057
:10083000828171000a0178008e0007000cf0a70089
:1008400001f0a000d70037006420e10002003a0068
:10085000838f6c00d70033000801be000200be0089
:10086000d0003700889fbe008a9fbe008c1f780092
:10087000bb000700c200330003866c006450e10037
:100880002e0032006420e100330032006150e100ac
:100890002f0032006120e1003100320085855500d3
:1008a000eb07b00009002000080420000500370015
:1008b0000804440089844c000a0031000603430008
:1008c00087834b000001530081815b00f8ff3300f8
:1008d0000203be000800a0000804440089844c0004
:1008e000f6ff3900c639dd008301730001003200d4
:1008f000130020008904d1000884d3000998a300c4
:10090000050032000800a7000300a0008904d10000
:100910000884d3008b05e8008904d1000884d30043
:100920000001eb000281d2005200070001f0a1009b
:100930000cf0a70001f0a0009a0037006420e1004d
:100940009c0032000801be000200be00f7ff370025
:100950006120e100970032006000b800f3ff37002b
:100960000000200001f82700f0ff370014002000ed
:10097000c7003700f4ff2f00c50037000001be009c
:10098000620007000470a70003f0a1006509b10030
:10099000160032000d0035006828e1000600350021
:1009a000f0ff2f00f1ff27000300e00013003b00e1
:1009b0000100280000000500000040008180480080
:1009c0008502e900fcff3a0008003700f88f42007a
:1009d00002003c008000eb00000005008100d10017
:1009e0000080d3008502e800fcff3a000300e0002d
:1009f00002003b0060001000e080180000000600cc
:100a00000001be00410007000470a70003f0a10030
:100a100003f8a30013003a006509b100100032008a
:100a2000090035006928e1000200350001002800b6
:100a30000000050000004000818048008502e900b8
:100a4000fcff3a0000000600f88f42000500350068
:100a50008100d1000080d3008502e800fcff3a004d
:100a6000000006008000eb00000005006011b800e7
:100a7000a200370081002000618055000b003d007e
:100a80000b00200061fe2f000100e1001d0034007a
:100a900082817100610164008904d1000884d3005f
:100aa0000000e800faff3a007100200061006400d5
:100ab000030070000200600009003200610444007d
:100ac000e0844c000988a500050032008b05e80091
:100ad0006808e10002003a008904d1000884d300cc
:100ae000f20f20000258e10005003d00c75ddd0067
:100af000f907b20089807500080078000000060040
:100b00000bf827008b00780000000500c70ade0004
:100b1000f107b200f50fb20008003200e1cf420049
:100b2000020032000170a00024000500810f700057
:100b3000010032000408050044000500810f700028
:100b400002003a00140005008502e90000004000a0
:100b500081c04800fcff3b000170a000240005009c
:100b60000004be00e9ff07000003be000405be004c
:100b70000200be00e5ff0700844f7500000006007c
:100b80000200be006450e100050036006420e10070
:100b9000020036000968a30001003a000800be0008
:100ba0000160a0004f0678004f05be004f04be0054
:100bb00000000600f0ff2f00f1ff2700f9ff3700cb
:100bc000889fbe008a9fbe008c1f7800e4ff07004c
:100bd000ebff330003866c006450e1002400320018
:100be0006420e100270032006150e1002200320061
:100bf0006120e100210032008b854200eb07b1004b
:100c00000134b800003ab8000804420089844a0060
:100c1000013ab8000030b8008880400009014a005d
:100c200004003300000040008180480002014900b8
:100c30008b05e900c909dd00830170000100320065
:100c400013002000c814de004814dd004709de0050
:100c50001200b200c808de000884700085ff07009b
:100c600001f0a1000cf0a70001f0a000cdff3700bb
:100c70006120e100cfff32000801be000200be008b
:100c8000f7ff37006150e100fcff3a00c9ff370071
:100c9000889fbe008a9fbe00841f7800b0ff0700b7
:100ca0004f00780011003300f0ff2f00838f6c009d
:100cb00006003b00040565000a00a7000800370095
:100cc00009f0a6001000200008003700820f540031
:100cd000838f5c00030039001000200001003e00fb
:100ce0000000200009f0a7000000ea004f05be0048
:100cf0004f04be000000e00000000600889fbe0018
:100d00008a9fbe000082700004027100048271009c
:100d1000260032000004be000200be006011b800d0
:100d20006b092000950220000182cf000a003900e3
:100d30000541b1000082cf00070039000541b10034
:100d40000982cf00040039000541b1000882cf00bc
:100d5000010039000541b100054252001200320085
:100d60000a003b0082817100610164008100d100b2
:100d70000080d3008984d3000884d3008b05e80069
:100d80000442e800f7ff3a00070037000804440077
:100d900089844c0000004800818048008b05e900f0
:100da0000442e900f9ff3a0032ff07004f05be0098
:080db0004f04be000000060024
:020000040000fa
:100db8000800fa00881f780082040700c1040700b1
:100dc80064cea90064eea900254ea900e901070038
:100dd80000002000812424000002070000002000f9
:100de800a147240076020700ee0207002b04070043
:100df80001003700000000006a040700e14f5000be
:100e0800fcff3a006b04070062040700000f78003b
:100e180060040700100798001e009000100078007a
:100e28008000eb000fff0700323323003305240056
:100e380061ff0700020020000358240087fe070016
:100e4800d2cc2c00c30424005bff070020079800c5
:100e5800310798002e019000be019000000020008c
:100e6800812024007dfe070002002000030a2400e0
:100e78001cfe070050818800618188005081800035
:100e88006181800018c0b300020020000312240012
:100e9800b4fe07000000e000010035000044eb004c
:100ea8000804e00002003200254ea80001003700c7
:100eb800254ea9001e0090000080e8001000780070
:100ec8008000eb00e7fe07003233230033052400df
:100ed80039ff070002002000035824005ffe0700c6
:100ee800d2cc2c00c304240033ff0700200798004d
:100ef800310798002e019000be01900000002000ec
:100f08008120240055fe070002002000030a240067
:100f1800f4fd0700f080880001818800f0808000df
:100f28000181800018c0b3000200200003122400d1
:100f38008cfe07000000e000010035000044eb00d3
:100f48000804e00002003200254ea8000100370026
:100f5800254ea9001e009000640040001000780093
:100f68008000eb00bffe0700323323003305240066
:100f780011ff0700020020000358240037fe070075
:100f8800d2cc2c00c30424000bff070020079800d4
:100f9800310798002e019000be019000000020004b
:100fa800812024002dfe070002002000030a2400ef
:100fb800ccfd0700308188004181880030818000a5
:100fc8004181800018c0b3000200200003122400f1
:100fd80064fe07000000e000010035000044eb005b
:100fe8000804e0000200320064eea80001003700a7
:100ff80064eea9001e009000680040001000780010
:101008008000eb0097fe07003233230033052400ed
:10101800e9fe070002002000035824000ffe070025
:10102800d2cc2c00c3042400e3fe0700200798005c
:10103800310798002e019000be01900000002000aa
:101048008120240005fe070002002000030a240076
:10105800a4fd07001081880021818800108180008c
:101068002181800018c0b300020020000312240070
:101078003cfe07000000e000010035000044eb00e2
:101088000804e0000200320064cea8000100370026
:1010980064cea9001e009000660040001000780091
:1010a8008000eb006ffe0700323323003305240075
:1010b800c1fe07000200200003582400e7fd0700d6
:1010c800d2cc2c00c3042400bbfe070020079800e4
:1010d800310798002e019000be019000000020000a
:1010e80081202400ddfd070002002000030a2400ff
:1010f8007cfd0700708188008181880070818000f4
:101108008181800018c0b30002002000032724005a
:1011180014fe07000000e000010035000044eb0069
:101128000804e0000200320064cea80032ff370055
:1011380064cea90030ff37000000fa0008d0bf00d5
:101148000080fb00cf80de00b200200003002000fa
:10115800820f5000838f580060003e000006010097
:101168000b003700140037001d0037002700370038
:101178002800370031003700320037003b003700c5
:101188003c00370046003700470037005100370061
:101198000030ef000230ef000001eb006000b80003
:1011a8001c020700120020006000b80019020700a6
:1011b80010c0b30008f0b7000280800013808000e0
:1011c800803e200001002000800f5100818f5900cf
:1011d8004500360020c0b30008f0b70043003700d0
:1011e8000001eb000000200001182400090207009c
:1011f800120020000000200001172400050207004b
:1012080030c0b30008f0b7003800370039000700d5
:10121800360037000001eb00000020000117240011
:10122800fc010700120020006000b800f901070067
:1012380050c0b30008f0b7002c0037002d0007009d
:101248002a0037000001eb006000b800f101070038
:10125800120020000000200001172400ed01070003
:1012680070c0b30008f0b700200037002100070065
:101278001e0037000001eb000000200001172400c9
:10128800e4010700120020000000200001172c00d4
:10129800e001070090c0b30008f0b7001300370062
:1012a80014000700110037000001eb0000002000c7
:1012b80001172c00d70107001200200000002000b1
:1012c80001172400d3010700b0c0b30008f0b7002d
:1012d8000600370007000700040037000870ef0019
:1012e8000000000001003700000000000080fa0044
:1012f800000006000200fa00881f78000040eb009a
:10130800004f7800f08080000181800018c0b30091
:1013180002002000031f240092fd07000000e000e7
:10132800010035000044eb000804e0001900320019
:10133800308180004181800018c0b3000200200085
:10134800031a240089fd07000000e00001003c00aa
:101358000044eb000804e0000e0032001081800019
:101368002181800018c0b30002002000031f240060
:101378007efd07000000e00001003c000044eb0097
:101388000804e0000300320020c0b300004f7800da
:1013980055003700f08080000181800018c0b3003c
:1013a80002002000031f240070fd07000000e00079
:1013b80001003c000044eb000804e0001900320082
:1013c800308180004181800018c0b30002002000f5
:1013d800031a240065fd07000000e00001003c003e
:1013e8000044eb000804e0000e0032001081800089
:1013f8002181800018c0b30002002000031f2400d0
:1014080058fd07000000e000010035000044eb0033
:101418000804e0000300320010c0b300004f780059
:1014280031003700308180004181800018c0b3004e
:1014380002002000031a24004afd07000000e00013
:10144800010035000044eb000804e000030032000e
:1014580030c0b300004f780023003700f0808000d0
:101468000181800018c0b30002002000031f24007f
:101478003efd07000000e00001003c000044eb00d6
:101488000804e000180032003081800041818000ab
:1014980018c0b30002002000031a240033fd07001f
:1014a8000000e00001003c000044eb000804e000fc
:1014b8000d003200108180002181800018c0b30027
:1014c80002002000031f240028fd07000000e000a0
:1014d80001003c000044eb000804e0000200320078
:1014e8000040eb00004f78001e4078000004e00048
:1014f80003003a0020c0b30009f0b700110037001c
:101508001e407800e24f500003003a0040c0b3008c
:1015180009f0b7000b0037001e407800e14f50007b
:1015280003003a0060c0b30009f0b70005003700b7
:101538001e407800e34f500002003a00a0c0b300fc
:1015480009f0b70009d0bf008080fb0008d0bf00b9
:101558000080fb000000e900808f5000020032008c
:1015680009d0bf0008f0b7004f0478000080fa00e7
:10157800000006000000fa0013e1a90011e1a9002b
:101588001061a8001021a90081088000f0fc2f003c
:10159800008060000040a000800888000a21ef0059
:1015a8000621ef00800920007008880000682900e3
:1015b800600888002142800080ff2f0000806000c2
:1015c8000000a000204288000108a9002108a80006
:1015d80011e1a8000080fa00000006000400fa00eb
:1015e800881f7800008fbe0005e1a900210880004f
:1015f800f0fc2f0000806000200888001e017800a1
:101608009e0190000068290081c1240093fc070016
:1016180018c0b30002f02f00f3772400d3fc0700b2
:101628000000e00001003c000044eb000804e0007a
:101638005400320021088000f0fc2f000080600078
:101648000040a000200888001e0178009e0190003c
:101658000068290081c1240080fc070002002000e6
:10166800031024007dfc070018c0b30002f02f000f
:10167800f3772400bdfc07000000e00001003c00f7
:101688000044eb000804e00032003200210880002a
:10169800f0fc2f00008060000050a00020088800a7
:1016a8001e0178009e0190000068290081c1240075
:1016b8006afc0700020020000328240067fc0700da
:1016c80018c0b30002f02f00f3772400a7fc07002e
:1016d8000000e00001003c000044eb000804e000ca
:1016e8001000320021088000000320000100700073
:1016f800200888001e0178009e01900000682900db
:1017080081c1240055fc0700020020000338240092
:1017180052fc070097fc07000000780010088800ba
:10172800200037001e0178009e0190000068290003
:1017380081c1240049fc070002002000032824007e
:1017480046fc07008bfc07000000780010088800a2
:10175800140037001e0178009e01900000682900df
:1017680081c124003dfc0700020020000310240072
:101778003afc07007ffc070000007800100888008a
:10178800080037001e0178009e01900000682900bb
:1017980081c1240031fc070076fc070000007800b6
:1017a800100888000421a9000068a9002068a80082
:1017b80005e1a8004f0478000080fa000000060048
:1017c8000400fa00881f7800008fbe001fe1a900fe
:1017d800f1088000f0fc2f0000806000f00888000d
:1017e8001e0178009e0190000068290081c1240034
:1017f8001afc070018c0b30002f02f00f37724008a
:101808005afc07000000e00001003c000044eb0027
:101818000804e00054003200f1088000f0fc2f00ba
:10182800008060000040a000f00888001e017800d9
:101838009e0190000068290081c1240007fc070070
:10184800020020000310240004fc070018c0b300a5
:1018580002f02f00f377240044fc07000000e000aa
:1018680001003c000044eb000804e00032003200b4
:10187800f1088000f0fc2f00008060000050a000fc
:10188800f00888001e0178009e0190000068290079
:1018980081c12400f1fb0700020020000328240076
:1018a800eefb070018c0b30002f02f00f377240006
:1018b8002efc07000000e00001003c000044eb00a3
:1018c8000804e00010003200f10880000003200046
:1018d80001007000f00888001e0178009e01900049
:1018e8000068290081c12400dcfb070002002000f9
:1018f80003382400d9fb07001efc0700000078000d
:10190800d0088800200037001e0178009e01900052
:101918000068290081c12400d0fb070002002000d4
:1019280003282400cdfb070012fc07000000780004
:10193800d0088800140037001e0178009e0190002e
:101948000068290081c12400c4fb070002002000b0
:1019580003102400c1fb070006fc07000000780004
:10196800d0088800080037001e0178009e0190000a
:101978000068290081c12400b8fb0700fdfb0700af
:1019880000007800d00888001e21a9000368a9007b
:101998002368a8001fe1a8004f0478000080fa001f
:1019a800000006000000fa001160800080ff2f0090
:1019b800008060001060880000fa20002060880025
:1019c80023aca800238ca80011618000f03f2f00f1
:1019d8000080600000a0a000106188003000200096
:1019e80020618800c3aca800c38ca80011668000e1
:1019f800f03f2f000080600000a0a0001066880063
:101a0800300020002066880001eca8000080fa0061
:101a1800000006000600fa00008fbe0022079800aa
:101a28002e0090000000e00006003a001e0078003a
:101a38009e00900001f0a200b0808800c18088005c
:101a4800040037001e0178009e0190007280880013
:101a5800838088000080fa00000006000000fa0079
:101a6800889fbe00d4808000e5808000b080800020
:101a7800c180800018c0b3000001be000400be0091
:101a8800b8fb07000000e000010035000044eb004f
:101a98000804e0000d003200b8808000c980800092
:101aa800d4808000e5808000208080003180800024
:101ab8000001be000400be000bfb07000801be00c9
:101ac800b5000700d0808800e1808800d4808000bd
:101ad800e5808000b0808000c180800018c0b3001d
:101ae8000001be000400be00a0fb07000000e000eb
:101af80001003c000044eb000804e0000d00320047
:101b0800b8808000c9808000d4808000e580800093
:101b180020808000318080000001be000400be00eb
:101b2800f0fa07000801be0083000700d080880093
:101b3800e1808800d0808000e180800018c0b30078
:101b48006011b80089fb07000000e00001003d00bb
:101b58000044eb000804e00004003200c3cca900f4
:101b680024eea800c3eca80003003700c3eca900ca
:101b780024cea800c3cca800d0808000e1808000db
:101b88005700070002002000032224000afc070077
:101b980099fb070000007800306688009480800078
:101ba800a5808000708080008180800018c0b3000c
:101bb8000001be000400be006afb07000000e00050
:101bc800010035000044eb000804e0000d0032007d
:101bd800788080008980800094808000a5808000c3
:101be80020808000318080000001be000400be001b
:101bf800bdfa07000801be00670007009080880052
:101c0800a180880094808000a5808000708080007a
:101c18008180800018c0b3000001be000400be002f
:101c280052fb07000000e00001003c000044eb000c
:101c38000804e0000d003200788080008980800070
:101c480094808000a5808000208080003180800002
:101c58000001be000400be00a2fa07000801be0091
:101c68003500070090808800a1808800908080005f
:101c7800a180800018c0b3006011b8003bfb0700ca
:101c88000000e00001003d000044eb000804e00013
:101c98000400320023cca90015eea80023eca8000c
:101ca8000300370023eca90015cea80023cca80018
:101cb80090808000a18080000900070002002000b9
:101cc80003222400bcfb07004bfb07000000780040
:101cd800306188004f04be000080fa000000060052
:101ce8000400fa00881f7800008fbe0018c0b300f7
:101cf8006011b8001e0078009e0090001bfb0700d2
:101d08000000e00001003d000044eb000804e00092
:101d1800030032001e0078009e0090000300370088
:101d28001e0078009e00900001f0a2004f04780089
:101d38000080fa00000006000800fa00881f7800fa
:101d4800008fbe00220798003307980018c0b30020
:101d58002e019000be0190001e0078009e009000a9
:101d680002fb07000000e00001003c000044eb001b
:101d78000804e000030032001e0078009e00900076
:101d8800020037002e009000be0090004f0478003b
:101d98000080fa00000006000800fa00881f78009a
:101da800008fbe00220798003307980018c0b300c0
:101db8002e019000be0190001e0078009e00900049
:101dc800e8fa07000000e000010035000044eb00dd
:101dd8000804e000030032001e0078009e00900016
:101de800020037002e009000be0090004f047800db
:101df8000080fa00000006000c00fa00881f780036
:101e0800008fbe0022079800330798004407980007
:101e18005507980018c0b3004e019000de019000ed
:101e28001e0078009e009000d0fa07000000e00035
:101e380001003c000044eb000804e000040032000c
:101e48004e019000de019000028fbe000e003700a8
:101e580018c0b3002e019000be0190001e0078004b
:101e68009e009000bffa07000000e0000100350066
:101e78000044eb000804e000030032002e0190004b
:101e8800be019000028fbe001e0078009e009000e8
:101e98004f0478000080fa00000006000000fa00f5
:101ea80021e3a9002143a80001198000f0cf2f00e9
:101eb80000806000001988002043a90001198000f3
:101ec800000e200001007000001988001119800020
:101ed800f0ff210000806000101988002343a8004b
:101ee80011198000f0cf2f000080600010198800c1
:101ef8001119800030f82f00008060000040a00019
:101f0800101988002203a9002223a90025e3a900ab
:101f1800f0c0b30024e3b70021198000f00f2e00b1
:101f28008080600000f02000010070002019880007
:101f38003303a9004feea8002e0ea8002f6ea800ac
:101f48006f2ea8001e2ea8003063a80030c3a8007a
:101f58003163a8002e03a80031e3a80041198000ce
:101f680000fc2f00008060004019880028e3a900c9
:101f780001a8a90021a8a80021e3a8000080fa0070
:101f8800000006000000fa002023a8000080fa00e4
:101f9800000006000000fa00200321000080fa007b
:101fa800000006000000fa000bd0bf000080fa0015
:101fb800000006000000fa000b70ef000080fa0035
:101fc800000006000000fa00f0032000303a880004
:101fd800213a8000f0f32f0000806000203a88004a
:101fe800213a800000fe2f00008060000000a00061
:101ff800203a88001200200080072000a109200054
:10200800337420008049780081497800824978003b
:10201800103a8000000178000200a000600420004f
:1020280071052000237420008049780081497800d8
:102038008249780000000000113a80000000270063
:102048008080600000002100808f5000faff3a0075
:1020580000000000113a80000002200000806000ab
:102068000000e000fbff32000080fa0000000600dc
:020000040000fa
:1020780008100000020000008000000000100000ae
:1020880004000000800000000c1000002600000082
:10209800800000000410000004000000820000001e
:1020a8000000a00040000000321000000a000000fc
:1020b800800000000a1000000200000080000000fc
:0420c8000000000014
:020000040000fa
:1020cc000000fa000e2eef001e2eef002e2eef0059
:1020dc003e2eef004e2eef005e2eef006e2eef0028
:1020ec00214ea90060cea90060eea90011cea90076
:1020fc0011eea90020cea90020eea9000080fa0064
:04210c0000000600c9
:020000040000fa
:02000004000af0
:04afe000cfff00009f
:020000040000fa
:02000004000af0
:04afe400ffff00006b
:020000040000fa
:02000004000af0
:04afe8007fff0000e7
:020000040000fa
:02000004000af0
:04afec005fff000003
:020000040000fa
:02000004000af0
:04aff00038ff000026
:020000040000fa
:02000004000af0
:04aff400ffff00005b
:00000001FF
