:020000040000fa
:080000000002040000000000f2
:020000040000fa
:040008007e03000073
:020000040000fa
:04000c007e0300006f
:020000040000fa
:040010007e0300006b
:020000040000fa
:040014007e03000067
:020000040000fa
:040018007e03000063
:020000040000fa
:04001c007e0300005f
:020000040000fa
:040020007e0300005b
:020000040000fa
:040024007e03000057
:020000040000fa
:040028007e03000053
:020000040000fa
:04002c007e0300004f
:020000040000fa
:040030007e0300004b
:020000040000fa
:040034003c03000089
:020000040000fa
:040038007e03000043
:020000040000fa
:04003c007e0300003f
:020000040000fa
:040040007e0300003b
:020000040000fa
:040044007e03000037
:020000040000fa
:04004800fa020000b8
:020000040000fa
:04004c007e0300002f
:020000040000fa
:040050007e0300002b
:020000040000fa
:040054007e03000027
:020000040000fa
:040058007e03000023
:020000040000fa
:04005c005c03000041
:020000040000fa
:040060007e0300001b
:020000040000fa
:040064007e03000017
:020000040000fa
:040068007e03000013
:020000040000fa
:04006c007e0300000f
:020000040000fa
:040070007e0300000b
:020000040000fa
:040074007e03000007
:020000040000fa
:040078007e03000003
:020000040000fa
:04007c007e030000ff
:020000040000fa
:040080007e030000fb
:020000040000fa
:040084007e030000f7
:020000040000fa
:040088007e030000f3
:020000040000fa
:04008c007e030000ef
:020000040000fa
:040090007e030000eb
:020000040000fa
:040094007e030000e7
:020000040000fa
:040098007e030000e3
:020000040000fa
:04009c007e030000df
:020000040000fa
:0400a0007e030000db
:020000040000fa
:0400a4007e030000d7
:020000040000fa
:0400a8007e030000d3
:020000040000fa
:0400ac007e030000cf
:020000040000fa
:0400b0007e030000cb
:020000040000fa
:0400b4007e030000c7
:020000040000fa
:0400b8007e030000c3
:020000040000fa
:0400bc007e030000bf
:020000040000fa
:0400c0007e030000bb
:020000040000fa
:0400c4007e030000b7
:020000040000fa
:0400c8007e030000b3
:020000040000fa
:0400cc007e030000af
:020000040000fa
:0400d0007e030000ab
:020000040000fa
:0400d4007e030000a7
:020000040000fa
:0400d8007e030000a3
:020000040000fa
:0400dc007e0300009f
:020000040000fa
:0400e0007e0300009b
:020000040000fa
:0400e4007e03000097
:020000040000fa
:0400e8007e03000093
:020000040000fa
:0400ec007e0300008f
:020000040000fa
:0400f0007e0300008b
:020000040000fa
:0400f4007e03000087
:020000040000fa
:0400f8007e03000083
:020000040000fa
:0400fc007e0300007f
:020000040000fa
:040100007e0300007a
:020000040000fa
:040104007e03000076
:020000040000fa
:040108007e03000072
:020000040000fa
:04010c007e0300006e
:020000040000fa
:040110007e0300006a
:020000040000fa
:040114007e03000066
:020000040000fa
:040118007e03000062
:020000040000fa
:04011c007e0300005e
:020000040000fa
:040120007e0300005a
:020000040000fa
:040124007e03000056
:020000040000fa
:040128007e03000052
:020000040000fa
:04012c007e0300004e
:020000040000fa
:040130007e0300004a
:020000040000fa
:040134007e03000046
:020000040000fa
:040138007e03000042
:020000040000fa
:04013c007e0300003e
:020000040000fa
:040140007e0300003a
:020000040000fa
:040144007e03000036
:020000040000fa
:040148007e03000032
:020000040000fa
:04014c007e0300002e
:020000040000fa
:040150007e0300002a
:020000040000fa
:040154007e03000026
:020000040000fa
:040158007e03000022
:020000040000fa
:04015c007e0300001e
:020000040000fa
:040160007e0300001a
:020000040000fa
:040164007e03000016
:020000040000fa
:040168007e03000012
:020000040000fa
:04016c007e0300000e
:020000040000fa
:040170007e0300000a
:020000040000fa
:040174007e03000006
:020000040000fa
:040178007e03000002
:020000040000fa
:04017c007e030000fe
:020000040000fa
:040180007e030000fa
:020000040000fa
:040184007e030000f6
:020000040000fa
:040188007e030000f2
:020000040000fa
:04018c007e030000ee
:020000040000fa
:040190007e030000ea
:020000040000fa
:040194007e030000e6
:020000040000fa
:040198007e030000e2
:020000040000fa
:04019c007e030000de
:020000040000fa
:0401a0007e030000da
:020000040000fa
:0401a4007e030000d6
:020000040000fa
:0401a8007e030000d2
:020000040000fa
:0401ac007e030000ce
:020000040000fa
:0401b0007e030000ca
:020000040000fa
:0401b4007e030000c6
:020000040000fa
:0401b8007e030000c2
:020000040000fa
:0401bc007e030000be
:020000040000fa
:0401c0007e030000ba
:020000040000fa
:0401c4007e030000b6
:020000040000fa
:0401c8007e030000b2
:020000040000fa
:0401cc007e030000ae
:020000040000fa
:0401d0007e030000aa
:020000040000fa
:0401d4007e030000a6
:020000040000fa
:0401d8007e030000a2
:020000040000fa
:0401dc007e0300009e
:020000040000fa
:0401e0007e0300009a
:020000040000fa
:0401e4007e03000096
:020000040000fa
:0401e8007e03000092
:020000040000fa
:0401ec007e0300008e
:020000040000fa
:0401f0007e0300008a
:020000040000fa
:0401f4007e03000086
:020000040000fa
:0401f8007e03000082
:020000040000fa
:0401fc007e0300007e
:020000040000fa
:040200007e03000079
:020000040000fa
:040204007e03000075
:020000040000fa
:040208007e03000071
:020000040000fa
:04020c007e0300006d
:020000040000fa
:040210007e03000069
:020000040000fa
:040214007e03000065
:020000040000fa
:040218007e03000061
:020000040000fa
:04021c007e0300005d
:020000040000fa
:040220007e03000059
:020000040000fa
:040224007e03000055
:020000040000fa
:040228007e03000051
:020000040000fa
:04022c007e0300004d
:020000040000fa
:040230007e03000049
:020000040000fa
:040234007e03000045
:020000040000fa
:040238007e03000041
:020000040000fa
:04023c007e0300003d
:020000040000fa
:040240007e03000039
:020000040000fa
:040244007e03000035
:020000040000fa
:040248007e03000031
:020000040000fa
:04024c007e0300002d
:020000040000fa
:040250007e03000029
:020000040000fa
:040254007e03000025
:020000040000fa
:040258007e03000021
:020000040000fa
:04025c007e0300001d
:020000040000fa
:040260007e03000019
:020000040000fa
:040264007e03000015
:020000040000fa
:040268007e03000011
:020000040000fa
:04026c007e0300000d
:020000040000fa
:040270007e03000009
:020000040000fa
:040274007e03000005
:020000040000fa
:040278007e03000001
:020000040000fa
:04027c007e030000fd
:020000040000fa
:040280007e030000f9
:020000040000fa
:100400004f0221000eff2c000e01880000000000aa
:10041000000020000000e000020032000001200087
:100420002002880014000700b60007000000e0006a
:1004300003003a0080a420000100200002003700e1
:100440000000200001002000810f70000100320038
:100450000f000700000020000000e0000200320052
:100460000000020000000000060902000000000079
:100470000040da000000fe00200020000000e00044
:1004800002003200100020009001880000000600e9
:10049000a1028800800478000000eb001f003700f4
:1004a000e284440054a0b4009905ba00e2844400f8
:1004b00054a0b4009906ba00e284440054a0b400e9
:1004c0000006eb00476fde00fd07b200ae018800ba
:1004d000636ce10003003a000ad801000000eb0061
:1004e0000e003700606ce10008003a00004deb00a0
:1004f0000a05e800020039003420ec000af0a000f0
:100500008b05e900f9ff3e00040037006168e10057
:10051000010032000086eb000b00070019c7ba008b
:100520000e04e0001905ba0003003a000a00e000da
:10053000dbff3a0000000600fe07b200ae028800b2
:100540008a047800f5ff37000cd0a300e20f4d00bd
:100550001c00390089027800354dba000a05e80010
:10056000020039003420ec000af0a0008b05e900fd
:100570000f003200254dba000a05e80002003900dc
:100580003420ec000af0a0008b05e90008003200de
:100590000c00e0000600320015cdba000a05e800a4
:1005a000020039003420ec000af0a0008b05e900bd
:1005b0008984e80054a0b4000b00e000e2ff3a0098
:1005c000000006009902ba00055d78008b05e9007d
:1005d000f7ff3200c82ade00055d78008b05e900d0
:1005e000f3ff32000c00e000f1ff320019ddba0029
:1005f000eeff37003600f800809fbe00829fbe00ed
:10060000849fbe00869fbe000000fa000108a9007a
:1006100010d0bf000004e00009003a000001eb0028
:100620006000b80092010700120020006000b800ce
:100630008f01070010c0b30010f0b70007003700ab
:100640000001eb006000b8008901070012002000e3
:100650006000b800860107001070ef000080fa000b
:100660004f03be004f02be004f01be004f00be0050
:100670003600f900004006003600f800809fbe00fa
:10068000829fbe00849fbe00869fbe000000fa00cd
:100690000068a90087010700cc0207000080fa006b
:1006a0004f03be004f02be004f01be004f00be0010
:1006b0003600f90000400600809fbe000000fa00ee
:1006c00001a8a9000118800020002100010878007d
:1006d00011188000200021001100980021188000ce
:1006e000200021002100980010c0b3000af0b700dc
:1006f0000080fa004f00be00004006000040da0013
:100700000000fe000000050003f0a200889fbe006c
:100710008a9fbe008c1f7800c2000700c90033000a
:100720006450e1004f0032006420e10052003200ca
:1007300003826c0007003b000905d0000306d000cf
:10074000820f54000c065d000200390002003200e6
:1007500089017800030678008582550004003d0079
:100760000003fd008103fd008502ea008b85420045
:10077000840f720002003b0060001000e08018004f
:100780006011b8000005eb007a28e1000a0039008a
:1007900006007800c75ddd00f707b20087807500ae
:1007a0002d003700828171000a0178006105600028
:1007b0008180d1000080d3008502e900f9ff3b0071
:1007c000060440008784480002003b0060041400d7
:1007d000e0841c000988a300070032008a817100b0
:1007e00082817100610164008904d1000884d30012
:1007f0008b05e800170037000978a30013003a00c2
:100800000b00e000130034008b05e90008044400ed
:1008100089844c000a4474000978a3000d003a0052
:100820000b00e000070034008b05e90008044400d9
:1008300089844c0001003a000b0020000978a300d5
:10084000f7ff32000001eb000200370082817100e7
:100850000a017800380007000cf0a70001f0a000a2
:10086000810037006420e10002003a00838f6c00b1
:10087000810033000801be000200be007a0037008c
:10088000839f68000100e00002003d00600010004e
:10089000e08018000300e00002003d00600111004c
:1008a000e0811900ab0007004f00e00002003b00b0
:1008b00060001000e0801800000006001400200016
:1008c000b4003700f4ff2f00b20037000001be0073
:1008d0003f0007000470a70003f0a10003f8a30085
:1008e00013003a006509b10010003200090035001c
:1008f0006928e10002003500010028000000050021
:1009000000004000818048008502e900fcff3a00b9
:1009100000000600f88f4200050035008100d1007c
:100920000080d3008502e800fcff3a0000000600ca
:100930008000eb0000000500810020006180550070
:100940000b003d000b00200061fe2f000100e100c4
:100950001d00340082817100610164008904d100ae
:100960000884d3000000e800faff3a00710020007c
:1009700061006400030070000200600009003200a2
:1009800061044400e0844c000988a50005003200a1
:100990008b05e8006808e10002003a008904d100f4
:1009a0000884d300f20f20000258e10005003d004a
:1009b000c75ddd00f907b200898075000800780086
:1009c000000006000bf827008b00780000000500ef
:1009d000c70ade00f107b200f50fb20008003200ce
:1009e000e1cf4200020032000170a00024000500a7
:1009f000810f70000100320004080500440005006a
:100a0000810f700002003a00140005008502e90021
:100a10000000400081c04800fcff3b000170a000c6
:100a2000240005000004be00e9ff07000003be002b
:100a30000405be000200be00e5ff0700844f7500fc
:100a4000000006000200be006450e1000500360010
:100a50006420e100020036000968a30001003a00aa
:100a60000800be000160a0004f0678004f05be00e0
:100a70004f04be0000000600f0ff2f00f1ff27002a
:100a8000f9ff3700889fbe008a9fbe008c1f780048
:100a9000e4ff0700ebff330003866c006450e100c5
:100aa000240032006420e100270032006150e100a0
:100ab000220032006120e100210032008b854200db
:100ac000eb07b1000134b800003ab8000804420056
:100ad00089844a00013ab8000030b800888040009c
:100ae00009014a00040033000000400081804800f2
:100af000020149008b05e900c909dd00830170008e
:100b00000100320013002000c814de004814dd008c
:100b10004709de001200b200c808de000884700039
:100b200085ff070001f0a1000cf0a70001f0a00074
:100b3000cdff37006120e100cfff32000801be0089
:100b40000200be00f7ff37006150e100fcff3a00f1
:100b5000c9ff37006022b800060220000000d00064
:100b60008180d2000482d2008582d2000000a000e1
:100b70000202520083825a00030031000202420046
:100b800083824a000000a1000603e900f3ff3a0057
:100b900000000600889fbe008a9fbe00841f780068
:100ba000a0ff07004f00780011003300f0ff2f0076
:100bb000838f6c0006003b00040565000a00a70057
:100bc0000800370009f0a6001000200008003700d8
:100bd000820f5400838f5c00030039001000200056
:100be00001003e000000200009f0a7000000ea001c
:100bf0004f05be004f04be000000e00000000600ec
:020000040000fa
:100c00000000fa001160800080ff2f00008060006b
:100c10001060880000fa20002060880023aca80043
:100c2000238ca80011618000f03f2f00008060003d
:100c300000a0a00010618800300020002061880022
:100c4000c3aca800c38ca80011668000f03f2f0041
:100c50000080600000a0a000106688003000200026
:100c60002066880001eca8000080fa000000060061
:100c70000600fa00008fbe00220798002e009000a8
:100c80000000e00005003a001e0178009e0190007f
:100c9000e2808800f3808800040037001e0178009d
:100ca0009e019000a2808800b38088000080fa0036
:100cb000000006000000fa00889fbe00048180004a
:100cc00015818000e0808000f180800018c0b300b2
:100cd0000001be000400be00f8fe07000000e000b6
:100ce000010035000044eb000804e0000d00320074
:100cf000e8808000f98080000481800015818000f8
:100d000060808000718080000001be000400be0091
:100d10007efe07000801be00b500070000818800c4
:100d2000118188000481800015818000e0808000ae
:100d3000f180800018c0b3000001be000400be00b6
:100d4000e0fe07000000e00001003c000044eb0072
:100d50000804e0000d003200e8808000f980800087
:100d60000481800015818000608080007180800097
:100d70000001be000400be0063fe07000801be00c3
:100d800083000700008188001181880000818000b5
:100d90001181800018c0b3006011b800c9fe0700bf
:100da0000000e00001003d000044eb000804e0000a
:100db00004003200c3cca90024eea800c3eca800b4
:100dc00003003700c3eca90024cea800c3cca800c0
:100dd0000081800011818000570007000200200080
:100de0000322240027ff0700b8fe07000000780058
:100df00030668800c4808000d5808000a08080009c
:100e0000b180800018c0b3000001be000400be0025
:100e1000aafe07000000e000010035000044eb00de
:100e20000804e0000d003200a8808000b980800036
:100e3000c4808000d5808000608080007180800048
:100e40000001be000400be0030fe07000801be0025
:100e500067000700c0808800d1808800c4808000bf
:100e6000d5808000a0808000b180800018c0b300d1
:100e70000001be000400be0092fe07000000e0007a
:100e800001003c000044eb000804e0000d003200cb
:100e9000a8808000b9808000c4808000d580800058
:100ea00060808000718080000001be000400be00f0
:100eb00015fe07000801be0035000700c08088004d
:100ec000d1808800c0808000d180800018c0b3002d
:100ed0006011b8007bfe07000000e00001003d004b
:100ee0000044eb000804e0000400320023cca90019
:100ef00015eea80023eca8000300370023eca9009e
:100f000015cea80023cca800c0808000d18080002e
:100f1000090007000200200003222400d9fe070078
:100f20006afe070000007800306188004f04be00b0
:100f30000080fa00000006000400fa00881f780014
:100f4000008fbe0018c0b3006011b8001e0078000a
:100f50009e0090005bfe07000000e00001003d00e5
:100f60000044eb000804e000030032001e0078009b
:100f70009e009000030037001e0078009e00900045
:100f800001f0a2004f0478000080fa000000060083
:100f90000800fa00881f7800008fbe002207980022
:100fa0003307980018c0b3002e019000be019000d6
:100fb0001e0078009e00900042fe07000000e00046
:100fc00001003c000044eb000804e0000300320094
:100fd0001e0078009e009000020037002e00900056
:100fe000be0090004f0478000080fa000000060068
:100ff0000800fa00881f7800008fbe0022079800c2
:101000003307980018c0b3002e019000be01900075
:101010001e0078009e00900028fe07000000e000ff
:10102000010035000044eb000804e000030032003a
:101030001e0078009e009000020037002e009000f5
:10104000be0090004f0478000080fa000000060007
:101050000c00fa00881f7800008fbe00220798005d
:1010600033079800440798005507980018c0b3004c
:101070004e019000de0190001e0078009e0090005e
:1010800010fe07000000e00001003c000044eb00ff
:101090000804e000040032004e019000de019000e0
:1010a000028fbe000e00370018c0b3002e01900062
:1010b000be0190001e0078009e009000fffd07001a
:1010c0000000e000010035000044eb000804e000ef
:1010d000030032002e019000be019000028fbe007e
:1010e0001e0078009e0090004f0478000080fa00f7
:1010f000000006000000fa0021e3a9002143a80037
:1011000001198000f0cf2f000080600000198800d6
:101110002043a90001198000000e2000010070008a
:101120000019880011198000f0ff21000080600084
:10113000101988002343a80011198000f0cf2f0058
:1011400000806000101988001119800030f82f000d
:10115000008060000030a000101988002203a90060
:101160002223a90025e3a900f0c0b30024e3b700bf
:1011700021198000f00f2e008080600000f0200018
:1011800001007000201988003303a9002e0ea8006a
:101190002f6ea8006f2ea80030c3a8003163a800ee
:1011a0002e03a8004119800000fc2f000080600081
:1011b0004019880028e3a90001a8a90021a8a800d7
:1011c00021e3a8000080fa00000006000000fa00f9
:1011d0002023a8000080fa00000006000000fa00aa
:1011e000200021000080fa00000006000000fa0044
:1011f0000ad0bf000080fa00000006000000fa00dc
:101200000a70ef000080fa00000006000800fa00f3
:10121000630007008d00070064cea80064eea800fc
:10122000254ea8006000b800008188001181880068
:101230006000b800c0808800d180880027000700c7
:10124000400007006efe0700aaff070003003700fa
:10125000000000000100370000000000e3ff07006d
:10126000e14f5000faff3a00e4ff0700dbff070000
:10127000000f78001e007800900078001107980099
:101280001e80e80090007800210798009e007800fa
:101290006480400090007800310798009e00900024
:1012a000301a2000808f500001003600254ea80023
:1012b000ae009000301a2000808f500001003600f0
:1012c00064eea800be009000301a2000808f50000d
:1012d000e1ff360064cea800e0ff37000000fa000e
:1012e00013e1a90011e1a9001061a8001021a900d3
:1012f00081088000f0fc2f00008060000040a0000a
:10130000800888000a21ef000621ef0080092000f4
:101310007008880000682900600888002142800069
:1013200080ff2f00008060000000a00020428800a5
:101330000108a9002108a80011e1a8000080fa0016
:10134000000006000200fa0005e1a9002108800063
:101350000003200001007000200888000421a9007b
:1013600040062000000f78001e0078004800dd00d5
:10137000cf80de000001be0000a025002126200055
:101380003ffd070000007800100888000068a900f1
:101390002068a80005e1a8000080fa00000006000f
:1013a0000000fa00f0032000303a8800213a800063
:1013b000f0f32f0000806000203a8800213a80007e
:1013c00000fe2f00008060000000a000203a88008e
:1013d0001200200080072000a109200033742000a3
:1013e000804978008149780082497800103a80006d
:1013f000000178000200a0006004200071052000b8
:10140000237420008049780081497800824978005f
:1014100000000000113a800000002700808060007a
:1014200000002100808f5000faff3a000000000009
:10143000113a800000022000008060000000e000ff
:10144000fbff32000080fa00000006000000fa00f6
:101450000e2eef001e2eef002e2eef003e2eef0080
:101460004e2eef005e2eef006e2eef00214ea900f3
:1014700060cea90060eea90011cea90011eea9006e
:1014800020cea90020eea9000080fa00000006008e
:020000040000fa
:101490001010000002000000800000001210000088
:1014a00012000000800000000c100000040000008a
:1014b000820000000000a0004000000000100000ba
:0c14c0000c000000800000000000000094
:020000040000fa
:02000004000af0
:04afe000cfff00009f
:020000040000fa
:02000004000af0
:04afe400ffff00006b
:020000040000fa
:02000004000af0
:04afe8007fff0000e7
:020000040000fa
:02000004000af0
:04afec005fff000003
:020000040000fa
:02000004000af0
:04aff00038ff000026
:020000040000fa
:02000004000af0
:04aff400ffff00005b
:00000001FF
