:020000040000fa
:080000000002040000000000f2
:020000040000fa
:040008007003000081
:020000040000fa
:04000c00700300007d
:020000040000fa
:040010007003000079
:020000040000fa
:040014007003000075
:020000040000fa
:040018007003000071
:020000040000fa
:04001c00700300006d
:020000040000fa
:040020007003000069
:020000040000fa
:040024007003000065
:020000040000fa
:040028007003000061
:020000040000fa
:04002c00700300005d
:020000040000fa
:040030007003000059
:020000040000fa
:0400340002030000c3
:020000040000fa
:040038007003000051
:020000040000fa
:04003c00700300004d
:020000040000fa
:040040007003000049
:020000040000fa
:040044007003000045
:020000040000fa
:04004800fa020000b8
:020000040000fa
:04004c00700300003d
:020000040000fa
:040050007003000039
:020000040000fa
:040054007003000035
:020000040000fa
:040058007003000031
:020000040000fa
:04005c004c03000051
:020000040000fa
:040060007003000029
:020000040000fa
:040064007003000025
:020000040000fa
:040068007003000021
:020000040000fa
:04006c00700300001d
:020000040000fa
:040070007003000019
:020000040000fa
:040074007003000015
:020000040000fa
:040078007003000011
:020000040000fa
:04007c00700300000d
:020000040000fa
:040080007003000009
:020000040000fa
:040084007003000005
:020000040000fa
:040088007003000001
:020000040000fa
:04008c0070030000fd
:020000040000fa
:0400900070030000f9
:020000040000fa
:040094002203000043
:020000040000fa
:0400980070030000f1
:020000040000fa
:04009c0070030000ed
:020000040000fa
:0400a00070030000e9
:020000040000fa
:0400a40070030000e5
:020000040000fa
:0400a80070030000e1
:020000040000fa
:0400ac0070030000dd
:020000040000fa
:0400b00070030000d9
:020000040000fa
:0400b40070030000d5
:020000040000fa
:0400b80070030000d1
:020000040000fa
:0400bc0070030000cd
:020000040000fa
:0400c00070030000c9
:020000040000fa
:0400c40070030000c5
:020000040000fa
:0400c80070030000c1
:020000040000fa
:0400cc0070030000bd
:020000040000fa
:0400d00070030000b9
:020000040000fa
:0400d40070030000b5
:020000040000fa
:0400d80070030000b1
:020000040000fa
:0400dc0070030000ad
:020000040000fa
:0400e00070030000a9
:020000040000fa
:0400e40070030000a5
:020000040000fa
:0400e80070030000a1
:020000040000fa
:0400ec00700300009d
:020000040000fa
:0400f0007003000099
:020000040000fa
:0400f4007003000095
:020000040000fa
:0400f8007003000091
:020000040000fa
:0400fc00700300008d
:020000040000fa
:040100007003000088
:020000040000fa
:040104007003000084
:020000040000fa
:040108007003000080
:020000040000fa
:04010c00700300007c
:020000040000fa
:040110007003000078
:020000040000fa
:040114007003000074
:020000040000fa
:040118007003000070
:020000040000fa
:04011c00700300006c
:020000040000fa
:040120007003000068
:020000040000fa
:040124007003000064
:020000040000fa
:040128007003000060
:020000040000fa
:04012c00700300005c
:020000040000fa
:040130007003000058
:020000040000fa
:040134007003000054
:020000040000fa
:040138007003000050
:020000040000fa
:04013c00700300004c
:020000040000fa
:040140007003000048
:020000040000fa
:040144007003000044
:020000040000fa
:040148007003000040
:020000040000fa
:04014c00700300003c
:020000040000fa
:040150007003000038
:020000040000fa
:040154007003000034
:020000040000fa
:040158007003000030
:020000040000fa
:04015c00700300002c
:020000040000fa
:040160007003000028
:020000040000fa
:040164007003000024
:020000040000fa
:040168007003000020
:020000040000fa
:04016c00700300001c
:020000040000fa
:040170007003000018
:020000040000fa
:040174007003000014
:020000040000fa
:040178007003000010
:020000040000fa
:04017c00700300000c
:020000040000fa
:040180007003000008
:020000040000fa
:040184007003000004
:020000040000fa
:040188007003000000
:020000040000fa
:04018c0070030000fc
:020000040000fa
:0401900070030000f8
:020000040000fa
:0401940070030000f4
:020000040000fa
:0401980070030000f0
:020000040000fa
:04019c0070030000ec
:020000040000fa
:0401a00070030000e8
:020000040000fa
:0401a40070030000e4
:020000040000fa
:0401a80070030000e0
:020000040000fa
:0401ac0070030000dc
:020000040000fa
:0401b00070030000d8
:020000040000fa
:0401b40070030000d4
:020000040000fa
:0401b80070030000d0
:020000040000fa
:0401bc0070030000cc
:020000040000fa
:0401c00070030000c8
:020000040000fa
:0401c40070030000c4
:020000040000fa
:0401c80070030000c0
:020000040000fa
:0401cc0070030000bc
:020000040000fa
:0401d00070030000b8
:020000040000fa
:0401d40070030000b4
:020000040000fa
:0401d80070030000b0
:020000040000fa
:0401dc0070030000ac
:020000040000fa
:0401e00070030000a8
:020000040000fa
:0401e40070030000a4
:020000040000fa
:0401e80070030000a0
:020000040000fa
:0401ec00700300009c
:020000040000fa
:0401f0007003000098
:020000040000fa
:0401f4007003000094
:020000040000fa
:0401f8007003000090
:020000040000fa
:0401fc00700300008c
:020000040000fa
:040200007003000087
:020000040000fa
:040204007003000083
:020000040000fa
:04020800700300007f
:020000040000fa
:04020c00700300007b
:020000040000fa
:040210007003000077
:020000040000fa
:040214007003000073
:020000040000fa
:04021800700300006f
:020000040000fa
:04021c00700300006b
:020000040000fa
:040220007003000067
:020000040000fa
:040224007003000063
:020000040000fa
:04022800700300005f
:020000040000fa
:04022c00700300005b
:020000040000fa
:040230007003000057
:020000040000fa
:040234007003000053
:020000040000fa
:04023800700300004f
:020000040000fa
:04023c00700300004b
:020000040000fa
:040240007003000047
:020000040000fa
:040244007003000043
:020000040000fa
:04024800700300003f
:020000040000fa
:04024c00700300003b
:020000040000fa
:040250007003000037
:020000040000fa
:040254007003000033
:020000040000fa
:04025800700300002f
:020000040000fa
:04025c00700300002b
:020000040000fa
:040260007003000027
:020000040000fa
:040264007003000023
:020000040000fa
:04026800700300001f
:020000040000fa
:04026c00700300001b
:020000040000fa
:040270007003000017
:020000040000fa
:040274007003000013
:020000040000fa
:04027800700300000f
:020000040000fa
:04027c00700300000b
:020000040000fa
:040280007003000007
:020000040000fa
:10040000ef0321000eff2c000e0188000000000009
:10041000000020000000e000020032000001200087
:100420002002880014000700af0007000000e00071
:1004300003003a00600321000100200002003700a1
:100440000000200001002000810f70000100320038
:100450000f000700000020000000e0000200320052
:100460000000020000000000dc06020000000000a6
:100470000040da000000fe00200020000000e00044
:1004800002003200100020009001880000000600e9
:10049000a1028800800478000000eb001f003700f4
:1004a000e284440054a0b4009905ba00e2844400f8
:1004b00054a0b4009906ba00e284440054a0b400e9
:1004c0000006eb00476fde00fd07b200ae018800ba
:1004d000636ce10003003a000ad801000000eb0061
:1004e0000e003700606ce10008003a00004deb00a0
:1004f0000a05e800020039003420ec000af0a000f0
:100500008b05e900f9ff3e00040037006168e10057
:10051000010032000086eb000b00070019c7ba008b
:100520000e04e0001905ba0003003a000a00e000da
:10053000dbff3a0000000600fe07b200ae028800b2
:100540008a047800f5ff37000cd0a300e20f4d00bd
:100550001c00390089027800354dba000a05e80010
:10056000020039003420ec000af0a0008b05e900fd
:100570000f003200254dba000a05e80002003900dc
:100580003420ec000af0a0008b05e90008003200de
:100590000c00e0000600320015cdba000a05e800a4
:1005a000020039003420ec000af0a0008b05e900bd
:1005b0008984e80054a0b4000b00e000e2ff3a0098
:1005c000000006009902ba00055d78008b05e9007d
:1005d000f7ff3200c82ade00055d78008b05e900d0
:1005e000f3ff32000c00e000f1ff320019ddba0029
:1005f000eeff37000000fa000108a9000080fa00b1
:10060000004006003600f800809fbe00829fbe00ba
:10061000849fbe00869fbe000000fa000068a9000b
:100620000d050700560607000080fa004f03be00c4
:100630004f02be004f01be004f00be003600f90061
:10064000004006003600f800809fbe00829fbe007a
:10065000849fbe00869fbe000000fa000368a900c8
:10066000108080002180800061004000e080480010
:100670001080880021808800b70207000080fa00ff
:100680004f03be004f02be004f01be004f00be0030
:100690003600f90000400600801f78000000fa00d4
:1006a00001a8a90000188000a0818800101880000f
:1006b000b081880020188000c08188003018800038
:1006c000d081880040188000e081880010c0b3000d
:1006d0000df0b7000080fa004f00780000400600df
:1006e0000040da000000fe000000050003f0a20058
:1006f000889fbe008a9fbe008c1f780018010700eb
:100700001f0133006450e1004f0032006420e1001b
:100710005200320003826c0007003b000905d00044
:100720000306d000820f54000c065d000200390061
:1007300002003200890178000306780085825500a6
:1007400004003d000003fd008103fd008502ea0076
:100750008b854200840f720002003b006000100095
:10076000e08018006011b8000005eb007a28e10075
:100770000a00390006007800c75ddd00f707b20007
:10078000878075002d003700828171000a01780092
:10079000610560008180d1000080d3008502e900fe
:1007a000f9ff3b00060440008784480002003b003c
:1007b00060041400e0841c000988a30007003200d4
:1007c0008a81710082817100610164008904d10015
:1007d0000884d3008b05e800170037000978a300d0
:1007e00013003a000b00e000130034008b05e90011
:1007f0000804440089844c000a4474000978a3006a
:100800000d003a000b00e000070034008b05e90002
:100810000804440089844c0001003a000b002000c9
:100820000978a300f7ff32000001eb000200370057
:10083000828171000a0178008e0007000cf0a70089
:1008400001f0a000d70037006420e10002003a0068
:10085000838f6c00d70033000801be000200be0089
:10086000d0003700889fbe008a9fbe008c1f780092
:10087000bb000700c200330003866c006450e10037
:100880002e0032006420e100330032006150e100ac
:100890002f0032006120e1003100320085855500d3
:1008a000eb07b00009002000080420000500370015
:1008b0000804440089844c000a0031000603430008
:1008c00087834b000001530081815b00f8ff3300f8
:1008d0000203be000800a0000804440089844c0004
:1008e000f6ff3900c639dd008301730001003200d4
:1008f000130020008904d1000884d3000998a300c4
:10090000050032000800a7000300a0008904d10000
:100910000884d3008b05e8008904d1000884d30043
:100920000001eb000281d2005200070001f0a1009b
:100930000cf0a70001f0a0009a0037006420e1004d
:100940009c0032000801be000200be00f7ff370025
:100950006120e100970032006000b800f3ff37002b
:100960000000200001f82700f0ff370014002000ed
:10097000c7003700f4ff2f00c50037000001be009c
:10098000620007000470a70003f0a1006509b10030
:10099000160032000d0035006828e1000600350021
:1009a000f0ff2f00f1ff27000300e00013003b00e1
:1009b0000100280000000500000040008180480080
:1009c0008502e900fcff3a0008003700f88f42007a
:1009d00002003c008000eb00000005008100d10017
:1009e0000080d3008502e800fcff3a000300e0002d
:1009f00002003b0060001000e080180000000600cc
:100a00000001be00410007000470a70003f0a10030
:100a100003f8a30013003a006509b100100032008a
:100a2000090035006928e1000200350001002800b6
:100a30000000050000004000818048008502e900b8
:100a4000fcff3a0000000600f88f42000500350068
:100a50008100d1000080d3008502e800fcff3a004d
:100a6000000006008000eb00000005006011b800e7
:100a7000a200370081002000618055000b003d007e
:100a80000b00200061fe2f000100e1001d0034007a
:100a900082817100610164008904d1000884d3005f
:100aa0000000e800faff3a007100200061006400d5
:100ab000030070000200600009003200610444007d
:100ac000e0844c000988a500050032008b05e80091
:100ad0006808e10002003a008904d1000884d300cc
:100ae000f20f20000258e10005003d00c75ddd0067
:100af000f907b20089807500080078000000060040
:100b00000bf827008b00780000000500c70ade0004
:100b1000f107b200f50fb20008003200e1cf420049
:100b2000020032000170a00024000500810f700057
:100b3000010032000408050044000500810f700028
:100b400002003a00140005008502e90000004000a0
:100b500081c04800fcff3b000170a000240005009c
:100b60000004be00e9ff07000003be000405be004c
:100b70000200be00e5ff0700844f7500000006007c
:100b80000200be006450e100050036006420e10070
:100b9000020036000968a30001003a000800be0008
:100ba0000160a0004f0678004f05be004f04be0054
:100bb00000000600f0ff2f00f1ff2700f9ff3700cb
:100bc000889fbe008a9fbe008c1f7800e4ff07004c
:100bd000ebff330003866c006450e1002400320018
:100be0006420e100270032006150e1002200320061
:100bf0006120e100210032008b854200eb07b1004b
:100c00000134b800003ab8000804420089844a0060
:100c1000013ab8000030b8008880400009014a005d
:100c200004003300000040008180480002014900b8
:100c30008b05e900c909dd00830170000100320065
:100c400013002000c814de004814dd004709de0050
:100c50001200b200c808de000884700085ff07009b
:100c600001f0a1000cf0a70001f0a000cdff3700bb
:100c70006120e100cfff32000801be000200be008b
:100c8000f7ff37006150e100fcff3a00c9ff370071
:100c9000889fbe008a9fbe00841f7800b0ff0700b7
:100ca0004f00780011003300f0ff2f00838f6c009d
:100cb00006003b00040565000a00a7000800370095
:100cc00009f0a6001000200008003700820f540031
:100cd000838f5c00030039001000200001003e00fb
:100ce0000000200009f0a7000000ea004f05be0048
:100cf0004f04be000000e00000000600889fbe0018
:100d00008a9fbe000082700004027100048271009c
:100d1000260032000004be000200be006011b800d0
:100d20006b092000950220000182cf000a003900e3
:100d30000541b1000082cf00070039000541b10034
:100d40000982cf00040039000541b1000882cf00bc
:100d5000010039000541b100054252001200320085
:100d60000a003b0082817100610164008100d100b2
:100d70000080d3008984d3000884d3008b05e80069
:100d80000442e800f7ff3a00070037000804440077
:100d900089844c0000004800818048008b05e900f0
:100da0000442e900f9ff3a0032ff07004f05be0098
:080db0004f04be000000060024
:020000040000fa
:100db8000800fa00881f78007f040700be040700b7
:100dc80064cea90064eea900254ea9006000b80011
:100dd800e0808800f18088006000b800a08088006a
:100de800b1808800e101070050b82e00412324009b
:100df800f801070000002000a14724006e02070048
:100e0800e602070022040700010037000000000086
:100e180061040700e14f5000fcff3a00620407003c
:100e280059040700000f78005704070010079800be
:100e38001e009000100078008000eb0009ff0700fa
:100e480032332300330524005bff07000200200033
:100e58000358240081fe0700d2cc2c00c3042400d0
:100e680055ff070020079800310798002e019000d1
:100e7800be019000000020008120240077fe0700ba
:100e880002002000030a240016fe07006081880083
:100e980071818800608180007181800018c0b30072
:100ea8000200200003122400aefe07000000e0004c
:100eb800010035000044eb000804e00002003200a5
:100ec800254ea80001003700254ea9001e009000fd
:100ed8000080e800100078008000eb00e1fe0700c9
:100ee800323323003305240033ff070002002000bb
:100ef8000358240059fe0700d2cc2c00c304240058
:100f08002dff070020079800310798002e01900058
:100f1800be01900000002000812024004ffe070041
:100f280002002000030a2400eefd0700008188006b
:100f380011818800008180001181800018c0b300f1
:100f4800020020000312240086fe07000000e000d3
:100f5800010035000044eb000804e0000200320004
:100f6800254ea80001003700254ea9001e0090005c
:100f780064004000100078008000eb00b9fe070014
:100f880032332300330524000bff07000200200042
:100f98000358240031fe0700d2cc2c00c3042400df
:100fa80005ff070020079800310798002e019000e0
:100fb800be019000000020008120240027fe0700c9
:100fc80002002000030a2400c6fd070040818800b3
:100fd80051818800408180005181800018c0b30091
:100fe80002002000031224005efe07000000e0005b
:100ff800010035000044eb000804e0000200320064
:1010080064eea8000100370064eea9001e009000fd
:1010180068004000100078008000eb0091fe070097
:101028003233230033052400e3fe070002002000ca
:101038000358240009fe0700d2cc2c00c304240066
:10104800ddfe070020079800310798002e01900068
:10105800be0190000000200081202400fffd070051
:1010680002002000030a24009efd0700208188005a
:1010780031818800208180003181800018c0b30050
:10108800020020000312240036fe07000000e000e2
:10109800010035000044eb000804e00002003200c3
:1010a80064cea8000100370064cea9001e0090009d
:1010b80066004000100078008000eb0069fe070021
:1010c8003233230033052400bbfe07000200200052
:1010d80003582400e1fd0700d2cc2c00c3042400ef
:1010e800b5fe070020079800310798002e019000f0
:1010f800be0190000000200081202400d7fd0700d9
:1011080002002000030a240076fd07008081880081
:1011180091818800808180009181800018c0b3008f
:1011280002002000031224000efe07000000e00069
:10113800010035000044eb000804e0000200320022
:1011480064cea80032ff370064cea90030ff370014
:101158000000fa000ad0bf000080fb00cf80de004c
:10116800b200200003002000820f5000838f580037
:1011780058003e00000601000b003700140037003d
:101188001d00370025003700260037002e003700e5
:101198002f0037003700370038003700400037008d
:1011a80041003700490037000230ef000430ef00fb
:1011b8000001eb006000b8001402070012002000d4
:1011c8006000b8001102070010c0b3000af0b700b1
:1011d8001280800023808000803e200001002000d3
:1011e800800f5100818f59003d00360020c0b300a8
:1011f8000af0b7003b0037000001eb006000b800c0
:1012080002020700120020006000b800ff0107007a
:1012180030c0b3000af0b7003200370033000700cf
:10122800300037000001eb006000b800f70107004c
:10123800120020006000b800f401070050c0b3009d
:101248000af0b700270037002800070025003700fc
:101258000001eb006000b800ec010700120020005c
:101268006000b800e901070070c0b3000af0b700d9
:101278001c0037001d0007001a0037000001eb00b2
:101288006000b800e1010700120020006000b8000b
:10129800de01070090c0b3000af0b7001100370064
:1012a800120007000f0037000001eb006000b800d3
:1012b800d6010700120020006000b800d301070023
:1012c800b0c0b3000af0b7000600370007000700f7
:1012d800040037000a70ef0000000000010037002a
:1012e800000000000080fa00000006000200fa007a
:1012f800881f78000040eb00004f780000818000d4
:101308001181800018c0b30002002000031f2400d0
:1013180094fd07000000e000010035000044eb00e8
:101328000804e000190032004081800051818000eb
:1013380018c0b30002002000031a24008bfd070028
:101348000000e00001003c000044eb000804e0005d
:101358000e003200208180003181800018c0b30067
:1013680002002000031f240080fd07000000e000a9
:1013780001003c000044eb000804e00003003200d8
:1013880020c0b300004f780055003700008180006e
:101398001181800018c0b30002002000031f240040
:1013a80072fd07000000e00001003c000044eb0073
:1013b8000804e0001900320040818000518180005b
:1013c80018c0b30002002000031a240067fd0700bc
:1013d8000000e00001003c000044eb000804e000cd
:1013e8000e003200208180003181800018c0b300d7
:1013f80002002000031f24005afd07000000e0003f
:10140800010035000044eb000804e000030032004e
:1014180010c0b300004f78003100370040818000d1
:101428005181800018c0b30002002000031a240074
:101438004cfd07000000e000010035000044eb000f
:101448000804e0000300320030c0b300004f780009
:1014580023003700008180001181800018c0b3008c
:1014680002002000031f240040fd07000000e000e8
:1014780001003c000044eb000804e00018003200c2
:10148800408180005181800018c0b3000200200014
:10149800031a240035fd07000000e00001003c00ad
:1014a8000044eb000804e0000d00320020818000b9
:1014b8003181800018c0b30002002000031f2400ff
:1014c8002afd07000000e00001003c000044eb009a
:1014d8000804e000020032000040eb00004f7800f2
:1014e8001e4078000004e00003003a0020c0b3006a
:1014f8000bf0b700110037001e407800e24f500093
:1015080003003a0040c0b3000bf0b7000b003700ef
:101518001e407800e14f500003003a0060c0b3005d
:101528000bf0b700050037001e407800e34f50006d
:1015380002003a0080c0b3000bf0b7000bd0bf0028
:101548008080fb000ad0bf000080fb000000e9009b
:10155800808f5000020032000bd0bf000af0b700a5
:101568004f0478000080fa00000006000000fa002e
:1015780013e1a90011e1a9001061a8001021a90038
:1015880081088000f0fc2f00008060000040a0006f
:10159800800888000a21ef000621ef00800920005a
:1015a80070088800006829006008880021428000cf
:1015b80080ff2f00008060000000a000204288000b
:1015c8000108a9002108a80011e1a8000080fa007c
:1015d800000006000400fa00881f7800008fbe0093
:1015e80005e1a90021088000f0fc2f0000806000c0
:1015f800200888001e0178009e01900000682900dc
:1016080081c1240095fc070018c0b30002f02f0028
:10161800f3772400d5fc07000000e00001003c003f
:101628000044eb000804e000540032002108800068
:10163800f0fc2f00008060000040a0002008880017
:101648001e0178009e0190000068290081c12400d5
:1016580082fc070002002000031024007ffc070022
:1016680018c0b30002f02f00f3772400bffc070076
:101678000000e00001003c000044eb000804e0002a
:101688003200320021088000f0fc2f00008060004a
:101698000050a000200888001e0178009e019000dc
:1016a8000068290081c124006cfc070002002000aa
:1016b8000328240069fc070018c0b30002f02f00bb
:1016c800f3772400a9fc07000000e00001003c00bb
:1016d8000044eb000804e0001000320021088000fc
:1016e8000003200001007000200888001e01780017
:1016f8009e0190000068290081c1240057fc070062
:10170800020020000338240054fc070099fc07005d
:101718000000780010088800200037001e017800bb
:101728009e0190000068290081c124004bfc07003d
:10173800020020000328240048fc07008dfc070055
:101748000000780010088800140037001e01780097
:101758009e0190000068290081c124003ffc070019
:1017680002002000031024003cfc070081fc070055
:101778000000780010088800080037001e01780073
:101788009e0190000068290081c1240033fc0700f5
:1017980078fc070000007800100888000421a900e0
:1017a8000068a9002068a80005e1a8004f04780097
:1017b8000080fa00000006000400fa00881f780084
:1017c800008fbe001fe1a900f1088000f0fc2f0087
:1017d80000806000f00888001e0178009e019000db
:1017e8000068290081c124001cfc070018c0b30050
:1017f80002f02f00f37724005cfc07000000e000f3
:1018080001003c000044eb000804e00054003200f2
:10181800f1088000f0fc2f00008060000040a0006c
:10182800f00888001e0178009e01900000682900d9
:1018380081c1240009fc07000200200003102400d5
:1018480006fc070018c0b30002f02f00f37724004d
:1018580046fc07000000e00001003c000044eb00eb
:101868000804e00032003200f1088000f0fc2f008c
:10187800008060000050a000f00888001e01780079
:101888009e0190000068290081c12400f3fb070035
:101898000200200003282400f0fb070018c0b30052
:1018a80002f02f00f377240030fc07000000e0006e
:1018b80001003c000044eb000804e0001000320086
:1018c800f10880000003200001007000f008880083
:1018d8001e0178009e0190000068290081c1240043
:1018e800defb07000200200003382400dbfb0700b2
:1018f80020fc070000007800d0088800200037008e
:101908001e0178009e0190000068290081c1240012
:10191800d2fb07000200200003282400cffb0700a9
:1019280014fc070000007800d00888001400370075
:101938001e0178009e0190000068290081c12400e2
:10194800c6fb07000200200003102400c3fb0700a9
:1019580008fc070000007800d0088800080037005d
:101968001e0178009e0190000068290081c12400b2
:10197800bafb0700fffb070000007800d0088800ca
:101988001e21a9000368a9002368a8001fe1a80078
:101998004f0478000080fa00000006000000fa00fa
:1019a8001160800080ff2f000080600010608800b8
:1019b80000fa20002060880023aca800238ca8002f
:1019c80011618000f03f2f000080600000a0a0009f
:1019d800106188003000200020618800c3aca80096
:1019e800c38ca80011668000f03f2f0000806000c3
:1019f80000a0a00010668800300020002066880043
:101a080001eca8000080fa00000006000600fa00b9
:101a1800008fbe00220798002e0090000000e00012
:101a280005003a001e0178009e019000c2808800df
:101a3800d3808800040037001e0178009e019000c2
:101a480082808800938088000080fa0000000600e9
:101a58000000fa00889fbe00e4808000f5808000c6
:101a6800c0808000d180800018c0b3000001be0093
:101a78000400be00bbfb07000000e00001003500c9
:101a88000044eb000804e0000d003200c88080002c
:101a9800d9808000e4808000f5808000308080005c
:101aa800418080000001be000400be000efb07005c
:101ab8000801be00b5000700e0808800f1808800ba
:101ac800e4808000f5808000c0808000d1808000a4
:101ad80018c0b3000001be000400be00a3fb07004d
:101ae8000000e00001003c000044eb000804e000b6
:101af8000d003200c8808000d9808000e48080001a
:101b0800f580800030808000418080000001be00a8
:101b18000400be00f3fa07000801be0083000700b6
:101b2800e0808800f1808800e0808000f1808000fb
:101b380018c0b3006011b8008cfb07000000e0007b
:101b480001003d000044eb000804e00004003200fe
:101b5800c3cca90024eea800c3eca80003003700fa
:101b6800c3eca90024cea800c3cca800e080800064
:101b7800f1808000570007000200200003222400a3
:101b88000dfc07009cfb0700000078003066880009
:101b9800a4808000b58080008080800091808000d3
:101ba80018c0b3000001be000400be006dfb0700b2
:101bb8000000e000010035000044eb000804e000ec
:101bc8000d0032008880800099808000a480800009
:101bd800b580800030808000418080000001be0018
:101be8000400be00c0fa07000801be006700070035
:101bf800a0808800b1808800a4808000b580800023
:101c0800808080009180800018c0b3000001be0071
:101c18000400be0055fb07000000e00001003c0086
:101c28000044eb000804e0000d00320088808000ca
:101c380099808000a4808000b5808000308080007a
:101c4800418080000001be000400be00a5fa070024
:101c58000801be0035000700a0808800b180880018
:101c6800a0808000b180800018c0b3006011b80067
:101c78003efb07000000e00001003d000044eb00cf
:101c88000804e0000400320023cca90015eea800e7
:101c980023eca8000300370023eca90015cea80008
:101ca80023cca800a0808000b18080000900070034
:101cb8000200200003222400bffb07004efb0700a0
:101cc80000007800306188004f04be000080fa00f0
:101cd800000006000400fa00881f7800008fbe008c
:101ce80018c0b3006011b8001e0078009e00900074
:101cf8001efb07000000e00001003d000044eb006f
:101d08000804e000030032001e0078009e009000e6
:101d1800030037001e0078009e00900001f0a2002a
:101d28004f0478000080fa00000006000800fa005e
:101d3800881f7800008fbe0022079800330798009c
:101d480018c0b3002e019000be0190001e0078005c
:101d58009e00900005fb07000000e00001003c0029
:101d68000044eb000804e000030032001e00780085
:101d78009e009000020037002e009000be009000e8
:101d88004f0478000080fa00000006000800fa00fe
:101d9800881f7800008fbe0022079800330798003c
:101da80018c0b3002e019000be0190001e007800fc
:101db8009e009000ebfa07000000e00001003500eb
:101dc8000044eb000804e000030032001e00780025
:101dd8009e009000020037002e009000be00900088
:101de8004f0478000080fa00000006000c00fa009a
:101df800881f7800008fbe002207980033079800dc
:101e0800440798005507980018c0b3004e01900089
:101e1800de0190001e0078009e009000d3fa0700b3
:101e28000000e00001003c000044eb000804e00072
:101e3800040032004e019000de019000028fbe00c7
:101e48000e00370018c0b3002e019000be019000ac
:101e58001e0078009e009000c2fa07000000e00013
:101e6800010035000044eb000804e00003003200e4
:101e78002e019000be019000028fbe001e00780067
:101e88009e0090004f0478000080fa0000000600d1
:101e98000000fa0021e3a9002143a80001198000ed
:101ea800f0cf2f0000806000001988002043a900af
:101eb80001198000000e2000010070000019880040
:101ec80011198000f0ff21000080600010198800bf
:101ed8002343a80011198000f0cf2f000080600074
:101ee800101988001119800030f82f000080600058
:101ef8000040a000101988002203a9002223a9008d
:101f080025e3a900f0c0b30024e3b700211980003d
:101f1800f00f2e008080600000f0200001007000ab
:101f2800201988003303a9004feea8002e0ea80040
:101f38002f6ea8006f2ea8001e2ea8003063a800e0
:101f480030c3a8003163a8002e03a80031e3a8001d
:101f58004119800000fc2f000080600040198800b3
:101f680028e3a90001a8a90021a8a80021e3a80046
:101f78000080fa00000006000000fa002023a800f4
:101f88000080fa00000006000000fa00400321006b
:101f98000080fa00000006000000fa000dd0bf0023
:101fa8000080fa00000006000000fa000d70ef0043
:101fb8000080fa00000006000000fa00f00320008c
:101fc800303a8800213a8000f0f32f00008060004a
:101fd800203a8800213a800000fe2f00008060002f
:101fe8000000a000203a880012002000800720008e
:101ff800a1092000337420008049780081497800c5
:1020080082497800103a8000000178000200a000a0
:1020180060042000710520002374200080497800a6
:10202800814978008249780000000000113a800058
:10203800000027008080600000002100808f500091
:10204800faff3a0000000000113a80000002200068
:10205800008060000000e000fbff32000080fa0012
:04206800000006006e
:020000040000fa
:10206c000a100000020000008000000000100000b8
:10207c0006000000800000000e100000260000008a
:10208c008000000006100000040000008200000028
:10209c000000a00040000000341000000a00000006
:1020ac00800000000c100000020000008000000006
:0420bc000000000020
:020000040000fa
:1020c0000000fa000e2eef001e2eef002e2eef0065
:1020d0003e2eef004e2eef005e2eef006e2eef0034
:1020e000214ea90060cea90060eea90011cea90082
:1020f00011eea90020cea90020eea9000080fa0070
:0421000000000600d5
:020000040000fa
:02000004000af0
:04afe000cfff00009f
:020000040000fa
:02000004000af0
:04afe400ffff00006b
:020000040000fa
:02000004000af0
:04afe8007fff0000e7
:020000040000fa
:02000004000af0
:04afec005fff000003
:020000040000fa
:02000004000af0
:04aff00038ff000026
:020000040000fa
:02000004000af0
:04aff400ffff00005b
:00000001FF
