:020000040000fa
:080000000002040000000000f2
:020000040000fa
:04000800de03000013
:020000040000fa
:04000c00de0300000f
:020000040000fa
:04001000de0300000b
:020000040000fa
:04001400de03000007
:020000040000fa
:04001800de03000003
:020000040000fa
:04001c00de030000ff
:020000040000fa
:04002000de030000fb
:020000040000fa
:04002400de030000f7
:020000040000fa
:04002800de030000f3
:020000040000fa
:04002c00de030000ef
:020000040000fa
:04003000de030000eb
:020000040000fa
:0400340002030000c3
:020000040000fa
:04003800de030000e3
:020000040000fa
:04003c00de030000df
:020000040000fa
:04004000de030000db
:020000040000fa
:04004400de030000d7
:020000040000fa
:04004800fa020000b8
:020000040000fa
:04004c00de030000cf
:020000040000fa
:04005000de030000cb
:020000040000fa
:040054009a0300000b
:020000040000fa
:040058007003000031
:020000040000fa
:04005c004c03000051
:020000040000fa
:04006000de030000bb
:020000040000fa
:04006400de030000b7
:020000040000fa
:04006800de030000b3
:020000040000fa
:04006c00de030000af
:020000040000fa
:04007000de030000ab
:020000040000fa
:04007400de030000a7
:020000040000fa
:04007800de030000a3
:020000040000fa
:04007c00de0300009f
:020000040000fa
:04008000de0300009b
:020000040000fa
:04008400de03000097
:020000040000fa
:04008800de03000093
:020000040000fa
:04008c00de0300008f
:020000040000fa
:04009000de0300008b
:020000040000fa
:040094002203000043
:020000040000fa
:04009800de03000083
:020000040000fa
:04009c00de0300007f
:020000040000fa
:0400a000de0300007b
:020000040000fa
:0400a400de03000077
:020000040000fa
:0400a800de03000073
:020000040000fa
:0400ac00de0300006f
:020000040000fa
:0400b000de0300006b
:020000040000fa
:0400b400de03000067
:020000040000fa
:0400b800de03000063
:020000040000fa
:0400bc00de0300005f
:020000040000fa
:0400c000de0300005b
:020000040000fa
:0400c400de03000057
:020000040000fa
:0400c800de03000053
:020000040000fa
:0400cc00de0300004f
:020000040000fa
:0400d000de0300004b
:020000040000fa
:0400d400de03000047
:020000040000fa
:0400d800de03000043
:020000040000fa
:0400dc00de0300003f
:020000040000fa
:0400e000de0300003b
:020000040000fa
:0400e400de03000037
:020000040000fa
:0400e800de03000033
:020000040000fa
:0400ec00de0300002f
:020000040000fa
:0400f000de0300002b
:020000040000fa
:0400f400de03000027
:020000040000fa
:0400f800de03000023
:020000040000fa
:0400fc00de0300001f
:020000040000fa
:04010000de0300001a
:020000040000fa
:04010400de03000016
:020000040000fa
:04010800de03000012
:020000040000fa
:04010c00de0300000e
:020000040000fa
:04011000de0300000a
:020000040000fa
:04011400de03000006
:020000040000fa
:04011800de03000002
:020000040000fa
:04011c00de030000fe
:020000040000fa
:04012000de030000fa
:020000040000fa
:04012400de030000f6
:020000040000fa
:04012800de030000f2
:020000040000fa
:04012c00de030000ee
:020000040000fa
:04013000de030000ea
:020000040000fa
:04013400de030000e6
:020000040000fa
:04013800de030000e2
:020000040000fa
:04013c00de030000de
:020000040000fa
:04014000de030000da
:020000040000fa
:04014400de030000d6
:020000040000fa
:04014800de030000d2
:020000040000fa
:04014c00de030000ce
:020000040000fa
:04015000de030000ca
:020000040000fa
:04015400de030000c6
:020000040000fa
:04015800de030000c2
:020000040000fa
:04015c00de030000be
:020000040000fa
:04016000de030000ba
:020000040000fa
:04016400de030000b6
:020000040000fa
:04016800de030000b2
:020000040000fa
:04016c00de030000ae
:020000040000fa
:04017000de030000aa
:020000040000fa
:04017400de030000a6
:020000040000fa
:04017800de030000a2
:020000040000fa
:04017c00de0300009e
:020000040000fa
:04018000de0300009a
:020000040000fa
:04018400de03000096
:020000040000fa
:04018800de03000092
:020000040000fa
:04018c00de0300008e
:020000040000fa
:04019000de0300008a
:020000040000fa
:04019400de03000086
:020000040000fa
:04019800de03000082
:020000040000fa
:04019c00de0300007e
:020000040000fa
:0401a000de0300007a
:020000040000fa
:0401a400de03000076
:020000040000fa
:0401a800de03000072
:020000040000fa
:0401ac00de0300006e
:020000040000fa
:0401b000de0300006a
:020000040000fa
:0401b400de03000066
:020000040000fa
:0401b800de03000062
:020000040000fa
:0401bc00de0300005e
:020000040000fa
:0401c000de0300005a
:020000040000fa
:0401c400de03000056
:020000040000fa
:0401c800de03000052
:020000040000fa
:0401cc00de0300004e
:020000040000fa
:0401d000de0300004a
:020000040000fa
:0401d400de03000046
:020000040000fa
:0401d800de03000042
:020000040000fa
:0401dc00de0300003e
:020000040000fa
:0401e000de0300003a
:020000040000fa
:0401e400de03000036
:020000040000fa
:0401e800de03000032
:020000040000fa
:0401ec00de0300002e
:020000040000fa
:0401f000de0300002a
:020000040000fa
:0401f400de03000026
:020000040000fa
:0401f800de03000022
:020000040000fa
:0401fc00de0300001e
:020000040000fa
:04020000de03000019
:020000040000fa
:04020400de03000015
:020000040000fa
:04020800de03000011
:020000040000fa
:04020c00de0300000d
:020000040000fa
:04021000de03000009
:020000040000fa
:04021400de03000005
:020000040000fa
:04021800de03000001
:020000040000fa
:04021c00de030000fd
:020000040000fa
:04022000de030000f9
:020000040000fa
:04022400de030000f5
:020000040000fa
:04022800de030000f1
:020000040000fa
:04022c00de030000ed
:020000040000fa
:04023000de030000e9
:020000040000fa
:04023400de030000e5
:020000040000fa
:04023800de030000e1
:020000040000fa
:04023c00de030000dd
:020000040000fa
:04024000de030000d9
:020000040000fa
:04024400de030000d5
:020000040000fa
:04024800de030000d1
:020000040000fa
:04024c00de030000cd
:020000040000fa
:04025000de030000c9
:020000040000fa
:04025400de030000c5
:020000040000fa
:04025800de030000c1
:020000040000fa
:04025c00de030000bd
:020000040000fa
:04026000de030000b9
:020000040000fa
:04026400de030000b5
:020000040000fa
:04026800de030000b1
:020000040000fa
:04026c00de030000ad
:020000040000fa
:04027000de030000a9
:020000040000fa
:04027400de030000a5
:020000040000fa
:04027800de030000a1
:020000040000fa
:04027c00de0300009d
:020000040000fa
:04028000de03000099
:020000040000fa
:100400000f2a21000eff27000e01880000000000c7
:10041000000020000000e000020032000001200087
:100420002002880014000700e60007000000e0003a
:1004300003003a0080d821000100200002003700ac
:100440000000200001002000810f70000100320038
:100450000f000700000020000000e0000200320052
:1004600000000200000000008614020000000000ee
:100470000040da000000fe00a00020000000e000c4
:1004800002003200002020009001880000000600d9
:10049000a1028800800478000000eb001f003700f4
:1004a000e284440054a0b4009905ba00e2844400f8
:1004b00054a0b4009906ba00e284440054a0b400e9
:1004c0000006eb00476fde00fd07b200ae018800ba
:1004d000636ce10003003a000ad801000000eb0061
:1004e0000e003700606ce10008003a00004deb00a0
:1004f0000a05e800020039003420ec000af0a000f0
:100500008b05e900f9ff3e00040037006168e10057
:10051000010032000086eb000b00070019c7ba008b
:100520000e04e0001905ba0003003a000a00e000da
:10053000dbff3a0000000600fe07b200ae028800b2
:100540008a047800f5ff37000cd0a300e20f4d00bd
:100550001c00390089027800354dba000a05e80010
:10056000020039003420ec000af0a0008b05e900fd
:100570000f003200254dba000a05e80002003900dc
:100580003420ec000af0a0008b05e90008003200de
:100590000c00e0000600320015cdba000a05e800a4
:1005a000020039003420ec000af0a0008b05e900bd
:1005b0008984e80054a0b4000b00e000e2ff3a0098
:1005c000000006009902ba00055d78008b05e9007d
:1005d000f7ff3200c82ade00055d78008b05e900d0
:1005e000f3ff32000c00e000f1ff320019ddba0029
:1005f000eeff37000000fa000108a9000080fa00b1
:10060000004006003600f800809fbe00829fbe00ba
:10061000849fbe00869fbe000000fa000068a9000b
:100620007e0c0700aa0a07000080fa004f03be00f4
:100630004f02be004f01be004f00be003600f90061
:10064000004006003600f800809fbe00829fbe007a
:10065000849fbe00869fbe000000fa000368a900c8
:10066000708180008181800061004000e08048004e
:100670007081880081818800d40207000080fa0020
:100680004f03be004f02be004f01be004f00be0030
:100690003600f90000400600801f78000000fa00d4
:1006a00001a8a90000188000b094880010188000ec
:1006b000c094880020188000d094880030188000f2
:1006c000e094880040188000f094880010c0b300c7
:1006d0003ff0b7000080fa004f00780000400600ad
:1006e0003600f800809fbe00829fbe00849fbe003f
:1006f000869fbe000000fa000188a9005181800099
:1007000040818000808f500002003200e70b07001c
:10071000010037002c70ef000080fa004f03be008c
:100720004f02be004f01be004f00be003600f90070
:10073000004006003600f800809fbe00829fbe0089
:10074000849fbe00869fbe000000fa000168a900d9
:1007500010118000640060000000e0000100320021
:100760002242a90010118000620060000000e00039
:10077000060032002222a900050037003011800057
:1007800000407800350c0700010037000000000031
:1007900010118000610060000000e000f7ff3a00e7
:1007a0000080fa004f03be004f02be004f01be00a2
:1007b0004f00be003600f900004006000040da009d
:1007c0000000fe000000050003f0a200889fbe00ac
:1007d0008a9fbe008c1f7800d1010700d80133002a
:1007e0006450e1004f0032006420e100520032000a
:1007f00003826c0007003b000905d0000306d0000f
:10080000820f54000c065d00020039000200320025
:1008100089017800030678008582550004003d00b8
:100820000003fd008103fd008502ea008b85420084
:10083000840f720002003b0060001000e08018008e
:100840006011b8000005eb007a28e1000a003900c9
:1008500006007800c75ddd00f707b20087807500ed
:100860002d003700828171000a0178006105600067
:100870008180d1000080d3008502e900f9ff3b00b0
:10088000060440008784480002003b006004140016
:10089000e0841c000988a300070032008a817100ef
:1008a00082817100610164008904d1000884d30051
:1008b0008b05e800170037000978a30013003a0001
:1008c0000b00e000130034008b05e900080444002d
:1008d00089844c000a4474000978a3000d003a0092
:1008e0000b00e000070034008b05e9000804440019
:1008f00089844c0001003a000b0020000978a30015
:10090000f7ff32000001eb00020037008281710026
:100910000a017800470107000cf0a70001f0a000d1
:10092000900137006420e10002003a00838f6c00e0
:10093000900133000801be000200be0089013700ab
:10094000889fbe008a9fbe008c9fbe000004be0030
:100950005e0107000800be00890678006420e100ff
:1009600008003900040032000160a00012022000db
:10097000028288005300370091fc2300b0fd200064
:100980004e0037000006eb0009f0a10003f8230039
:10099000020020000800be0090000700060034009e
:1009a00001f82300000020000801be0049000700f4
:1009b0000004be002c0020000800be0093e82300c5
:1009c000320a230085000700120034000801be002f
:1009d000d1fd2300703d2b007cff07000005be0009
:1009e000b3f32300f27a26000800be00640107007a
:1009f00003f823000200200073ff07000801be0077
:100a000072ff07000a01be00320007000004be00aa
:100a10000c06e8000800be0001f0a1000200200062
:100a2000039823006d0007000800be001600350083
:100a30000801be00520107000005be0032cd2c00a7
:100a400043fb230061ff0700809fbe00126928005e
:100a500003d52b000a00be0049010700620f2100e8
:100a600013ef2b0059ff07000a01be0044010700e5
:100a70004f01be00170007000801be00400107003b
:100a80000801be0051ff07000c00e0000b0032001f
:100a90000c10a70001f0a200b2fd200093fc23007f
:100aa0006260e1000400320022a9200063f023000c
:100ab0000c10a70063f8230044ff07000df0a70007
:100ac00001f0a2004f06be004f05be004f04be005d
:100ad00000000600889fbe008a9fbe008c1f780021
:100ae0000f0107001601330003866c006450e1001b
:100af0002e0032006420e100330032006150e1003a
:100b00002f0032006120e100310032008585550060
:100b1000eb07b000090020000804200005003700a2
:100b20000804440089844c000a0031000603430095
:100b300087834b000001530081815b00f8ff330085
:100b40000203be000800a0000804440089844c0091
:100b5000f6ff3900c639dd00830173000100320061
:100b6000130020008904d1000884d3000998a30051
:100b7000050032000800a7000300a0008904d1008e
:100b80000884d3008b05e8008904d1000884d300d1
:100b90000001eb000281d200a600070001f0a100d5
:100ba0000cf0a70001f0a000ee0037006420e10087
:100bb000f00032000801be000200be00f7ff37005f
:100bc0006120e100eb0032006000b800f3ff370065
:100bd0000000200001f82700f0ff3700140020007b
:100be0001b013700f4ff2f00190137000001be0080
:100bf000b60007000470a70003f0a1006509b1006a
:100c0000160032000d0035006828e10006003500ae
:100c1000f0ff2f00f1ff27000300e00013003b006e
:100c2000010028000000050000004000818048000d
:100c30008502e900fcff3a0008003700f88f420007
:100c400002003c008000eb00000005008100d100a4
:100c50000080d3008502e800fcff3a000300e000ba
:100c600002003b0060001000e08018000000060059
:100c70000001be00950007000470a70003f0a1006a
:100c800003f8a30013003a006509b1001000320018
:100c9000090035006928e100020035000100280044
:100ca0000000050000004000818048008502e90046
:100cb000fcff3a0000000600f88f420005003500f6
:100cc0008100d1000080d3008502e800fcff3a00db
:100cd000000006008000eb00000005004f89de00e8
:100ce00082017800f50037006011b8000301370079
:100cf0000400200000003700889fbe008a9fbe00cd
:100d00008c1f78004f26dd00850007008c00330023
:100d10006120e100430032006250e10041003e00ea
:100d20003e0039006420e1003c003200058255009d
:100d30000f003b000402e80038003a00800f530027
:100d4000818f5b00350034000800be0003f0a10075
:100d500001f0a60003f0a0000cf0a7009bfe070026
:100d6000800037000603430087834b000c46460093
:100d70000005530081855b00020033000a03be00ba
:100d80000c00a0000402e900f6ff3b008505780096
:100d90000602430087824b0004003a006000b8005e
:100da00009f0a70001f0a0006e0037000002520019
:100db00081825a000704e000040033000603430068
:100dc00087834b008b05e900faff3700090578009f
:100dd0000604be000203be006011b8001500070043
:100de000e00f5200e08f5a000700350002003c007f
:100df0000c08a300040032000601be0003f0a000ae
:100e00000cf0a70071fe07000a85680001f0a10040
:100e10000af0a70001f0a000520037000800be0051
:100e200050003700100220000cf0a600008288005d
:100e30005000370081002000618055000b003d000c
:100e40000b00200061fe2f000100e1001d003400b6
:100e500082817100610164008904d1000884d3009b
:100e60000000e800faff3a00710020006100640011
:100e700003007000020060000900320061044400b9
:100e8000e0844c000988a500050032008b05e800cd
:100e90006808e10002003a008904d1000884d30008
:100ea000f20f20000258e10005003d00c75ddd00a3
:100eb000f907b2008980750008007800000006007c
:100ec0000bf827008b00780000000500c70ade0041
:100ed000f107b200f50fb20008003200e1cf420086
:100ee000020032000170a00024000500810f700094
:100ef000010032000408050044000500810f700065
:100f000002003a00140005008502e90000004000dc
:100f100081c04800fcff3b000170a00024000500d8
:100f20000004be00e9ff07000003be000405be0088
:100f30000200be00e5ff0700844f750000000600b8
:100f40000200be006450e100050036006420e100ac
:100f5000020036000968a30001003a000800be0044
:100f60000160a0004f0678004f05be004f04be0090
:100f700000000600f0ff2f00f1ff2700f9ff370007
:100f8000889fbe008a9fbe008c1f7800e4ff070088
:100f9000ebff330003866c006450e1002400320054
:100fa0006420e100270032006150e100220032009d
:100fb0006120e100210032008b854200eb07b10087
:100fc0000134b800003ab8000804420089844a009d
:100fd000013ab8000030b8008880400009014a009a
:100fe00004003300000040008180480002014900f5
:100ff0008b05e900c909dd008301700001003200a2
:1010000013002000c814de004814dd004709de008c
:101010001200b200c808de000884700085ff0700d7
:1010200001f0a1000cf0a70001f0a000cdff3700f7
:101030006120e100cfff32000801be000200be00c7
:10104000f7ff37006150e100fcff3a00c9ff3700ad
:10105000889fbe008a9fbe00841f7800b0ff0700f3
:101060004f00780011003300f0ff2f00838f6c00d9
:1010700006003b00040565000a00a70008003700d1
:1010800009f0a6001000200008003700820f54006d
:10109000838f5c00030039001000200001003e0037
:1010a0000000200009f0a7000000ea004f05be0084
:1010b0004f04be000000e00000000600881f78001a
:1010c000030478000300e00007003d00600010000a
:1010d000e080180060011900e081190002003b0067
:1010e00001f02d00030037000400070008f0a700fe
:1010f00001f0a0004f04780000000600889fbe00a9
:101100008a9fbe0000827000040271000482710098
:10111000260032000004be000200be006011b800cc
:101120006b092000950220000182cf000a003900df
:101130000541b1000082cf00070039000541b10030
:101140000982cf00040039000541b1000882cf00b8
:10115000010039000541b100054252001200320081
:101160000a003b0082817100610164008100d100ae
:101170000080d3008984d3000884d3008b05e80065
:101180000442e800f7ff3a00070037000804440073
:1011900089844c0000004800818048008b05e900ec
:1011a0000442e900f9ff3a0022ff07004f05be00a4
:0811b0004f04be000000060020
:020000040000fa
:1011b8004d6f000064650000204100007574000058
:0411c8006f000000b4
:020000040000fa
:1011cc000000fa00881f78003bd0bf000080fb00b5
:1011dc00cf80de007201200003002000820f50003f
:1011ec00838f580019013e000006010017003700dc
:1011fc00260037002f0037006600370067003700e5
:10120c007500370076003700840037008500370002
:10121c009400370095003700a4003700a500370074
:10122c00b2003700b3003700c2003700c3003700ec
:10123c00d2003700d3003700e2003700f30037004c
:10124c0000013700e1003700ee0037002e30ef00d0
:10125c003030ef000000eb006093880010c0b3004a
:10126c003af0b7000001eb006000b80083070700fc
:10127c00120020006000b8008007070010c0b30007
:10128c003bf0b7003bd0bf004402070072818000e6
:10129c0083818000803e200001002000800f5100df
:1012ac00818f5900ec00360020c0b3003bf0b70032
:1012bc00ea003700409380005193800018c0b300bf
:1012cc0002002000031f240043fe07000000e00082
:1012dc0001003d000044eb000804e0000400320073
:1012ec0064cea90064eea800254ea9001d003700ad
:1012fc00409380005193800018c0b300020020007e
:10130c00031a240034fe07000000e00001003d0039
:10131c000044eb000804e0000400320064cea80096
:10132c0064eea900254ea9000e0037004093800002
:10133c005193800018c0b30002002000031a24004f
:10134c0023fe07000000e000010034000044eb0025
:10135c000804e0000300320064cea90064eea9008a
:10136c00254ea90040938000519380000001eb00b2
:10137c004207070040938000519380001200200028
:10138c003e07070030c0b3003bf0b7003bd0bf00b6
:10139c0002020700b4000700b00037000001eb00a8
:1013ac0000002000011f2400340707001200200059
:1013bc006000b8003107070050c0b3003bf0b70025
:1013cc003bd0bf00f501070064cea80064eea80076
:1013dc00254ea900a1003700a30007009f0037008d
:1013ec000001eb006000b800240707001200200089
:1013fc0000002000011f24002007070070c0b3006c
:10140c003bf0b7003bd0bf00e401070064cea9005d
:10141c0064eea900254ea80090003700920007004a
:10142c008e0037000001eb000000200001172400a3
:10143c0012070700120020000000200001172c00ea
:10144c000e07070090c0b3003bf0b7003bd0bf00c5
:10145c00d201070064cea80064eea800254ea800b7
:10146c007e003700800007007c0037000001eb0095
:10147c000000200001172c000007070012002000bc
:10148c000000200001172400fc060700b0c0b300c8
:10149c003bf0b7003bd0bf00c001070064cea800f2
:1014ac0064eea800254ea8006c0037006e00070003
:1014bc006a0037000001eb006000b800ef0607007f
:1014cc00120020006000b800ec060700d0c0b3008a
:1014dc003bf0b7003bd0bf00b001070064cea900c1
:1014ec0064eea900254ea9005c0037005e000700e1
:1014fc005a0037000001eb000000200001172c00ff
:10150c00de060700120020000000200001172c004e
:10151c00da060700f0c0b3003bf0b7003bd0bf00c9
:10152c009e01070064cea90064eea900254ea90017
:10153c004a0037004c000700480037000001eb0060
:10154c000000200001172400cc0607001200200028
:10155c000000200001122400c806070010c1b300cf
:10156c003bf0b7003bd0bf008c01070064cea80055
:10157c0064eea800254ea900380037003a00070099
:10158c00360037000001eb0000002000011224009f
:10159c00ba060700120020000000200001172400ea
:1015ac00b606070064cea90064eea900254ea8007b
:1015bc0030c1b3003bf0b7003bd0bf007701070050
:1015cc002600370028000700240037000001eb003c
:1015dc006000b800a9060700120020006000b800e7
:1015ec00a606070070c1b3003bf0b70064cea8009c
:1015fc0064eea900254ea8003bd0bf006701070090
:10160c001600370018000700140037000001eb002b
:10161c006000b80099060700120020006000b800b6
:10162c009606070050c1b3003bf0b70064cea8008b
:10163c0064eea900254ea8003bd0bf00570107005f
:10164c000600370008000700040037003b70ef006d
:10165c000000000001003700000000004f0478007b
:10166c000080fa00000006000200fa00881f7800d3
:10167c003ad0bf00e14f50002d013a000040eb0082
:10168c00004f7800e0928000f192800018c0b30007
:10169c0002002000031a24004dfd07000000e000aa
:1016ac00010035000044eb000804e00003003200a8
:1016bc0030c0b300004f7800df003700009380008b
:1016cc001193800018c0b300020020000312240004
:1016dc003ffd07000000e000010035000044eb0076
:1016ec000804e0000b00320020938000319380004e
:1016fc0018c0b300020020000312240036fd0700be
:10170c000000e00001003c000044eb000804e00095
:10171c000b003a00009380001193800018c0b300b6
:10172c0002002000030a240029fd07000000e0004d
:10173c00010035000044eb000804e0000300320017
:10174c0070c0b300004f7800bb00370000938000de
:10175c001193800018c0b300020020000312240073
:10176c001dfd07000000e00001003c000044eb0000
:10177c000804e0000b0032002093800031938000bd
:10178c0018c0b300020020000312240010fd070053
:10179c000000e000010035000044eb000804e0000c
:1017ac000b003a00209380003193800018c0b300e6
:1017bc0002002000030a240005fd07000000e000e1
:1017cc00010035000044eb000804e0000300320087
:1017dc0060c0b300004f7800970037000093800082
:1017ec001193800018c0b3000200200003122400e3
:1017fc00f7fc07000000e000010035000044eb009e
:10180c000804e0001e003200209380003193800019
:10181c0018c0b3000200200003122400ecfc0700e7
:10182c000000e000010035000044eb000804e0007b
:10183c0013003200049380001593800020938000e5
:10184c003193800018c0b3000001be000400be003c
:10185c00dffc07000000e000010035000044eb0055
:10186c000804e0000300320040c0b300004f7800d1
:10187c007100370050c0b300004f78006e00370085
:10188c00a0928000b192800018c0b300020020002a
:10189c00031a2400cefc07000000e0000100350014
:1018ac000044eb000804e0000e003200c0928000ff
:1018bc00d192800018c0b30002002000031a24004b
:1018cc00c3fc07000000e000010035000044eb0001
:1018dc000804e0000300320030c0b300004f780071
:1018ec0055003700a0928000b192800018c0b30060
:1018fc0002002000031f2400b5fc07000000e000dc
:10190c00010035000044eb000804e000190032002f
:10191c00e0928000f192800018c0b3000200200019
:10192c00031a2400acfc07000000e00001003c009e
:10193c000044eb000804e0000e003200c09280006e
:10194c00d192800018c0b30002002000031f2400b5
:10195c00a1fc07000000e00001003c000044eb008b
:10196c000804e0000300320020c0b300004f7800f0
:10197c0031003700a0928000b192800018c0b300f3
:10198c0002002000031f240093fc07000000e0006d
:10199c0001003c000044eb000804e0001900320098
:1019ac00e0928000f192800018c0b3000200200089
:1019bc00031a240088fc07000000e00001003c0032
:1019cc000044eb000804e0000e003200c0928000de
:1019dc00d192800018c0b30002002000031f240025
:1019ec007bfc07000000e000010035000044eb0028
:1019fc000804e0000300320010c0b300004f780070
:101a0c000d0037000040eb00004f78006093800021
:101a1c008000e80010002800008060000000e0005a
:101a2c0004003d000000e900e1ff2f000080700081
:101a3c000000e800609388001e4078000004e0007d
:101a4c0003003a0020c0b3003cf0b7002f00370071
:101a5c001e407800e34f500009003a00609380006c
:101a6c000000e00003003a00a0c0b3003cf0b70057
:101a7c002600370080c0b3003cf0b70023003700cd
:101a8c001e407800e24f500003003a0040c0b30003
:101a9c003cf0b7001d0037001e407800e14f5000ad
:101aac0003003a0060c0b3003cf0b70017003700e9
:101abc001e407800e44f500003003a0020c1b300f0
:101acc003cf0b700110037001e407800e54f500085
:101adc0003003a0000c1b3003cf0b7000b00370024
:101aec001e407800e74f500003003a0060c1b3007d
:101afc003cf0b700050037001e407800e64f500060
:101b0c0002003a0040c1b3003cf0b7003cd0bf002b
:101b1c008080fb003bd0bf000080fb000000e90090
:101b2c00808f5000020032003cd0bf003bf0b70069
:101b3c004f0478000080fa00000006000200fa0052
:101b4c00004f78001e417800b103210082487800d4
:101b5c000080fa00000006000200fa00004f780036
:101b6c001e4078000004e00004003a003a70ef00d8
:101b7c00c0c0b3003bf0b700060037001e40780031
:101b8c00e14f500003003a0010c0b3003af0b70028
:101b9c003b70ef000080fa00000006000800fa001d
:101bac00604798000000eb00000f78001e80e800f2
:101bbc00ee409000017778001e0fe8001e80e800d0
:101bcc008040eb00017778001e0fe8001e80e800d3
:101bdc008040eb00017778001e0fe8001e80e800c3
:101bec008040eb00017778001e0fe80070818000c8
:101bfc0081818000804078001e80e80001777800a9
:101c0c001e0fe8000e80e800000178005100200053
:101c1c0000052000450107000080fa0000000600c6
:101c2c000400fa00881f7800008fbe0018c0b300b3
:101c3c006011b8001e0078009e009000e6fb0700c3
:101c4c000000e00001003d000044eb000804e0004f
:101c5c00030032001e0078009e0090000300370045
:101c6c001e0078009e00900001f0a2004f04780046
:101c7c000080fa00000006000800fa00881f7800b7
:101c8c00008fbe00220798003307980018c0b300dd
:101c9c002e019000be0190001e0078009e00900066
:101cac00cdfb07000000e00001003c000044eb000d
:101cbc000804e000030032001e0078009e00900033
:101ccc00020037002e009000be0090004f047800f8
:101cdc000080fa00000006000800fa00881f780057
:101cec00008fbe00220798003307980018c0b3007d
:101cfc002e019000be0190001e0078009e00900006
:101d0c00b3fb07000000e000010035000044eb00cd
:101d1c000804e000030032001e0078009e009000d2
:101d2c00020037002e009000be0090004f04780097
:101d3c000080fa00000006000c00fa00881f7800f2
:101d4c00008fbe00220798003307980044079800c4
:101d5c005507980018c0b3002e019000be019000ea
:101d6c001e0078009e00900099fb07000000e00028
:101d7c00010035000044eb000804e00003003200d1
:101d8c002e009000be0090001000370018c0b30069
:101d9c004e019000de0190001e0078009e00900025
:101dac008dfb07000000e00001003c000044eb004c
:101dbc000804e000030032004e009000de009000aa
:101dcc00020037001e0078009e0090004f0478003f
:101ddc000080fa00000006000800fa0020079800b6
:101dec0031079800b2fd2000930424002e009000cf
:101dfc00be00900071fa0700b2fd2000930c240085
:101e0c00b8fb0700b2fd2000930424006cfa070015
:101e1c00008fbe00b2fd2000930424001e00780049
:101e2c009e00900066fa0700b2fd2000930c24007f
:101e3c00acfb0700b2fd2000930424005ffa0700fe
:101e4c000080fa00000006000a00fa003007980033
:101e5c0041079800be0090004e009000008f40009b
:101e6c001e00780010017800900190001207980075
:101e7c00230798001e009000ae0090000080fa002e
:101e8c00000006000600fa001007980021079800d1
:101e9c009e0090002e009000008f40001e007800e5
:101eac0090009000100078000080fa0000000600fe
:101ebc000c00fa00200798003107980042079800a0
:101ecc005307980068004700100798000000eb00cb
:101edc00000f78000a0037003e0090001e00400002
:101eec00ae009000008040009e0078001e01900023
:101efc008100410091407800014878001e0fe800f5
:101f0c001e007800e30f5000f3ff34000080fa004d
:101f1c00000006000c00fa0020079800310798001a
:101f2c004207980053079800680047001007980074
:101f3c000000eb00000f78000b0037003e00900013
:101f4c001e004000ae0090000080400032002000d7
:101f5c009e0051001e0190008100410091407800cc
:101f6c00014878001e0fe8001e007800e30f5000b7
:101f7c00f2ff34000080fa00000006000c00fa00aa
:101f8c0020079800310798004207980053079800e3
:101f9c0068004700100798000000eb00000f780065
:101fac000a0037003e0090001e004000ae0090007a
:101fbc00008040009e0078001e01900081004100ce
:101fcc0091407800014878001e0fe8001e00780050
:101fdc00e70f5000f3ff34000080fa000000060009
:101fec000800fa00881f7800300798003e00900027
:101ffc00301f7800201778000000eb0020079800b5
:10200c00180037002e0090004200dd00be0090004a
:10201c0000804000900090001000780018c0b300c1
:10202c001e0178009e019000e9fa07000000e00014
:10203c00010035000044eb000804e000060032000b
:10204c002e0090004200dd00be0090000080400099
:10205c00301f7800201778002e0090000000e80058
:10206c00200798002e009000e40f5000e5ff34008c
:10207c001e0078009e0090004f0478000080fa004b
:10208c00000006000a00fa002007980031079800ab
:10209c00420798000040eb00004f78000000eb0076
:1020ac0010079800e0cfb3001e4f68002e00900080
:1020bc004880de00004078001e4f68002e00900023
:1020cc00004078001e4f68003e0090004880de0003
:1020dc00004078001e4f68003e00900000407800e1
:1020ec001e4f68000000eb00100798000800370036
:1020fc001e009000ce009000008040001040780040
:10210c001e4f68001e0090000000e80010079800a9
:10211c009e0090003e009000808f5000f4ff350030
:10212c001e4078000080fa00000006000e00fa0045
:10213c00889fbe00400798005107980062079800de
:10214c000f0478000f007800800478005e00900087
:10215c00660040008000e900210798000000e800bc
:10216c000000e8000000d100800040000f00780063
:10217c00818747000000e8000000d100000040000b
:10218c00300798000000eb00000f78000000eb0017
:10219c00100798003e0090001e004000e1cfb300f5
:1021ac00014878001e0fe8004e0090004880de00c9
:1021bc00804078003e0090001e00400001487800ee
:1021cc001e0fe8004e009000804078003e0090000a
:1021dc001e004000014878001e0fe8005e009000d1
:1021ec004880de00804078003e0090001e004000d9
:1021fc00014878001e0fe8005e00900080407800d7
:10220c003e0090001e004000014878001e0fe800c0
:10221c000000eb00100798000b0037001e00900028
:10222c00ee00900000804000904078003e0090004e
:10223c001e004000014878001e0fe8001e009000b0
:10224c000000e800100798009e0090005e009000cf
:10225c00808f5000f1ff35006e019000de00900081
:10226c004e00900087ff0700be0090009e8040004b
:10227c00804878001e0fe8003e0090009e00780019
:10228c00c904070089077800880778004f04be004e
:10229c000080fa00000006000400fa0020479800b5
:1022ac0030818000e30f500028003200e30f500013
:1022bc0005003e00e10f500013003200e10f50000a
:1022cc001a003e0007003700e50f500039003200bd
:1022dc00e50f500026003900e60f50004300320095
:1022ec00520037002e409000e24f400002003a00ae
:1022fc0010002000308188002030ef002230ef00e9
:10230c002430ef004d0037002e4090000080fb0081
:10231c00c880de00400620008088b900008188005b
:10232c002000200030818800440037002e409000af
:10233c008080fb00008180000080400000818800cc
:10234c0030002000308188003c0037002e40900087
:10235c000080fb00c880de00400620008088b900a9
:10236c001081880040002000308188003300370045
:10237c002e4090008080fb00108180000080400087
:10238c001081880011818000f00f2000808f500098
:10239c0003003c00108180000000e00002003d00c2
:1023ac002630ef00250037005000200030818800d7
:1023bc002200370020818000210421008080400011
:1023cc002e419000824878000000e80020818800af
:1023dc002181800010818000808f50001600350014
:1023ec00600020003081880014003700ae4090005f
:1023fc00014f7800118180000081800022042100af
:10240c0020ff0700104798001e4090009e4f500080
:10241c0004003a0011818000008180002204210018
:10242c00080007002630ef00040037002630ef00cc
:10243c000000000001003700000000000080fa00de
:10244c00000006000600fa00000f78001107980043
:10245c00220798001e00780011052000810f500003
:10246c000400320021052000810f50000e003200c4
:10247c00150037003ad0bf000004e00004003a0019
:10248c002e00900010407800acfd07000e003700c5
:10249c00c08d280000017800910020000008200069
:1024ac0022ff0700080037002e0090001040780033
:1024bc00a9fd07002e01900011002000300520001e
:1024cc001aff0700000000000080fa000000060060
:1024dc000000fa0013e1a90011e1a9001061a800a5
:1024ec001021a90081088000f0fc2f000080600002
:1024fc000040a000800888000a21ef000621ef00b0
:10250c008009200070088800006829006008880095
:10251c002142800080ff2f00008060000000a0009e
:10252c00204288000108a9002108a80011e1a80098
:10253c000080fa00000006000400fa00881f7800f2
:10254c00008fbe0005e1a90021088000f0fc2f00df
:10255c0000806000200888001e0178009e01900019
:10256c000068290081c1240057f9070018c0b30086
:10257c0002f02f00f377240097f907000000e00029
:10258c0001003c000044eb000804e0005400320061
:10259c0021088000f0fc2f00008060000040a000ab
:1025ac00200888001e0178009e0190000068290018
:1025bc0081c1240044f9070002002000031024000c
:1025cc0041f9070018c0b30002f02f00f377240084
:1025dc0081f907000000e00001003c000044eb0022
:1025ec000804e0003200320021088000f0fc2f00cb
:1025fc00008060000050a000200888001e017800b8
:10260c009e0190000068290081c124002ef907006a
:10261c0002002000032824002bf9070018c0b30087
:10262c0002f02f00f37724006bf907000000e000a4
:10263c0001003c000044eb000804e00010003200f4
:10264c002108800000032000010070002008880091
:10265c001e0178009e0190000068290081c12400b1
:10266c0019f90700020020000338240016f90700ae
:10267c005bf9070000007800100888002000370084
:10268c001e0178009e0190000068290081c1240081
:10269c000df9070002002000032824000af90700a6
:1026ac004ff907000000780010088800140037006c
:1026bc001e0178009e0190000068290081c1240051
:1026cc0001f907000200200003102400fef80700a7
:1026dc0043f9070000007800100888000800370054
:1026ec001e0178009e0190000068290081c1240021
:1026fc00f5f807003af90700000078001008880088
:10270c000421a9000068a9002068a80005e1a80020
:10271c004f0478000080fa00000006000400fa0064
:10272c00881f7800008fbe001fe1a900f10880000f
:10273c00f0fc2f0000806000f00888001e0178007b
:10274c009e0190000068290081c12400def807007a
:10275c0018c0b30002f02f00f37724001ef9070015
:10276c000000e00001003c000044eb000804e00025
:10277c0054003200f1088000f0fc2f000080600053
:10278c000040a000f00888001e0178009e01900017
:10279c000068290081c12400cbf80700020020004a
:1027ac0003102400c8f8070018c0b30002f02f0073
:1027bc00f377240008f907000000e00001003c005a
:1027cc000044eb000804e00032003200f108800005
:1027dc00f0fc2f00008060000050a000f008880082
:1027ec001e0178009e0190000068290081c1240020
:1027fc00b5f807000200200003282400b2f80700f7
:10280c0018c0b30002f02f00f3772400f2f8070091
:10281c000000e00001003c000044eb000804e00074
:10282c0010003200f108800000032000010070004d
:10283c00f00888001e0178009e01900000682900b5
:10284c0081c12400a0f807000200200003382400f6
:10285c009df80700e2f8070000007800d008880017
:10286c00200037001e0178009e01900000682900ae
:10287c0081c1240094f807000200200003282400e2
:10288c0091f80700d6f8070000007800d0088800ff
:10289c00140037001e0178009e019000006829008a
:1028ac0081c1240088f807000200200003102400d6
:1028bc0085f80700caf8070000007800d0088800e7
:1028cc00080037001e0178009e0190000068290066
:1028dc0081c124007cf80700c1f8070000007800d3
:1028ec00d00888001e21a9000368a9002368a8004d
:1028fc001fe1a8004f0478000080fa0000000600d9
:10290c001c00fa00889fbe00ab0407004a040700b5
:10291c0064cea90064eea900254ea900ecfe0700c8
:10292c00000020006139240003ff07000000200094
:10293c00812c240079ff0700b40107007a030700fb
:10294c0009040700d0000700d8000700b8030700ef
:10295c00e14f5000be003a00b9030700b003070076
:10296c00100798001e009000100078008000eb000b
:10297c00daf8070032332300330524007df9070011
:10298c0002002000035824004ff80700d2cc2c0082
:10299c00c304240077f9070020079800310798003a
:1029ac002e019000be019000000020008120240028
:1029bc0045f8070002002000030a24007ff70700f7
:1029cc0000938800119388001e0090000080e8009e
:1029dc00100078008000eb00c0f8070032332300b1
:1029ec003305240063f9070002002000035824007b
:1029fc0035f80700d2cc2c00c30424005df9070085
:102a0c0020079800310798002e019000be0190001d
:102a1c0000002000812024002bf807000200200079
:102a2c00030a240065f70700a0928800b192880081
:102a3c001e00900064004000100078008000eb0045
:102a4c00a6f80700323323003305240049f90700a8
:102a5c0002002000035824001bf80700d2cc2c00e5
:102a6c00c304240043f9070020079800310798009d
:102a7c002e019000be019000000020008120240057
:102a8c0011f8070002002000030a24004bf707008e
:102a9c00e0928800f19288001e00900068004000cf
:102aac00100078008000eb008cf807003233230014
:102abc00330524002ff907000200200003582400de
:102acc0001f80700d2cc2c00c304240029f907001c
:102adc0020079800310798002e019000be0190004d
:102aec000000200081202400f7f7070002002000de
:102afc00030a240031f70700c0928800d1928800a5
:102b0c001e00900066004000100078008000eb0072
:102b1c0072f80700323323003305240015f907003f
:102b2c000200200003582400e7f70700d2cc2c0049
:102b3c00c30424000ff90700200798003107980000
:102b4c002e019000be019000000020008120240086
:102b5c00ddf7070002002000030a240017f7070026
:102b6c00209388003193880008938000199380008b
:102b7c00a6928000b7928000e4928000f5928000cb
:102b8c00c2928000d3928000209380003193800009
:102b9c00480798005907980066079800770798002f
:102bac00040f9800150f9800220f9800330f98000f
:102bbc00400f9800510f98006800470008fd07006f
:102bcc000200200003122400fcf60700409388004a
:102bdc0051938800409380005193800018c0b3003b
:102bec000200200083242400fbf707000000e00013
:102bfc0001003c000044eb000804e000050032003a
:102c0c000000200081242400409388005193880008
:102c1c000f003700409380005193800018c0b30020
:102c2c000200200003122400e9f707000000e00076
:102c3c00010035000044eb000804e0000400320001
:102c4c00000020000112240040938800519388005a
:102c5c000000eb00000f78000200370010030700a3
:102c6c001e0fe8003a0307009e0f5000fbff3c00cc
:102c7c00b50107002102070000a025002126200035
:102c8c00f803070031ff37000000fa00c301a80069
:102c9c000080eb00e00e88000080eb00f00e880056
:102cac00c1e1a8000080fa00000006000000fa0054
:102cbc00c305a8000080eb00e02e88000080eb002c
:102ccc00f02e8800c1e5a8000080fa000000060084
:102cdc000800fa00881f7800208080003180800076
:102cec0000808800118088006080800071808000e6
:102cfc004080880051808800300e80008000eb00fe
:102d0c00008fbe00500e80008000eb00c000dd0084
:102d1c00000020001e0f40005e974800302e8000ff
:102d2c008000eb002007980031079800502e80009f
:102d3c008000eb00c000dd00000020002e019000a0
:102d4c00be019000020040008380480020079800dc
:102d5c00310798001e0078009e009000dcf70700f9
:102d6c00d25d2b0043c8230082f807002080880026
:102d7c00318088002e009000be009000d4f7070030
:102d8c00d25d2b0043c82b007af8070060808800c6
:102d9c007180880024808000358080000080800055
:102dac00118080000001be000400be0071f8070015
:102dbc00808088009180880064808000758080000d
:102dcc0040808000518080000001be000400be00e5
:102ddc0068f80700a0808800b1808800848080009b
:102dec0095808000a0808000b18080000001be0032
:102dfc000400be005ff80700a2992900c338240024
:102e0c0031f70700c0808800d18088008480800062
:102e1c0095808000a0808000b18080000001be0001
:102e2c000400be0066f60700020020000300240028
:102e3c0025f70700e0808800f18088008080800002
:102e4c00918080006011b8004af8070070938800e8
:102e5c0081938800a0808000b18080006011b80050
:102e6c0044f8070090938800a19388007493800025
:102e7c008593800090938000a19380000001be0098
:102e8c000400be004ef607000200200003002400e0
:102e9c000df70700b0938800c1938800c0808000b4
:102eac00d18080006011b80032f80700d093880000
:102ebc00e19388001094800021948000f0938800a6
:102ecc0001948800509480006194800030948800b4
:102edc004194880090948000a194800070948800a4
:102eec0081948800248080003580800000808000e0
:102efc00118080000001be000400be002ff6070008
:102f0c000002be0000808000118080000001be0025
:102f1c000400be002af60700109488002194880053
:102f2c00648080007580800040808000518080002b
:102f3c000001be000400be000ef807000002be0037
:102f4c0040808000518080000001be000400be0063
:102f5c001bf607005094880061948800c0808000a4
:102f6c00d180800073f6070090948800a1948800ab
:102f7c0090948000a194800018c0b300b2fd200092
:102f8c009304240014f707000000e00001003c004b
:102f9c000044eb000804e00007003200909480002d
:102fac00a1948000b2fd2000930c240003f60700ce
:102fbc0090948800a194880090948000a194800043
:102fcc0018c0b300b2fd200093042c0000f70700da
:102fdc000000e000010035000044eb000804e000b4
:102fec000700320090948000a1948000b2fd200074
:102ffc00930c2400f2f5070090948800a1948800ab
:10300c004f0478000080fa00000006000000fa006f
:10301c001160800080ff2f0000806000106088002d
:10302c0000fa20002060880023aca800238ca800a4
:10303c0011618000f03f2f000080600000a0a00014
:10304c00106188003000200020618800c3aca8000b
:10305c00c38ca80011668000f03f2f000080600038
:10306c0000a0a000106688003000200020668800b8
:10307c0001eca8000080fa00000006000600fa002f
:10308c00008fbe00220798002e0090000000e00088
:10309c0006003a001e0078009e00900001f0a2008d
:1030ac006092880071928800040037001e0178003d
:1030bc009e01900022928800339288000080fa00d2
:1030cc00000006000000fa00889fbe008492800079
:1030dc0095928000609280007192800018c0b300bd
:1030ec000001be000400be00b9f607000000e000bd
:1030fc00010035000044eb000804e0000d00320034
:10310c006892800079928000849280009592800071
:10311c0090818000a18180000001be000400be00ef
:10312c00a7f507000801be00ebfa070080928800a3
:10313c009192880084928000959280006092800029
:10314c007192800018c0b3000001be000400be00e4
:10315c00a1f607000000e00001003c000044eb0079
:10316c000804e0000d003200689280007992800023
:10317c00849280009592800090818000a1818000d3
:10318c000001be000400be008cf507000801be0063
:10319c00b9fa070080928800919288008092800092
:1031ac009192800018c0b3006011b8008af6070035
:1031bc000000e00001003d000044eb000804e000ca
:1031cc0004003200c3cca90024eea800c3eca80074
:1031dc0003003700c3eca90024cea800c3cca80080
:1031ec0080928000919280008dfa070002002000ee
:1031fc00032224005ff707009af60700000078000e
:10320c0030668800449280005592800020928000a5
:10321c003192800018c0b3000001be000400be0053
:10322c006bf607000000e000010035000044eb00e5
:10323c000804e0000d0032002892800039928000d2
:10324c00449280005592800090818000a181800082
:10325c000001be000400be0059f507000801be00c5
:10326c009dfa070040928800519288004492800099
:10327c0055928000209280003192800018c0b300db
:10328c000001be000400be0053f607000000e00081
:10329c0001003c000044eb000804e0000d0032008b
:1032ac0028928000399280004492800055928000d0
:1032bc0090818000a18180000001be000400be004e
:1032cc003ef507000801be006bfa0700409288002b
:1032dc0051928800409280005192800018c0b30037
:1032ec006011b8003cf607000000e00001003d0052
:1032fc000044eb000804e0000400320023cca900d9
:10330c0015eea80023eca8000300370023eca9005d
:10331c0015cea80023cca8004092800051928000ca
:10332c003ffa0700020020000322240011f70700d7
:10333c004cf6070000007800306188004f04be0096
:10334c000080fa00000006000a00fa000000eb0002
:10335c00000f78000000eb00100798001e00900092
:10336c0000407800404798001e0090000000e800e4
:10337c0010079800207180004a00de006140600058
:10338c00504798006400470000017800210020009d
:10339c000002200065fb07001e0090000040780032
:1033ac00404798001e0090000000e80010079800ad
:1033bc00207380004700de00614060005047980099
:1033cc00640047000001780021002000000220006a
:1033dc0056fb07001e009000004078004047980004
:1033ec001e0090000000e800100798002073800079
:1033fc004600de00614060005047980064004700c2
:10340c0000017800210020000002200047fb07008b
:10341c000000eb00000f7800c0928000d192800079
:10342c0010f60700804078001e017800650041000e
:10343c00017778001e0fe800e0928000f192800086
:10344c0008f60700804078001e01780065004100f6
:10345c00017778001e0fe800a0928000b1928000e6
:10346c0000f60700804078001e01780065004100de
:10347c00017778001e0fe800650047000001780016
:10348c00310020000003200028fb07000000eb00a7
:10349c00000f780030618000804078001e017800b9
:1034ac0067004100017778001e0fe800306680004d
:1034bc00804078001e017800670041000177780099
:1034cc001e0fe80067004700000178002100200073
:1034dc000004200015fb07003ad0bf00004f9800f5
:1034ec006800470000017800110020002005200032
:1034fc000efb07000080fa00000006001800fa001e
:10350c0070818000818180000001be008000eb0092
:10351c000e0078007ffa0700109480002194800040
:10352c000001be00410020000e00780060fa070088
:10353c0050948000619480000001be008100200046
:10354c000e0078005afa070090948000a194800035
:10355c000001be00c10020000e00780054fa0700e4
:10356c00b0938000c19380000001be0001012000d7
:10357c000e0078004efa0700d0938000e193800093
:10358c000001be00410120000e00780048fa07003f
:10359c000e0178008101200010062000e3fa0700dc
:1035ac000080fa00000006000600fa0010079800e0
:1035bc00210798000040eb00004f780054000700f2
:1035cc00ae009000810f5000110034000040eb0061
:1035dc00004f7800060037001e80fb009e00900014
:1035ec0000804000104078000b0007001e4fe800e0
:1035fc009e80fb002e009000808f5000f6ff35005f
:10360c00300007000004e00001003a00240007002d
:10361c000080fa00000006000200fa00004f78005b
:10362c004081800021142100008040001e48780059
:10363c0041818000e0072000808f500002003400a0
:10364c002830ef0003003700408180000000e800c4
:10365c00408188000080fa00000006000200fa0099
:10366c00508180002114210000804000104f780010
:10367c0051818000e0072000808f50000200340050
:10368c002a30ef0003003700508180000000e80072
:10369c00508188001e4078000080fa00000006006f
:1036ac000200fa0010c0b3002cf0b700ebff0700cb
:1036bc00004f78001e80fb00201188000080fa006b
:1036cc00000006000000fa002cd0bf000080fa00b9
:1036dc00000006000000fa0041818000508180004b
:1036ec00808f5000040035004181800050818000a3
:1036fc000080500004003700418180005081800020
:10370c00008050000008b0000080fa0000000600a5
:10371c000000fa00efff07000108200000805000b5
:10372c000080fa00000006000000fa0021e3a90066
:10373c002143a80001198000f0cf2f000080600009
:10374c00001988002043a90001198000000e2000f8
:10375c00010070000019880011198000f0ff210091
:10376c0000806000101988002343a8001119800004
:10377c00f0cf2f0000806000101988001119800014
:10378c0030f82f00008060000040a0001019880065
:10379c002203a9002223a90025e3a900f0c0b3004d
:1037ac0024e3b70021198000f00f2e008080600008
:1037bc0000f0200001007000201988003303a900dc
:1037cc004feea8002e0ea8002f6ea8006f2ea8009a
:1037dc001e2ea8003063a80030c3a8003163a800d7
:1037ec002e03a80031e3a8004119800000fc2f0033
:1037fc00008060004019880028e3a90001a8a900f6
:10380c0021a8a80021e3a8000080fa00000006000f
:10381c000000fa002023a8000080fa000000060037
:10382c000000fa00602921000080fa000000060068
:10383c000000fa003fd0bf000080fa000000060034
:10384c000000fa003f70ef000080fa000000060054
:10385c000200fa00004f78002d0007000000e00085
:10386c000d003400b0818000211c2100008040003c
:10387c001e487800b1818000e0072000808f500046
:10388c00020034003630ef0003003700b0818000b6
:10389c000000e800b08188000080fa0000000600fb
:1038ac000200fa00c0818000211c21000080400031
:1038bc00104f7800c1818000e0072000808f5000fd
:1038cc00020034003830ef0003003700c081800064
:1038dc000000e800c08188001e4078006efa0700e6
:1038ec000080fa00000006000000fa00b1818000a0
:1038fc00c0818000808f50000200320010c0b300e5
:10390c00010037000040eb000080fa0000000600c8
:10391c000000fa00b1818000c0818000808f5000cf
:10392c0005003400c1818000b0818000008050000f
:10393c000008b00004003700b1818000c081800015
:10394c00008050000008b0000080fa000000060063
:10395c000000fa00eeff0700010820000080500074
:10396c000080fa00000006000000fa002002a90006
:10397c000111800090ff2f00008060000011880072
:10398c0020a2a9002062a800500520004011880048
:10399c0023a2a90023e2a9000188a9002188a8007c
:1039ac0011118000f0f32f000080600010118800ce
:1039bc000168a9002168a80021e2a8002342a80000
:1039cc000080fa00000006000600fa0010079800bc
:1039dc00210798000040eb00004f78000040eb00fe
:1039ec00004f78000e00370000000000111180001d
:1039fc0000202000008060000000e000fbff3a0087
:103a0c001e009000104078000080fb002011880000
:103a1c001e0090000000e800100798001e4fe80000
:103a2c009e80fb002e009000808f5000eeff350032
:103a3c000080fa00000006000000fa000e2eef00d5
:103a4c001e2eef002e2eef003e2eef004e2eef001e
:103a5c005e2eef006e2eef00214ea90060cea90065
:103a6c0060eea90011cea90011eea90020cea9008c
:103a7c0020eea9002136800000f82f0000806000a5
:103a8c008001b300203688001134800000fc2f0028
:103a9c00008060000000a000103488000136800017
:103aac0000f82f00808060001006200001007000dc
:103abc000036880001368000f00f280080806000fe
:103acc00000026000100700000368800e1358000ff
:103adc0000f82f008080600060042000010070005e
:103aec00e0358800e1358000f00f28008080600010
:103afc000050240001007000e03588000080fa00be
:043b0c0000000600af
:020000040000fa
:103b10002e1000000400000080000000421200008f
:103b2000540000008000000032100000040000007b
:103b3000820000000000f00041000000961200002a
:103b40000a000000800000003e100000020000009b
:103b50008000000042110000800000008000000092
:103b6000281000000600000080000000c2110000c4
:103b700080000000800000003610000004000000fb
:103b800080000000421000000001000080000000e2
:103b9000201000000800000080000000001000005d
:103ba00020000000800000003a1000000400000027
:103bb00080000000401000000200000080000000b3
:043bc0000000000001
:020000040000fa
:103bc4000000fa00f0032000303a8800213a800017
:103bd400f0f32f0000806000203a8800213a800032
:103be40000fe2f00008060000000a000203a880042
:103bf4001200200080072000a10920003374200057
:103c0400804978008149780082497800103a800020
:103c1400000178000200a00060042000710520006b
:103c24002374200080497800814978008249780013
:103c340000000000113a800000002700808060002e
:103c440000002100808f5000faff3a0000000000bd
:103c5400113a800000022000008060000000e000b3
:0c3c6400fbff32000080fa0000000600a8
:020000040000fa
:103c7000f03fb1000180b10006003500ee030900fd
:103c800000000000403fb1000180b100fbff3d009b
:103c90001000b000203fb000020035000080090095
:083ca000000000000000060016
:020000040000fa
:02000004000af0
:04afe000cfff00009f
:020000040000fa
:02000004000af0
:04afe400ffff00006b
:020000040000fa
:02000004000af0
:04afe8007fff0000e7
:020000040000fa
:02000004000af0
:04afec005fff000003
:020000040000fa
:02000004000af0
:04aff00038ff000026
:020000040000fa
:02000004000af0
:04aff400ffff00005b
:00000001FF
